S01A00004D4547415F4750494F5F4558414D504C45312E73726563C6
S1130000F2C000000DC100000BC1000009C10000D6
S113001007C1000005C1000003C1000001C10000C8
S1130020FFC00000FDC00000FBC00000F9C00000DC
S11300300C94BB0EF5C00000F3C00000F1C000003A
S1130040EFC000000C94E40DEBC00000E9C0000018
S1130050E7C00000E5C00000E3C00000E1C000000C
S1130060DFC000000C94850EDBC00000D9C0000086
S1130070D7C00000D5C00000D3C00000D1C000002C
S1130080CFC00000CDC00000CBC00000C9C000003C
S1130090C7C00000C5C00000C3C00000C1C000004C
S11300A0BFC00000BDC00000BBC00000B9C000005C
S11300B0B7C00000B5C00000B3C00000B1C000006C
S11300C0AFC00000ADC00000ABC00000A9C000007C
S11300D0A7C00000A5C00000A3C00000A1C000008C
S11300E09FC000006E616E00696E660000407A1069
S11300F0F35A00A0724E18090010A5D4E80000E8D5
S11301007648170000E40B54020000CA9A3B000032
S113011000E1F505000080969800000040420F00C1
S11301200000A08601000000102700000000E80382
S1130130000000006400000000000A00000000004D
S11301400100000000002C76D888DC674F0823DF0C
S1130150C1DFAE59E1B1B796E5E3E453C63AE651DF
S1130160997696E8E6C28426EB898C9B62ED407C06
S11301706FFCEFBC9C9F40F2BAA56FA5F490055AA2
S11301802AF75C936B6CF9676DC11BFCE0E40D47C7
S1130190FEF520E6B500D0ED902E030094357705EA
S11301A00080841E080000204E0A000000C80C33A2
S11301B03333330F986E12831141EF8D2114893B31
S11301C0E65516CFFEE6DB18D1844B381BF77C1DB1
S11301D0901DA4BBE424203284725E228100C9F104
S11301E024ECA1E53D2711241FBECFEFD1E2DEBFF1
S11301F0CDBF14E0A0E0B2E0E2E5FCE202C005906D
S11302000D92A232B107D9F724E0A2E2B4E001C012
S11302101D92AD39B207E1F70E94E00E0C94271647
S1130220EFCE8430910544F4EBE7F0E09081977FC2
S1130230908380937C00089598E090937B00845091
S113024080937C000895EAE7F0E0808180648083F5
S1130250808186FDFDCF809178009091790008958A
S1130260E0DFF1DFBC0180E090E00C94BE0F089564
S11302709C012C5F3F4F0297A8F4C901F1DF20E0F5
S113028030E040E85AE30E94741023E333E343E58B
S113029050E40E94741029E334EB48E65FE30C94C5
S11302A0560F089526303105B1F486E090E0D8DF8A
S11302B020E030E040E85AE30E94741023E333E383
S11302C043E550E40E94741020EF35E849E15FE310
S11302D00C94560F089527303105B1F487E090E06F
S11302E0BFDF20E030E040E85AE30E94741023E3CB
S11302F033E343E550E40E94741029E93AE248EB01
S11303005EE30C94560F089528303105B1F488E06B
S113031090E0A6DF20E030E040E85AE30E94741049
S113032023E333E343E550E40E94741022E43FECFA
S113033046E35FE30C94560F089560E070E0CB0150
S113034008954F925F926F927F928F929F92AF9295
S1130350BF92CF92DF92EF92FF920F931F93CF93AE
S1130360DF93CDB7DEB768970FB6F894DEBF0FBE44
S1130370CDBF5C0188E1E1E0F2E0DE01119601907D
S11303800D928A95E1F784E0A816B1040CF03DC003
S113039009E110E0C12CD12C76014501880C991C8F
S11303A0880C991CE1E0F0E0EC0FFD1F8E0E9F1EFF
S11303B0C50156DF20E030E040E85AE30E947410A3
S11303C023E333E343E550E40E947410F4012081F5
S11303D03181428153810E94ED0E2DEC3CEC4CECBA
S11303E05EE30E94560F9B01AC01C701B6010E9457
S11303F0EE0E6B017C0101501109D1F620E030E0D2
S113040048EC51E40E94560F48C0C5010497029776
S113041008F040C07501F5E0EF0EF11C09E110E0B1
S1130420412C512C3201AA0CBB1CAA0CBB1C81E030
S113043090E08C0F9D1FA80EB91EC70111DF20E0AC
S113044030E040E85AE30E94741023E333E343E5C9
S113045050E40E947410F50120813181428153815E
S11304600E94ED0E2DEC3CEC4CEC5EE30E94560F2A
S11304709B01AC01C301B2010E94EE0E2B013C01B1
S113048001501109D1F620E030E048EC51E40E941B
S1130490560F03C060E070E0CB0168960FB6F89485
S11304A0DEBF0FBECDBFDF91CF911F910F91FF90A3
S11304B0EF90DF90CF90BF90AF909F908F907F9000
S11304C06F905F904F900895CF92DF92EF92FF92DA
S11304D00F931F93CF93DF9381E090E024D701E043
S11304E010E0C0E0D0E003C021960F5F1F4F2097BB
S11304F069F584E090E017D785E090E0AED686E019
S113050090E0ABD68BE090E0ABDE20E030E040E85A
S11305105AE30E94741023E333E343E550E40E945A
S1130520741023EB3BE742E35FE30E94ED0E2BE400
S113053039E546E05DE30E94560F9B01AC01C7011B
S1130540B6010E94EE0E6B017C01CECFC130D10505
S113055069F584E090E081D685E090E07ED686E07F
S113056090E0E1D68BE090E07BDE20E030E040E8F4
S11305705AE30E94741023E333E343E550E40E94FA
S1130580741023EB3BE742E35FE30E94ED0E2BE4A0
S113059039E546E05DE30E94560F9B01AC01C701BB
S11305A0B6010E94EE0E6B017C019ECFC230D105D4
S11305B069F584E090E051D685E090E04ED686E07F
S11305C090E04BD68BE090E04BDE20E030E040E85A
S11305D05AE30E94741023E333E343E550E40E949A
S11305E0741023EB3BE742E35FE30E94ED0E2BE440
S11305F039E546E05DE30E94560F9B01AC01C7015B
S1130600B6010E94EE0E6B017C0104C0033011059B
S11306100CF46ACF81E090E020D684E090E083D6A9
S113062085E090E080D686E090E07DD620E030E062
S113063040E450E4C701B6010E94560FDF91CF9108
S11306401F910F91FF90EF90DF90CF9008958F92BC
S11306509F92AF92BF92CF92DF92EF92FF926B0183
S11306607C0149015A012AE939E949E15FE3C501FD
S1130670B4010E94520F88230CF091C020E030E0B6
S1130680A901C501B4010E94701018160CF087C0AE
S113069020E030E040E850E4C701B6010E94701049
S11306A018160CF4ABC120E030E040E850E4C70178
S11306B0B6010E94520F88235CF423E333E343E73B
S11306C050E4C701B6010E94701018160CF49BC1C7
S11306D023E333E343E750E4C701B6010E94520F1A
S11306E088235CF420E030E040E750E4C701B60121
S11306F00E94701018160CF48BC120E030E040E723
S113070050E4C701B6010E94520F88235CF42DEC1B
S11307103CEC4CE650E4C701B6010E947010181678
S11307200CF47BC12DEC3CEC4CE650E4C701B60163
S11307300E94520F88235CF426E636E646E650E42F
S1130740C701B6010E94701018160CF46BC126E69E
S113075036E646E650E4C701B6010E94520F8823EC
S11307605CF420E030E040E650E4C701B6010E94AA
S1130770701018160CF45BC120E030E040E650E441
S1130780C701B6010E94520F88230CF455C18AE4B4
S113079093E00E94560D60E070E0CB019BC12AE912
S11307A039E949E15FE3C501B4010E9470101816EC
S11307B00CF092C020E030E040E450E4C501B40104
S11307C00E94520F88230CF087C020E030E040E7FD
S11307D050E4C701B6010E94701018160CF431C120
S11307E020E030E040E750E4C701B6010E94520F18
S11307F088235CF42AE939E949E650E4C701B601E3
S11308000E94701018160CF421C12AE939E949E64E
S113081050E4C701B6010E94520F88235CF423E31D
S113082033E343E650E4C701B6010E947010181682
S11308300CF411C123E333E343E650E4C701B601EA
S11308400E94520F88235CF42DEC3CEC4CE550E400
S1130850C701B6010E94701018160CF401C12DECEA
S11308603CEC4CE550E4C701B6010E94520F8823CA
S11308705CF426E636E646E550E4C701B6010E947C
S1130880701018160CF4F1C026E636E646E550E47E
S1130890C701B6010E94520F88235CF423E333E3BB
S11308A043E550E4C701B6010E94701018160CF419
S11308B0E1C023E333E343E550E4C701B6010E94FA
S11308C0520F88230CF4DBC08AE493E00E94560D97
S11308D060E070E0CB01FEC020E030E040E450E492
S11308E0C501B4010E94701018160CF0CDC023E3AA
S11308F033E343E750E4C701B6010E9470101816B1
S11309000CF4C6C023E333E343E750E4C701B60164
S11309100E94520F88235CF420E030E040E750E46A
S1130920C701B6010E94701018160CF4B6C020E07E
S113093030E040E750E4C701B6010E94520F88231B
S11309405CF42AE939E949E650E4C701B6010E949A
S1130950701018160CF4A6C02AE939E949E650E4E7
S1130960C701B6010E94520F88235CF420E030E0F6
S113097040E650E4C701B6010E94701018160CF44A
S113098096C020E030E040E650E4C701B6010E9482
S1130990520F88235CF42AE939E949E550E4C70198
S11309A0B6010E94701018160CF486C02AE939E9C1
S11309B049E550E4C701B6010E94520F88235CF454
S11309C020E030E040E550E4C701B6010E94701019
S11309D018160CF476C020E030E040E550E4C7017E
S11309E0B6010E94520F88230CF470C08AE493E08D
S11309F00E94560D60E070E0CB016CC060E070E0D6
S1130A0080EA92E467C060E070E08CE892E462C03F
S1130A1060E070E080E792E45DC060E070E088E44C
S1130A2092E458C060E070E080E292E453C060E079
S1130A3070E080EF91E44EC060E070E080EA91E401
S1130A4049C060E070E080EA92E444C060E070E095
S1130A508CE892E43FC060E070E080E792E43AC042
S1130A6060E070E088E492E435C060E070E080E229
S1130A7092E430C060E070E080EF91E42BC060E06D
S1130A8070E080EA91E426C060E070E0CB0122C00F
S1130A9060E070E080EA92E41DC060E070E08CE801
S1130AA092E418C060E070E080E792E413C060E074
S1130AB070E088E492E40EC060E070E080E292E4CA
S1130AC009C060E070E080EF91E404C060E070E091
S1130AD080EA91E4FF90EF90DF90CF90BF90AF90C9
S1130AE09F908F90089560E070E080E0A4C3089523
S1130AF060E070E08FEF9FC3089580E090E0A5D39D
S1130B00882339F0869539F0869539F0869539F43D
S1130B10089580E0089580E0089580E0089584E0D9
S1130B200895EBDF81110AC02FEF89E698E1215087
S1130B3080409040E1F700C00000DACF0895D3DF91
S1130B40A89581E00E94A90D86E0DFC708958AE098
S1130B5090E083D380E090E08BDB26E636E646E443
S1130B6050E40E94520F8823ACF308958BE090E088
S1130B7074D382E090E07CDB2AE939E949E950E466
S1130B800E94520F8823ACF3089580E190E065D36E
S1130B9083E090E06DDB2AE939E949EF50E40E94F3
S1130BA0520F8823ACF3089580E190E056D384E09B
S1130BB090E05EDB20E030E040E250E40E94520F1F
S1130BC08823ACF3089585FD03C08AE090E0ABC3AD
S1130BD00895827319F48BE090E0A5C30895847C92
S1130BE019F480E190E09FC3089580FD03C085E17E
S1130BF090E099C308950F931F93CF93C82F8B014F
S1130C0080FF11C0867079F48C2FE3DF8C2FE7DF2F
S1130C1083E090E088D382E090E085D3C5DF80E074
S1130C2090E01BD33BC0C1FF12C08C2F857079F4B8
S1130C308C2FDBDF8C2FD3DF80E090E074D382E055
S1130C4090E071D393DF83E090E007D327C0C2FF25
S1130C5012C08C2F837079F48C2FC7DF8C2FB9DFEF
S1130C6080E090E060D383E090E05DD38EDF82E0AB
S1130C7090E0F3D213C080E090E055D383E090E09D
S1130C8052D382E090E04FD38C2FAFDF8C2FA1DFC3
S1130C908C2FA5DFF8018081887F8083CF911F91FD
S1130CA00F91089583FF04C088E190E0D6C20895AF
S1130CB088E190E038C30895CF93C82F84FF08C01B
S1130CC055DF87E190E0C9D286E190E0C6D208C042
S1130CD086E190E028D387E190E025D38C2F79DF5B
S1130CE0CF910895CF93C82F85FF09C03FDF2FDF31
S1130CF08BE190E0B2D28CE190E0AFD20AC08CE1FB
S1130D0090E011D38BE190E00ED38C2F5CDF8C2F1D
S1130D1060DFCF910895CF93C82F86FF05C035DFDC
S1130D208AE190E09AD205C08AE190E0FCD28C2F4F
S1130D3056DFCF910895CF93C82F88232CF425DF55
S1130D4089E190E08AD205C089E190E0ECD28C2F51
S1130D5046DFCF910895CF93C82F4DDF8C2FA2DFAC
S1130D608C2FAADF8C2FBEDF8C2FD5DF8C2FE3DFF7
S1130D70CF910895FC0181E08083818312821382E4
S1130D801482158284E086838AE0878388E08087E2
S1130D9081878CE182878AE1838788E184878587DC
S1130DA016868CEB87878AE3808B88E3818B828B22
S1130DB0138A8CEF848B8AEF858B88EF868B878BE5
S1130DC0108E08958F929F92AF92BF92CF92DF922E
S1130DD0EF92FF92CF936B017C0149015A0120E00D
S1130DE030E040EA51E40E94520F88230CF04FC0D7
S1130DF020E030E040E252E4C501B4010E947010EA
S1130E0088230CF0B3C120E030E040EF51E4C50189
S1130E10B4010E94701088235CF020E030E040E2CE
S1130E2052E4C501B4010E94520F88230CF4A1C1FD
S1130E3020E030E040E751E4C501B4010E947010A5
S1130E4088235CF020E030E040EF51E4C501B401B8
S1130E500E94520F88230CF48FC120E030E0A901D6
S1130E60C501B4010E94701088230CF488C1C1E04C
S1130E70F12C20E030E040E751E4C501B4010E94C8
S1130E80520F88230CF0C0E08C2F9F2DB6C120E0B8
S1130E9030E040E252E4C701B6010E94520F8823B9
S1130EA00CF058C020E030E040EA51E4C701B6013C
S1130EB00E94701088230CF44DC020E030E040E222
S1130EC052E4C501B4010E94701088230CF05AC189
S1130ED020E030E040EF51E4C501B4010E947010FD
S1130EE0882354F020E030E040E252E4C501B4012C
S1130EF0D9D788230CF449C120E030E040E751E41D
S1130F00C501B4010E947010882354F020E030E041
S1130F1040EF51E4C501B401C5D788230CF438C1AE
S1130F2020E030E0A901C501B4010E9470108823BB
S1130F300CF431C120E030E040E751E4C501B401D4
S1130F40B1D7082E000C990B8827990F881F992771
S1130F50059653C120E030E040E752E4C701B601F2
S1130F60A1D788230CF058C020E030E040E252E4DE
S1130F70C701B6010E94701088230CF433C120E02D
S1130F8030E040E252E4C501B4010E9470108823AD
S1130F900CF004C120E030E040EF51E4C501B4019D
S1130FA00E947010882354F020E030E040E252E4C4
S1130FB0C501B40177D788230CF4F3C020E030E0F6
S1130FC040E751E4C501B4010E947010882354F035
S1130FD020E030E040EF51E4C501B40163D7882339
S1130FE00CF4E2C020E030E0A901C501B4010E9484
S1130FF0701088230CF4DBC020E030E040E751E4BB
S1131000C501B4014FD7082E000C990B8827990FFE
S1131010881F99270A96F1C020E030E040EA52E4A4
S1131020C701B6013FD788230CF057C020E030E059
S113103040E752E4C701B60135D718160CF44DC089
S113104020E030E040E252E4C501B4010E94701097
S113105088230CF0AFC020E030E040EF51E4C5013C
S1131060B4010E947010882354F020E030E040E284
S113107052E4C501B40116D788230CF49EC020E0C5
S113108030E040E751E4C501B4010E9470108823A8
S113109054F020E030E040EF51E4C501B40102D740
S11310A088230CF48DC020E030E0A901C501B4010F
S11310B00E94701088230CF486C020E030E040E7E2
S11310C051E4C501B401EED6082E000C990B882713
S11310D0990F881F99270F9690C020E030E040E2D6
S11310E052E4C501B401FCD788230CF06FC020E0A2
S11310F030E040EF51E4C501B401F2D7882354F045
S113110020E030E040E252E4C501B401CBD68823AC
S11311100CF45FC020E030E040E751E4C501B401C5
S1131120DFD7882354F020E030E040EF51E4C501DC
S1131130B401B8D688230CF44FC020E030E0A901F4
S1131140C501B401CDD788230CF449C020E030E0B8
S113115040E751E4C501B401A5D6082E000C990B53
S11311608827990F881F9927449647C084E090E008
S113117044C083E090E041C082E090E03EC080E063
S113118090E03BC089E090E038C088E090E035C052
S113119087E090E032C085E090E02FC08EE090E0E0
S11311A02CC08DE090E029C08CE090E026C08AE05D
S11311B090E023C083E190E020C082E190E01DC074
S11311C081E190E01AC08FE090E017C088E190E0E0
S11311D014C087E190E011C086E190E00EC084E184
S11311E090E00BC020E030E040EA52E4C701B601D1
S11311F059D688230CF424CF70CFCF91FF90EF9071
S1131200DF90CF90BF90AF909F908F900895FC0196
S1131210AC01485F5F4F91E03EE689E7262F292322
S113122019F08083990F02C03083990F3196E41727
S1131230F507A1F70895F999FECF72BD61BD80BD90
S113124084E08FBB82E08FBB0895F999FECF92BDF5
S113125081BD81E08FBB80B50895873091057CF412
S1131260E2E0F1E0408121E030E0B90102C0660F24
S1131270771F8A95E2F7CB01842B808308959C0124
S1131280275031092330310580F4EBE0F1E040814F
S1131290069721E030E0B90102C0660F771F8A95F6
S11312A0E2F7CB01842B808308959C012A503109F5
S11312B02430310570F442B1069721E030E0B901E1
S11312C002C0660F771F8A95E2F7CB01842B82B99F
S11312D008959C012E5031092730310580F4E5E052
S11312E0F1E04081C90121E030E0B90102C0660F9C
S11312F0771F8A95E2F7CB01842B808308959C01A4
S1131300255131092830310568F448B1C90121E07B
S113131030E0B90102C0660F771F8A95E2F7CB016E
S1131320842B88B908958730910584F4E2E0F1E0D4
S1131330908141E050E002C0440F551F8A95E2F7C6
S11313402EEF842F82278923808308959C012750C0
S113135031092330310590F4EBE0F1E02081AC0158
S11313604650510981E090E002C0880F991F4A95C8
S1131370E2F79EEF89278223808308959C012A50F7
S113138031092430310580F422B1AC0146505109B1
S113139081E090E002C0880F991F4A95E2F79EEF22
S11313A08927822382B908959C012E503109273060
S11313B0310590F4E5E0F1E02081AC014E50510993
S11313C081E090E002C0880F991F4A95E2F79EEFF2
S11313D089278223808308959C012551310928306F
S11313E0310578F428B1459741E050E0BA0102C0D4
S11313F0660F771F8A95E2F7CB019EEF8927822338
S113140088B908951F93CF93DF93EC01162FAEDBB9
S113141082E090E00E94A101688379838A839B83A0
S113142083E090E00E94A1016C837D838E839F837F
S113143081E090E00E94A101688779878A879B8771
S113144080E090E00E94A1016C877D878E879F8752
S113145085E090E00E94A101688B798B8A8B9B8B3D
S113146084E090E00E94A1016C8B7D8B8E8B9F8B1E
S113147080E090E00E943801688F798F8A8F9B8F7B
S113148081E090E00E9438016C8F7D8F8E8F9F8F5A
S113149082E090E00E94380168A379A38AA39BA309
S11314A083E090E00E9438016CA37DA38EA39FA3E8
S11314B084E090E00E94380168A779A78AA79BA7D7
S11314C003D86CA77DA78EA79FA7812F82DBDF910E
S11314D0CF911F9108952F923F924F925F926F92F6
S11314E07F928F929F92AF92BF92CF92DF92EF92B0
S11314F0FF920F931F93CF93DF93CDB7DEB7CF53F4
S1131500D1400FB6F894DEBF0FBECDBFC45CDE4F32
S113151099838883CC53D1404B0184E3E9E1F2E021
S1131520DE01119601900D928A95E1F7FE01F59680
S113153088E0DF011D928A95E9F789E2E5E5F2E0AA
S1131540DE01DD9601900D928A95E1F7FE01EA59DC
S1131550FF4F84E0DF011D928A95E9F7BE01635CC9
S11315607F4FCE0101960E944F15A0D28AE08ED201
S11315708AE08CD28DE08AD280E5E2E8F2E0DE01F6
S1131580A659BF4F01900D928A95E1F788E7E2EDE5
S1131590F2E0DE01A654BF4F01900D928A95E1F767
S11315A0FE01E654FF4F7F01C12CD12C412C512C5C
S11315B000E010E00F2EFFE0AF2EB12CF02D3E0125
S11315C0FEEC6F1AFEEF7F0AC25CDE4F6882CE53D8
S11315D0D140C15CDE4F7882CF53D14026E0C216A1
S11315E0D10409F071C08AE051D28DE04FD246E0B7
S11315F0241631040CF052C08101000F111F000F9A
S1131600111FC45CDE4F88819981CC53D140080FEF
S1131610191F3FC080E23AD291E0491A5108D1F72C
S1131620D8018C9111969C91119712962C91129736
S113163013963C910C5F1F4F3F932F939F938F936F
S1131640ECE6F3E0FF93EF937F926F920E94AA156A
S1131650C25CDE4F8881CE53D140C15CDE4F98819D
S1131660CF53D14023D24FEF241A340AF30101900F
S11316700020E9F73197E619F70925014E1A5F0AA8
S11316800FB6F894DEBF0FBECDBF96E02916310425
S113169029F04114510409F0BDCFC2CF8AE0F6D13C
S11316A08AE0F4D18DE0F2D1C70100D2AFEFCA1ABB
S11316B0DA0AF70101900020E9F73197EE19FF09E2
S11316C085010E1B1F0B7BC00115110529F080E25B
S11316D0DDD101501109D9F7C701E8D1BFEFCB1A09
S11316E0DB0AF70101900020E9F73197EE19FF09B1
S11316F085010E1B1F0BECE0CE16D10409F05FC070
S11317008AE0C4D18DE0C2D1FCE02F1631040CF084
S113171099C0C101880F991F880F991FC45CDE4FBF
S113172048805980CC53D140480E591E0F2EFCE6F8
S1131730AF2EF3E0BF2EF02D8E010E5C1E4F0F2E48
S1131740FFE0CF2ED12CF02D06C080E29FD121E006
S1131750E21AF108D1F7D2018C9111969C9111975C
S113176012962C91129713963C91B4E04B0E511C97
S11317703F932F939F938F93BF92AF921F930F9397
S11317800E94AA15C80192D1EFEF2E1A3E0AF80161
S113179001900020E9F73197E01BF10B7601EE1A76
S11317A0FF0A0FB6F894DEBF0FBECDBF9CE029162A
S11317B0310409F447C0E114F10439F6CCCFAAE0AE
S11317C0EA0EF11C0BCF80E261D101501109D9F767
S11317D0BAE0EB0EF11CC70169D1F70101900020BA
S11317E0E9F73197EE19FF0986010E1B1F0BAE14A2
S11317F0BF0421F00115110531F7EACF8AE046D183
S11318008DE044D17401E8E08E0E911C00E010E0FC
S11318100EC080E23BD101501109D9F7D7018D9157
S11318207D0134D10EE010E08E149F0421F00115E7
S1131830110579F7F3CF8AE029D18AE027D18DE029
S113184025D114C08AE022D18AE020D18DE01ED1B6
S11318507E01BAE6EB0EF11C5E01E0EBAE0EB11CAC
S11318600F2EFFE0CF2ED12CF02DB5CFC15CDE4F73
S11318700FB6F894DEBF0FBECDBFDF91CF911F919D
S11318800F91FF90EF90DF90CF90BF90AF909F901B
S11318908F907F906F905F904F903F902F9008951E
S11318A0DB01FC01AC01485F5F4F3FEF91E0219108
S11318B0293729F48C91892B8C93990F05C03927EA
S11318C02C9123232C93990FE417F50781F708959E
S11318D0AF92BF92CF92DF92EF92FF920F931F933A
S11318E0CF93DF93EC016B017A01B22EA32ECE01CC
S11318F0EBD0CE01DBD08AE0C9D08AE0C7D08DE03E
S1131900C5D0FE0101900020E9F73197EC1BFD0BD7
S1131910759720F08FE693E0C9D0E9CF63E973E0CF
S1131920CE010E945A15892B21F46B2DC6016ADD64
S11319305AC06CE973E0CE010E945A15892BE1F478
S1131940F701808181114FC086EA93E0AFD08AE02D
S11319509DD08AE09BD08DE099D0C801B5D06B2D85
S11319607A2DC8019DDFC801A1D08AE08FD08AE01A
S11319708DD08DE08BD037C060EC73E0CE010E9437
S11319805A15892B81F16BEC73E0CE010E945A1534
S1131990892B49F165ED73E0CE010E945A15892B1C
S11319A041F481E0F7019081911180E0F701808397
S11319B01AC060EE73E0CE010E945A15892B11F40F
S11319C0BED811C06CEE73E0CE010E945A15892B6B
S11319D051F087EF93E06AD08AE058D08AE056D07D
S11319E08DE054D084CFDF91CF911F910F91FF9060
S11319F0EF90DF90CF90BF90AF9008958FE78093E2
S1131A0001019EE090930A0190EF91B98093040143
S1131A108FEF87B982E08093020110920B0112B814
S1131A201092050118B8089510BA10927C0085E848
S1131A3080937A00089584E08093810082E080930B
S1131A406F008FEF90E0909389008093880010924C
S1131A5085001092840008951092C5008CE0809354
S1131A60C40088E98093C10086E08093C200089591
S1131A7084B7877F84BF82E06CD089E046C0089534
S1131A80BDDFD2DFE9DFD7DFF3CF0895E0ECF0E08C
S1131A90908195FFFDCF8093C6000895E0ECF0E0BF
S1131AA080818823ECF78091C6000895CF93DF935B
S1131AB0EC018881882329F02196E8DF899181113E
S1131AC0FCCFDF91CF910895EF92FF920F931F9374
S1131AD0CF93DF937C01E2DF803259F08701C0E0CD
S1131AE0D0E0F80181938F012196D8DF8032C9F7C5
S1131AF002C0C0E0D0E0CE0DDF1D1882DF91CF918F
S1131B001F910F91FF90EF900895CF93DF931F9251
S1131B10CDB7DEB7382F83FF02C050E201C050E0DA
S1131B208FB78983F8948981A89518ED2091600076
S1131B3012231093600048E127E03223352B312B28
S1131B4040936000309360008FBF0F90DF91CF917E
S1131B500895CF93DF931F92CDB7DEB79FB79983D4
S1131B60F8942981A89594B7977F94BF813059F44C
S1131B701FEB2091600012231093600028E9212BB1
S1131B80209360001CC081110EC017EF20916000EB
S1131B9012231093600048E130ED312B4093600034
S1131BA0309360000CC0823051F417EF2091600034
S1131BB012231093600028ED212B209360002FBF87
S1131BC00F90DF91CF9108951F920F920FB60F924D
S1131BD011242F933F934F935F936F937F938F932E
S1131BE09F93AF93BF93EF93FF93F8946091230473
S1131BF08CE694E007DCECE6F4E084A595A5A6A5C4
S1131C00B7A580932A0490932B04A0932C04B0933B
S1131C102D04208931894289538960A571A582A543
S1131C2093A50E9427036093320470933304809336
S1131C3034049093350420910002222309F1209169
S1131C402A0430912B0440912C0450912D04BAD8CD
S1131C509093250480932404FC01E65BFB4F608190
S1131C606093230483E694E0D2DA63E274E0809123
S1131C70230471D863E674E08CE694E02CDC0FC096
S1131C806091230483E694E0C2DA63E274E0809115
S1131C90230461D863E674E08CE694E01CDC809154
S1131CA023048093220480912A0490912B04A09110
S1131CB02C04B0912D048093260490932704A093C0
S1131CC02804B09329048091320490913304A091A4
S1131CD03404B091350480932E0490932F04A09380
S1131CE03004B09331047894FF91EF91BF91AF9198
S1131CF09F918F917F916F915F914F913F912F9120
S1131D000F900FBE0F901F9018951F920F920FB651
S1131D100F9211240F931F932F933F934F935F932D
S1131D206F937F938F939F93AF93BF93EF93FF939F
S1131D30F894B4DE80939C0403E614E023E234E0D8
S1131D4040E052E06CE674E086E394E0C1DD789410
S1131D50FF91EF91BF91AF919F918F917F916F917F
S1131D605F914F913F912F911F910F910F900FBE53
S1131D700F901F9018951F920F920FB60F92112477
S1131D802F933F934F935F936F937F938F939F937F
S1131D90AF93BF93EF93FF93F8946ADE7894FF9127
S1131DA0EF91BF91AF919F918F917F916F915F91CF
S1131DB04F913F912F910F900FBE0F901F90189548
S1131DC05FDEF8948FE094E071DE0E9491058AE46E
S1131DD094E00E94BA067894FFCF5058BB27AA27F4
S1131DE00ED044C135D130F03AD120F031F49F3FC8
S1131DF011F41EF42AC10EF4E095E7FB20C1E92F8B
S1131E0046D180F3BA17620773078407950718F061
S1131E1071F49EF55EC10EF4E0950B2EBA2FA02D41
S1131E200B01B90190010C01CA01A0011124FF2783
S1131E30591B99F0593F50F4503E68F11A16F0407E
S1131E40A22F232F342F4427585FF3CF469537957D
S1131E502795A795F0405395C9F77EF41F16BA0B42
S1131E60620B730B840BBAF09150A1F0FF0FBB1FF0
S1131E70661F771F881FC2F70EC0BA0F621F731F39
S1131E80841F48F4879577956795B795F7959E3F96
S1131E9008F0B3CF9395880F08F09927EE0F979524
S1131EA087950895A8D008F481E008950CD0DEC089
S1131EB0D6D040F0CDD030F021F45F3F19F0BFC050
S1131EC0511108C1C2C0E3D098F39923C9F3552333
S1131ED0B1F3951B550BBB27AA2762177307840719
S1131EE038F09F5F5F4F220F331F441FAA1FA9F3CF
S1131EF033D00E2E3AF0E0E830D091505040E695C1
S1131F00001CCAF729D0FE2F27D0660F771F881F21
S1131F10BB1F261737074807AB07B0E809F0BB0B10
S1131F20802DBF01FF2793585F4F2AF09E3F510534
S1131F3068F085C0CFC05F3FECF3983EDCF3869534
S1131F4077956795B795F7959F5FC9F7880F911DAA
S1131F509695879597F90895E1E0660F771F881F96
S1131F60BB1F621773078407BA0720F0621B730B49
S1131F70840BBA0BEE1F88F7E0950895E89409C026
S1131F8097FB3EF490958095709561957F4F8F4FA8
S1131F909F4F9923A9F0F92F96E9BB279395F695BE
S1131FA0879577956795B795F111F8CFFAF4BB0F3C
S1131FB011F460FF1BC06F5F7F4F8F4F9F4F16C0A0
S1131FC0882311F096E911C0772321F09EE8872F2A
S1131FD0762F05C0662371F096E8862F70E060E0E6
S1131FE02AF09A95660F771F881FDAF7880F96955F
S1131FF0879597F90895990F0008550FAA0BE0E803
S1132000FEEF16161706E807F907C0F012161306B6
S1132010E407F50798F0621B730B840B950B39F4F6
S11320200A2661F0232B242B252B21F408950A265C
S113203009F4A140A6958FEF811D811D089597F99C
S11320409F6780E870E060E008959FEF80EC08955A
S113205000240A9416161706180609060895002483
S11320600A9412161306140605060895092E0394FD
S1132070000C11F4882352F0BB0F40F4BF2B11F471
S113208060FF04C06F5F7F4F8F4F9F4F089557FDD0
S11320909058440F551F59F05F3F71F04795880FD2
S11320A097FB991F61F09F3F79F087950895121669
S11320B013061406551FF2CF4695F1DF08C0161615
S11320C017061806991FF1CF8695710561050894C6
S11320D00895E894BB2766277727CB0197F90895DD
S11320E08ADF08F48FEF08950BD0C0CFB1DF28F05A
S11320F0B6DF18F0952309F0A2CFA7CF1124EACFB9
S1132100C6DFA0F3959FD1F3950F50E0551F629F52
S1132110F001729FBB27F00DB11D639FAA27F00D3C
S1132120B11DAA1F649F6627B00DA11D661F829F63
S11321302227B00DA11D621F739FB00DA11D621F48
S1132140839FA00D611D221F749F3327A00D611D65
S1132150231F849F600D211D822F762F6A2F112447
S11321609F5750408AF0E1F088234AF0EE0FFF1F9A
S1132170BB1F661F771F881F91505040A9F79E3FD1
S1132180510570F05CCFA6CF5F3FECF3983EDCF3D3
S1132190869577956795B795F795E7959F5FC1F70E
S11321A0FE2B880F911D9695879597F90895A0E1C8
S11321B0B0E0ECEDF0E159C37C011B016A01FC01C4
S11321C017821682838181FF2AC39E012F5F3F4FAE
S11321D03901F7019381F10193FD859193FF819179
S11321E01F01882309F417C3853239F493FD8591BF
S11321F093FF81911F01853231F4B70190E06ED4D1
S113220056016501E6CF10E0512C912CFFE1F91540
S1132210D8F08B3279F038F4803279F08332A1F43B
S1132220F92DF0612EC08D3261F0803369F4292DCF
S113223021602DC0392D3260932E892D8460982E13
S11322402AC0E92DE86015C097FC2DC020ED280FA9
S11322502A3088F496FE06C03AE0139F200D11241C
S1132260122F19C08AE0589E200D1124522EE92DF8
S1132270E0629E2E10C08E3231F496FCCCC2F92D51
S1132280F0649F2E08C08C3621F4292D2068922EEC
S113229002C0883641F4F10193FD859193FF819149
S11322A01F018111B3CF9BEB980F933020F4992D2C
S11322B09061805E07C09BE9980F933008F059C184
S11322C0992D9F7E96FF16E09F73992E853619F4FB
S11322D09064992E08C0863621F4392F3068932EE5
S11322E002C01111115097FE07C01C3350F444244E
S11322F04394410E27E00BC0183038F027E017E074
S113230005C027E09CE3492E02C0212F412C560131
S113231084E0A80EB11CF6016081718182819381F1
S1132320042DA301D9D26C01F981FC87F0FF02C00E
S1132330F3FF06C091FC06C092FE06C000E205C091
S11323400DE203C00BE201C000E08C858C7019F033
S1132350011143C280C297FE10C04C0CFC85F4FFEF
S113236004C08A81813309F44A94141474F528E072
S1132370241578F588E0482E2CC096FC2AC0812FBD
S113238090E08C159D059CF03CEFC3163FEFD306FF
S113239074F0892D8068982E0AC0E2E0F0E0EC0F1A
S11323A0FD1FE10FF11D8081803319F411501111CB
S11323B0F4CF97FE0EC044244394410E812F90E045
S11323C0C816D9062CF41C1904C04424439401C033
S11323D010E097FE06C01C141D0434F4C6010196D7
S11323E005C085E090E002C081E090E00111019613
S11323F0112331F0212F30E02F5F3F4F820F931FC5
S1132400252D30E08217930714F4581A01C0512C7B
S1132410892D897041F4552031F0B70180E290E0B4
S11324205DD35A94F8CF002321F0B701802F90E0B8
S113243055D393FC08C0552031F0B70180E390E0F8
S11324404DD35A94F8CF97FE4AC04601D7FE02C036
S1132450812C912CC60188199909F301E80FF91F01
S1132460FE87ED87960124193109388B2F87012FB8
S113247010E01195019511093FEF8316930621F49D
S1132480B7018EE290E02AD3C814D9044CF08F85AA
S113249098898815990524F4ED85FE85818101C00C
S11324A080E3F1E08F1A91082D853E852F5F3F4F21
S11324B03E872D878016910624F0B70190E00ED355
S11324C0DBCFC814D90441F49A81963320F49533B0
S11324D019F43C8534FF81E3B70190E048C08A8158
S11324E0813319F09C859F7E9C87B70190E0F6D2DA
S11324F0111105C094FC16C085E690E015C0B70123
S11325008EE290E0EBD21E5F82E001E0080FF3015F
S1132510E80FF11D8081B70190E0E0D2802F011314
S1132520F4CFE8CF85E490E0B701D8D2D7FC06C059
S1132530C114D10441F4EC85E4FF05C0D194C194E5
S1132540D1088DE201C08BE2B70190E0C7D280E3ED
S11325502AE0C216D1042CF08F5FFAE0CF1AD1081A
S1132560F7CFB70190E0BAD2B701C601C096B6D290
S113257049C1833631F0833779F0833509F052C08D
S11325801FC0560132E0A30EB11CF601808189837D
S113259001E010E0630111C05601F2E0AF0EB11C7E
S11325A0F601C080D18096FE03C0612F70E002C0A6
S11325B06FEF7FEFC60187D28C01F92DFF7713C02F
S11325C0560122E0A20EB11CF601C080D18096FE15
S11325D003C0612F70E002C06FEF7FEFC60154D2D9
S11325E08C01F92DF0689F2EF3FD18C0852D90E025
S11325F00817190798F4B70180E290E06FD25A9453
S1132600F5CFF60197FC859197FE81916F01B70193
S113261090E064D251105A9401501109011511052A
S113262081F7F0C0843611F0893659F5560197FECA
S113263009C024E0A20EB11CF6016081718182817F
S113264093810AC0F2E0AF0EB11CF6016081718182
S1132650072E000C880B990BF92DFF769F2E97FF00
S113266009C090958095709561957F4F8F4F9F4FCE
S1132670F0689F2E2AE030E0A3018BD2C82EC61842
S11326803EC0092D853721F40F7E2AE030E01DC0BD
S1132690097F8F3691F018F4883559F0BCC0803723
S11326A019F0883711F0B7C0006104FF09C0046055
S11326B007C094FE08C0066006C028E030E005C0EC
S11326C020E130E002C020E132E0560107FF09C0FA
S11326D084E0A80EB11CF60160817181828193812E
S11326E008C0F2E0AF0EB11CF6016081718180E098
S11326F090E0A3014ED2C82EC6180F77902E96FEF6
S11327000BC0092D0E7FC11650F494FE0AC092FC32
S113271008C0092D0E7E05C0DC2C092D03C0DC2C5D
S113272001C0D12E04FF0DC0FE01EC0DF11D80810E
S1132730803311F4097E09C002FF06C0D394D394F8
S113274004C0802F867809F0D39403FD10C000FFE5
S113275006C01C2DD51478F4150D1D190CC0D51404
S113276050F4B70180E290E0B9D1D394F8CFD514F6
S113277010F45D1801C0512C04FF0FC0B70180E3B1
S113278090E0ACD102FF16C001FD03C088E790E0E1
S113279002C088E590E0B7010CC0802F867851F024
S11327A001FF02C08BE201C080E207FD8DE2B701A8
S11327B090E094D1C11630F4B70180E390E08ED15B
S11327C01150F8CFCA94F301EC0DF11D8081B701CB
S11327D090E084D1C110F6CF15C0F4E0F51550F5A2
S11327E084E0581A93FE1EC0011125C02C8523FFD6
S11327F027C004EE10E0392D3071932EF801849136
S1132800811121C0552009F4FCCCB70180E290E08D
S113281065D15A94F7CFF7018681978123C08FEF52
S11328209FEF20C0B70180E290E058D15A94511034
S1132830F9CFDACF512CB701802F90E04FD1D6CF0A
S113284008EE10E0D8CF91108052B70190E046D145
S11328500F5F1F4FD3CF23E0251510F483E0C1CFC2
S1132860512CC4CF6096E2E11CC02F923F924F924C
S11328705F926F927F928F929F92AF92BF92CF920C
S1132880DF92EF92FF920F931F93CF93DF93CDB715
S1132890DEB7CA1BDB0B0FB6F894DEBF0FBECDBF8D
S11328A009942A88398848885F846E847D848C845E
S11328B09B84AA84B984C884DF80EE80FD800C8167
S11328C01B81AA81B981CE0FD11D0FB6F894DEBF4A
S11328D00FBECDBFED010895283008F027E033275F
S11328E0DA01990F311D87FD91600096610571052C
S11328F039F432602E5F3D9330E32A95E1F7089571
S11329009F3F30F080387105610509F03C5F3C5F02
S11329103D93913008F08068911DDF93CF931F930E
S11329200F93FF92EF92192F987F9695E92F969522
S11329309695E90FFF27EA5BFE4F99273327EE248C
S1132940FF24A701E70105900894079428F4360FA3
S1132950E71EF81E491F511D660F771F881F991F18
S11329600694A1F70590079428F4E70EF81E491F72
S1132970561FC11D770F881F991F661F0694A1F764
S11329800590079428F4F80E491F561FC71FD11D40
S1132990880F991F661F771F0694A1F70590079467
S11329A020F4490F561FC71FD81F990F661F771FA2
S11329B0881F0694A9F784911095177041F0D69555
S11329C0C79557954795F794E7941A95C1F7ECEE98
S11329D0F0E0689415901591359165919591059065
S11329E07FE27395E118F10A430B560BC90BD0092A
S11329F0C0F7E10CF11E431F561FC91FD01D7EF402
S1132A00703311F48A95E6CFE894015030F0080F42
S1132A100AF40027021708F4202F2395022F7A3393
S1132A2028F079E37D932A95E9F710C07D932A95E0
S1132A3089F6069497956795379517951794E11835
S1132A40F10A430B560BC90BD00998F023957E91DC
S1132A5073957A3308F070E37C932013B8F77E9172
S1132A6070617D9330F0839571E37D9370E32A95D3
S1132A70E1F71124EF90FF900F911F91CF91DF9117
S1132A80992787FD90950895FC0105906150704049
S1132A900110D8F7809590958E0F9F1F0895FB0124
S1132AA0DC010D900020E9F7119701900D920020B0
S1132AB0E1F70895FB01DC018D910190801901106B
S1132AC0D9F3990B0895FC016150704001900110F5
S1132AD0D8F7809590958E0F9F1F08950F931F939D
S1132AE0CF93DF93FB01238121FD03C08FEF9FEF81
S1132AF02CC022FF16C0468157812481358142179C
S1132B00530744F4A081B1819D012F5F3F4F31836E
S1132B1020838C93268137812F5F3F4F3783268311
S1132B2014C08B01EC01FB010084F185E02D0995B3
S1132B30892BE1F6D80116968D919C9117970196F1
S1132B4017969C938E931697CE01DF91CF911F9188
S1132B500F910895AEE0B0E0EFEAF5E194CE0D896F
S1132B601E8986E08C831A8309838FEF9FE79E83F7
S1132B708D83AE01475E5F4F6F89788DCE010196DC
S1132B8016DBEF81F885E00FF11F10822E96E4E04A
S1132B9096CEFA01AA27283051F1203181F1E89428
S1132BA06F936E7F6E5F7F4F8F4F9F4FAF4FB1E03C
S1132BB03ED0B4E03CD0670F781F891F9A1FA11D37
S1132BC0680F791F8A1F911DA11D6A0F711D811D38
S1132BD0911DA11D20D009F468943F912AE0269FFD
S1132BE011243019305D3193DEF6CF010895462F5C
S1132BF04770405D4193B3E00FD0C9F7F6CF462F3D
S1132C004F70405D4A3318F0495D31FD40524193A5
S1132C1002D0A9F7EACFB4E0A69597958795779562
S1132C206795BA95C9F700976105710508959B01E9
S1132C30AC010A2E06945795479537952795BA9572
S1132C40C9F7620F731F841F951FA01D0895F89480
S1052C50FFCFB0
S1132C52010AD7033F83C00A3F54E3053FAE47014D
S1132C623F4A0C023F14AE073F2F2A2A2A2A2A2A55
S1132C722A2A2A2A2A2A2A2A2A2A2A2A2A2A2A2AAE
S1132C822A2A2A2A2A2A2A2A2A2A2A2A2A2A2A2A9E
S1132C922A43756265536174204550530000000055
S1132CA200000000002A2A2A2A2A2A2A2A2A2A2A50
S1132CB22A2A2A2A2A2A2A2A2A2A2A2A2A2A2A2A6E
S1132CC22A2A2A2A2A2A2A2A2A2A2A2A2F000000D7
S1132CD200004865617465722031000048656174C2
S1132CE26572203200004865617465722033000009
S1132CF24F424300000000000000496D61676572A5
S1132D020000000047524950530000000000532DB8
S1132D1242616E6400000000554846000000000055
S1132D2200003356332D31205B415D003356332D81
S1132D3232205B415D003556205B415D000000009E
S1132D423856205B415D00000000564261747420D5
S1132D525B415D00536F6C6172205B415D003356D1
S1132D62332D31205B565D003356332D32205B56B2
S1132D725D003556205B565D000000003856205B2E
S1132D82565D000000005642617474205B565D007B
S1132D9254656D70205B435D00004572726F722052
S1132DA252656164696E67205374617465206F664D
S1132DB220436861726765200A0A0D002566004592
S1132DC272726F722120436F6D6D616E64206C614B
S1132DD272676572207468616E20323020636861A4
S1132DE272730054656C656D52717400537562534D
S1132DF2797352717400456E74657220746865202B
S1132E02646573697265642073746174653A200041
S1132E125077724D617445646974005077724D61E4
S1132E2274527174004D6F64654368616E67650026
S1132E324C61756E636852657365740048656C6CA9
S1132E426F436865636B0054727920616761696ED0
S1132E52204D722E20506F6F70792042756D00499B
S1132E622068617665206265656E2072657365749B
S1052E7200005A
S9030000FC
