S01A00004D4547415F4750494F5F4558414D504C45312E73726563C6
S1130000F2C000000DC100000BC1000009C10000D6
S113001007C1000005C1000003C1000001C10000C8
S1130020FFC00000FDC00000FBC00000F9C00000DC
S11300300C94AB13F5C00000F3C00000F1C0000045
S1130040EFC000000C94D411EBC00000E9C0000024
S1130050E7C00000E5C00000E3C00000E1C000000C
S1130060DFC000000C944F13DBC00000D9C00000B7
S1130070D7C00000D5C00000D3C00000D1C000002C
S1130080CFC00000CDC00000CBC00000C9C000003C
S1130090C7C00000C5C00000C3C00000C1C000004C
S11300A0BFC00000BDC00000BBC00000B9C000005C
S11300B0B7C00000B5C00000B3C00000B1C000006C
S11300C0AFC00000ADC00000ABC00000A9C000007C
S11300D0A7C00000A5C00000A3C00000A1C000008C
S11300E09FC000006E616E00696E660000407A1069
S11300F0F35A00A0724E18090010A5D4E80000E8D5
S11301007648170000E40B54020000CA9A3B000032
S113011000E1F505000080969800000040420F00C1
S11301200000A08601000000102700000000E80382
S1130130000000006400000000000A00000000004D
S11301400100000000002C76D888DC674F0823DF0C
S1130150C1DFAE59E1B1B796E5E3E453C63AE651DF
S1130160997696E8E6C28426EB898C9B62ED407C06
S11301706FFCEFBC9C9F40F2BAA56FA5F490055AA2
S11301802AF75C936B6CF9676DC11BFCE0E40D47C7
S1130190FEF520E6B500D0ED902E030094357705EA
S11301A00080841E080000204E0A000000C80C33A2
S11301B03333330F986E12831141EF8D2114893B31
S11301C0E65516CFFEE6DB18D1844B381BF77C1DB1
S11301D0901DA4BBE424203284725E228100C9F104
S11301E024ECA1E53D2711241FBECFEFD1E2DEBFF1
S11301F0CDBF18E0A0E0B2E0EEE9F6E302C005905E
S11302000D92A43CB107D9F729E0A4ECB8E001C0F1
S11302101D92AE32B207E1F70E94D0130C944D1B2D
S1130220EFCE8430910544F4EBE7F0E09081977FC2
S1130230908380937C00089598E090937B00845091
S113024080937C000895EAE7F0E0808180648083F5
S1130250808186FDFDCF809178009091790008958A
S1130260E0DFF1DFBC0180E090E00C94E414089539
S11302709C012C5F3F4F0297A8F4C901F1DF20E0F5
S113028030E040E85AE30E949A1523E333E343E560
S113029050E40E949A1529E334EB48E65FE30C949A
S11302A04B14089526303105B1F486E090E0D8DF90
S11302B020E030E040E85AE30E949A1523E333E358
S11302C043E550E40E949A1520EF35E849E15FE3E5
S11302D00C944B14089527303105B1F487E090E075
S11302E0BFDF20E030E040E85AE30E949A1523E3A0
S11302F033E343E550E40E949A1529E93AE248EBD6
S11303005EE30C944B14089528303105B1F488E071
S113031090E0A6DF20E030E040E85AE30E949A151E
S113032023E333E343E550E40E949A1522E43FECCF
S113033046E35FE30C944B14089560E070E0CB0156
S113034008954F925F926F927F928F929F92AF9295
S1130350BF92CF92DF92EF92FF920F931F93CF93AE
S1130360DF93CDB7DEB768970FB6F894DEBF0FBE44
S1130370CDBF5C0188E1E2E0F2E0DE01119601907C
S11303800D928A95E1F784E0A816B1040CF03DC003
S113039009E110E0C12CD12C76014501880C991C8F
S11303A0880C991CE1E0F0E0EC0FFD1F8E0E9F1EFF
S11303B0C50156DF20E030E040E85AE30E949A1578
S11303C023E333E343E550E40E949A15F4012081CA
S11303D03181428153810E94E2132DEC3CEC4CECC0
S11303E05EE30E944B149B01AC01C701B6010E945D
S11303F0E3136B017C0101501109D1F620E030E0D8
S113040048EC51E40E944B1448C0C501049702977C
S113041008F040C07501F5E0EF0EF11C09E110E0B1
S1130420412C512C3201AA0CBB1CAA0CBB1C81E030
S113043090E08C0F9D1FA80EB91EC70111DF20E0AC
S113044030E040E85AE30E949A1523E333E343E59E
S113045050E40E949A15F501208131814281538133
S11304600E94E2132DEC3CEC4CEC5EE30E944B1436
S11304709B01AC01C301B2010E94E3132B013C01B7
S113048001501109D1F620E030E048EC51E40E941B
S11304904B1403C060E070E0CB0168960FB6F8948B
S11304A0DEBF0FBECDBFDF91CF911F910F91FF90A3
S11304B0EF90DF90CF90BF90AF909F908F907F9000
S11304C06F905F904F900895AF92BF92CF92DF925A
S11304D0EF92FF920F931F93CF93DF93CDB7DEB7C5
S11304E02C970FB6F894DEBF0FBECDBF81E090E02D
S11304F00E94070BEE24E394F12C00E010E005C009
S11305000F5F1F4F8FEFE81AF80A0115110561F507
S113051084E090E00E94070B85E090E00E94A10A2D
S113052086E090E00E94A10A8BE090E099DE20E052
S113053030E040E85AE30E949A1523E333E343E5AD
S113054050E40E949A1523EB3BE742E35FE30E94E9
S1130550E2132BE439E546E05DE30E944B14698322
S11305607A838B839C83CCCF0130110551F584E0D1
S113057090E0E7D785E090E0E4D786E090E00E9441
S1130580070B8BE090E06CDE20E030E040E85AE3BB
S11305900E949A1523E333E343E550E40E949A153D
S11305A023EB3BE742E35FE30E94E2132BE439E5EC
S11305B046E05DE30E944B146D837E838F839887AE
S11305C09FCF0230110549F584E090E0BAD785E069
S11305D090E0B7D786E090E0B4D78BE090E040DEBF
S11305E020E030E040E85AE30E949A1523E333E325
S11305F043E550E40E949A1523EB3BE742E35FE3B3
S11306000E94E2132BE439E546E05DE30E944B14BB
S113061069877A878B879C8705C083E0E816F10495
S11306200CF46ECF81E090E08CD784E090E0EFD7BB
S113063085E090E0ECD786E090E0E9D7F9800A8184
S11306401B81EC80AD80BE80CF80D8842A2D3B2DC9
S11306504C2D5D2D6F2D702F812F9E2D0E944714E0
S1130660882324F4FA2C0B2D1C2DED2CA984BA8498
S1130670CB84DC842F2D302F412F5E2D6A2D7B2DD2
S11306808C2D9D2D0E949615181624F4FA2C0B2DF2
S11306901C2DED2C6F2D702F812F9E2D2C960FB6B7
S11306A0F894DEBF0FBECDBFDF91CF911F910F91A4
S11306B0FF90EF90DF90CF90BF90AF9008958F920E
S11306C09F92AF92BF92CF92DF92EF92FF926B0113
S11306D07C0149015A012AE939E949E15FE3C5018D
S11306E0B4010E94471488230CF087C020E030E056
S11306F040E850E4C701B6010E94961518160CF4A0
S1130700ABC120E030E040E850E4C701B6010E94EC
S1130710471488235CF423E333E343E750E4C7013D
S1130720B6010E94961518160CF49BC123E333E31B
S113073043E750E4C701B6010E94471488235CF4E0
S113074020E030E040E750E4C701B6010E9496156E
S113075018160CF48BC120E030E040E750E4C701E8
S1130760B6010E94471488235CF42DEC3CEC4CE663
S113077050E4C701B6010E94961518160CF47BC10B
S11307802DEC3CEC4CE650E4C701B6010E94471442
S113079088235CF426E636E646E650E4C701B60153
S11307A00E94961518160CF46BC126E636E646E64A
S11307B050E4C701B6010E94471488235CF420E08A
S11307C030E040E650E4C701B6010E9496151816C1
S11307D00CF45BC120E030E040E650E4C701B60110
S11307E00E94471488230CF455C184E595E00E94C7
S11307F0461160E070E0CB019BC12AE939E949E187
S11308005FE3C501B4010E94961518160CF092C05E
S113081020E030E040E450E4C501B4010E944714F4
S113082088230CF087C020E030E040E750E4C701A3
S1130830B6010E94961518160CF431C120E030E080
S113084040E750E4C701B6010E94471488235CF4D2
S11308502AE939E949E650E4C701B6010E94961530
S113086018160CF421C12AE939E949E650E4C70114
S1130870B6010E94471488235CF423E333E343E680
S113088050E4C701B6010E94961518160CF411C164
S113089023E333E343E650E4C701B6010E9447145F
S11308A088235CF42DEC3CEC4CE550E4C701B60124
S11308B00E94961518160CF401C12DEC3CEC4CE585
S11308C050E4C701B6010E94471488235CF426E66D
S11308D036E646E550E4C701B6010E94961518169F
S11308E00CF4F1C026E636E646E550E4C701B6014D
S11308F00E94471488235CF423E333E343E550E484
S1130900C701B6010E94961518160CF4E1C023E342
S113091033E343E550E4C701B6010E94471488233A
S11309200CF4DBC084E595E00E94461160E070E0C1
S1130930CB01FEC020E030E040E450E4C501B40146
S11309400E94961518160CF0CDC023E333E343E759
S113095050E4C701B6010E94961518160CF4C6C0DF
S113096023E333E343E750E4C701B6010E9447148D
S113097088235CF420E030E040E750E4C701B6018E
S11309800E94961518160CF4B6C020E030E040E73B
S113099050E4C701B6010E94471488235CF42AE995
S11309A039E949E650E4C701B6010E9496151816C4
S11309B00CF4A6C02AE939E949E650E4C701B601B6
S11309C00E94471488235CF420E030E040E650E4C1
S11309D0C701B6010E94961518160CF496C020E0C3
S11309E030E040E650E4C701B6010E944714882372
S11309F05CF42AE939E949E550E4C701B6010E94EB
S1130A00961518160CF486C02AE939E949E550E42C
S1130A10C701B6010E94471488235CF420E030E04B
S1130A2040E550E4C701B6010E94961518160CF46F
S1130A3076C020E030E040E550E4C701B6010E94F2
S1130A40471488230CF470C084E595E00E94461195
S1130A5060E070E0CB016CC060E070E080EA92E49A
S1130A6067C060E070E08CE892E462C060E070E02F
S1130A7080E792E45DC060E070E088E492E458C0EE
S1130A8060E070E080E292E453C060E070E080EFE8
S1130A9091E44EC060E070E080EA91E449C060E017
S1130AA070E080EA92E444C060E070E08CE892E494
S1130AB03FC060E070E080E792E43AC060E070E03C
S1130AC088E492E435C060E070E080E292E430C0F3
S1130AD060E070E080EF91E42BC060E070E080EAB9
S1130AE091E426C060E070E0CB0122C060E070E0D9
S1130AF080EA92E41DC060E070E08CE892E418C0E3
S1130B0060E070E080E792E413C060E070E088E4A5
S1130B1092E40EC060E070E080E292E409C060E01C
S1130B2070E080EF91E404C060E070E080EA91E45A
S1130B30FF90EF90DF90CF90BF90AF909F908F90F9
S1130B4008958823D1F181E090E0F3D4882309F457
S1130B5053C061E070E080E0E2D486E795E00E9453
S1130B6046118DE00E9436118AE00E9436118AE017
S1130B700C943611089583E995E00E9446118DE0A6
S1130B800E9436118AE00E9436118AE00C943611D4
S1130B9008958AE00E9436118DE00E9436118CEA95
S1130BA095E00E9446118DE00E9436118AE00E9471
S1130BB036118AE00C943611089504B604FE0EC072
S1130BC08EEB95E00E9446118DE00E9436118AE07A
S1130BD00E9436118AE00C943611089588ED95E050
S1130BE00E9446118DE00E9436118AE00E9436115F
S1130BF08AE00C943611089580E090E09AD4811133
S1130C00C8CFB9CF60E070E080E089C4089560E0A7
S1130C1070E08FEF84C4089580E090E08AD4882344
S1130C2039F0869539F0869539F0869539F408952A
S1130C3080E0089580E0089580E0089584E00895B8
S1130C40E1DFA89581E00E94991180E00C94751170
S1130C500895CF9384EF95E00E9446118AE00E94A4
S1130C6036118DE00E943611C9E38C2F0E94361193
S1130C702FE38DE093E0215080409040E1F700C0E5
S1130C8000008AE00E9436118DE00E943611C150A6
S1130C90C03359F78AE096E00E9446118AE00E9428
S1130CA036118AE00E9436118DE00E943611CF91F0
S1130CB00895B2DF8823C1F085E396E00E944611CF
S1130CC08AE00E9436118DE00E94361183E596E099
S1130CD00E9446118AE00E9436118AE00E94361171
S1130CE08DE00C9436110895B4DF91CF08958AE015
S1130CF090E027D480E090E0BBDA26E636E646E4CE
S1130D0050E40E9447148823ACF308958BE090E0EC
S1130D1018D482E090E0ACDA2AE939E949E950E4F0
S1130D200E9447148823ACF3089580E190E009D42D
S1130D3083E090E09DDA2AE939E949EF50E40E9422
S1130D4047148823ACF3089585E190E0FAD384E056
S1130D5090E08EDA20E030E040E250E40E94471454
S1130D608823ACF3089585FD03C08AE090E04FC466
S1130D700895827319F48BE090E049C40895847C4B
S1130D8019F480E190E043C4089580FD03C085E137
S1130D9090E03DC408950F931F93CF93C82F8B0108
S1130DA080FF11C0867079F48C2FE3DF8C2FE7DF8E
S1130DB083E090E02CD482E090E029D4C5DF80E089
S1130DC090E0BFD33BC0C1FF12C08C2F857079F473
S1130DD08C2FDBDF8C2FD3DF80E090E018D482E00F
S1130DE090E015D493DF83E090E0ABD327C0C2FF3B
S1130DF012C08C2F837079F48C2FC7DF8C2FB9DF4E
S1130E0080E090E004D483E090E001D48EDF82E0BF
S1130E1090E097D313C080E090E0F9D383E090E0B2
S1130E20F6D382E090E0F3D38C2FAFDF8C2FA1DFD9
S1130E308C2FA5DFF8018081887F8083CF911F915B
S1130E400F91089583FF04C088E190E07AC3089568
S1130E5088E190E0DCC30895CF93C82F84FF08C0D5
S1130E6055DF87E190E06DD386E190E06AD308C056
S1130E7086E190E0CCD387E190E0C9D38C2F79DF71
S1130E80CF910895CF93C82F85FF09C03FDF2FDF8F
S1130E908BE190E056D38CE190E053D30AC08CE10F
S1130EA090E0B5D38BE190E0B2D38C2F5CDF8C2F34
S1130EB060DFCF910895CF93C82F86FF05C035DF3B
S1130EC08AE190E03ED305C08AE190E0A0D38C2F64
S1130ED056DFCF910895CF93C82F88232CF425DFB4
S1130EE089E190E02ED305C089E190E090D38C2F66
S1130EF046DFCF910895CF93C82F4DDF8C2FA2DF0B
S1130F008C2FAADF8C2FBEDF8C2FD5DF8C2FE3DF55
S1130F10CF910895FC0181E0808381831282138242
S1130F201482158284E0868388E0878380878187A2
S1130F308CE182878AE1838788E1848785871686A6
S1130F408CEB87878AE3808B88E3818B828B138A7F
S1130F508CEF848B8AEF858B88EF868B878B108E42
S1130F6008958F929F92AF92BF92CF92DF92EF92A9
S1130F70FF92CF936B017C0149015A0120E030E0DC
S1130F8040EA51E40E94471488230CF04FC020E04B
S1130F9030E040E252E4C501B4010E949615882372
S1130FA00CF0C6C120E030E040EF51E4C501B401CB
S1130FB00E94961588235CF020E030E040E252E481
S1130FC0C501B4010E94471488230CF4B4C120E085
S1130FD030E040E751E4C501B4010E94961588232E
S1130FE05CF020E030E040EF51E4C501B4010E9420
S1130FF0471488230CF4A2C120E030E0A901C50104
S1131000B4010E94961588230CF49BC1C1E0F12C15
S113101020E030E040E751E4C501B4010E944714E8
S113102088230CF0C0E08C2F9F2DCAC120E030E053
S113103040E252E4C701B6010E94471488230CF031
S11310405BC020E030E040EA51E4C701B6010E94F1
S1131050961588230CF450C020E030E040E252E4BE
S1131060C501B4010E94961588230CF06DC120E0DF
S113107030E040EF51E4C501B4010E949615882385
S11310805CF020E030E040E252E4C501B4010E948B
S1131090471488230CF45BC120E030E040E751E4BE
S11310A0C501B4010E94961588235CF020E030E06D
S11310B040EF51E4C501B4010E94471488230CF4A5
S11310C049C120E030E0A901C501B4010E94961590
S11310D088230CF442C120E030E040E751E4C5012C
S11310E0B4010E944714082E000C990B8827990F0D
S11310F0881F9927059664C120E030E040E752E458
S1131100C701B6010E94471488230CF05BC020E09D
S113111030E040E252E4C701B6010E9496158823EC
S11311200CF442C120E030E040E252E4C501B401D5
S11311300E94961588230CF013C120E030E040EFA4
S113114051E4C501B4010E94961588235CF020E0A7
S113115030E040E252E4C501B4010E944714882300
S11311600CF401C120E030E040E751E4C501B401D2
S11311700E94961588235CF020E030E040EF51E4B3
S1131180C501B4010E94471488230CF4EFC020E089
S113119030E0A901C501B4010E94961588230CF41E
S11311A0E8C020E030E040E751E4C501B4010E940A
S11311B04714082E000C990B8827990F881F99272C
S11311C00A96FEC020E030E040EA52E4C701B601CE
S11311D00E94471488230CF05BC020E030E040E715
S11311E052E4C701B6010E94471418160CF450C00B
S11311F020E030E040E252E4C501B4010E949615BB
S113120088230CF0B9C020E030E040EF51E4C50180
S1131210B4010E94961588235CF020E030E040E29F
S113122052E4C501B4010E94471488230CF4A7C0FA
S113123020E030E040E751E4C501B4010E94961576
S113124088235CF020E030E040EF51E4C501B401B4
S11312500E94471488230CF495C020E030E0A901D3
S1131260C501B4010E94961588230CF48EC020E0B9
S113127030E040E751E4C501B4010E944714082E50
S1131280000C990B8827990F881F99270F9698C0EF
S113129020E030E040E252E4C501B4010E9496151A
S11312A088230CF075C020E030E040EF51E4C50124
S11312B0B4010E94961588235CF020E030E040E2FF
S11312C052E4C501B4010E94471488230CF463C09E
S11312D020E030E040E751E4C501B4010E949615D6
S11312E088235CF020E030E040EF51E4C501B40114
S11312F00E94471488230CF451C020E030E0A90177
S1131300C501B4010E94961588230CF44AC020E05C
S113131030E040E751E4C501B4010E944714082EAF
S1131320000C990B8827990F881F9927449648C069
S113133084E090E045C083E090E042C082E090E029
S11313403FC080E090E03CC089E090E039C088E094
S113135090E036C087E090E033C085E090E030C094
S11313608EE090E02DC08DE090E02AC08CE090E00B
S113137027C08AE090E024C083E190E021C082E1AC
S113138090E01EC081E190E01BC08FE090E018C0A7
S113139088E190E015C087E190E012C086E190E01A
S11313A00FC084E190E00CC020E030E040EA52E459
S11313B0C701B6010E94471488230CF419CF68CFE3
S11313C0CF91FF90EF90DF90CF90BF90AF909F9020
S11313D08F900895FC01AC01485F5F4F91E03EE6B9
S11313E089E7262F292319F08083990F02C03083BF
S11313F0990F3196E417F507A1F70895DB01FC0175
S1131400AC01485F5F4F3FEF91E02191293729F408
S11314108C91892B8C93990F05C039272C91232308
S11314202C93990FE417F50781F70895CF93DF9371
S1131430EC01FB01685F7F4F3FEF91E02191293779
S113144049F48881DA01A80FB11D8C91892B8C9302
S1131450990F09C039272881DA01A20FB11D2C91F7
S113146023232C93990FE617F70741F7DF91CF91C8
S11314700895EF92FF920F931F93CF93DF93EC01A4
S11314808B017A01188284E796E000D78AE0EED6D1
S11314908AE0ECD68DE0EAD683E397E0F7D6EED681
S11314A0082E000C990BC0979C01220F331F880F44
S11314B0991F880F991F880F991F820F931F988176
S11314C0890F8883DBD6082E000C990BC09798816E
S11314D0890F88838AE0CAD68AE0C8D68DE0C6D64A
S11314E08FE996E0D3D68AE0C1D68AE0BFD68DE0F4
S11314F0BDD683E397E0CAD6C801D6D6A701B80102
S1131500CE0194DF8AE0B2D68AE0B0D68DE0AED6C2
S1131510DF91CF911F910F91FF90EF900895F9996A
S1131520FECF72BD61BD80BD84E08FBB82E08FBB06
S11315300895F999FECF92BD81BD81E08FBB80B53E
S11315400895873091057CF4E2E0F1E0408121E0E8
S113155030E0B90102C0660F771F8A95E2F7CB012C
S1131560842B808308959C01275031092330310551
S113157080F4EBE0F1E04081069721E030E0B9012E
S113158002C0660F771F8A95E2F7CB01842B808314
S113159008959C012A5031092430310570F442B178
S11315A0069721E030E0B90102C0660F771F8A95E3
S11315B0E2F7CB01842B82B908959C012E503109A6
S11315C02730310580F4E5E0F1E04081C90121E0F4
S11315D030E0B90102C0660F771F8A95E2F7CB01AC
S11315E0842B808308959C012551310928303105CD
S11315F068F448B1C90121E030E0B90102C0660FC6
S1131600771F8A95E2F7CB01842B88B90895873038
S1131610910584F4E2E0F1E0908141E050E002C001
S1131620440F551F8A95E2F72EEF842F82278923D2
S1131630808308959C01275031092330310590F4AB
S1131640EBE0F1E02081AC014650510981E090E0EB
S113165002C0880F991F4A95E2F79EEF89278223DB
S1131660808308959C012A5031092430310580F487
S113167022B1AC014650510981E090E002C0880FCC
S1131680991F4A95E2F79EEF8927822382B908952C
S11316909C012E5031092730310590F4E5E0F1E04A
S11316A02081AC014E50510981E090E002C0880FC6
S11316B0991F4A95E2F79EEF892782238083089534
S11316C09C01255131092830310578F428B145971A
S11316D041E050E0BA0102C0660F771F8A95E2F735
S11316E0CB019EEF8927822388B908951F93CF9356
S11316F0DF93EC01162F0ADB82E090E00E94A10147
S1131700688379838A839B8383E090E00E94A101AC
S11317106C837D838E839F8381E090E00E94A1018E
S1131720688779878A879B8780E090E00E94A1017F
S11317306C877D878E879F8785E090E00E94A1015A
S1131740688B798B8A8B9B8B84E090E00E94A1014B
S11317506C8B7D8B8E8B9F8B80E090E00E94380198
S1131760688F798F8A8F9B8F81E090E00E94380187
S11317706C8F7D8F8E8F9F8F82E090E00E94380166
S113178068A379A38AA39BA383E090E00E94380115
S11317906CA37DA38EA39FA384E090E00E943801F4
S11317A068A779A78AA79BA70E9464026CA77DA754
S11317B08EA79FA7812FDDDADF91CF911F91089526
S11317C02F923F924F925F926F927F928F929F924D
S11317D0AF92BF92CF92DF92EF92FF920F931F933B
S11317E0CF93DF93CDB7DEB7C55BD2400FB6F89485
S11317F0DEBF0FBECDBFCE54DD4F99838883C25B5D
S1131800D240C655DD4F79836883CA5AD240C45545
S1131810DD4F4883CC5AD240C355DD4F2883CD5A7F
S1131820D240C255DD4F0883CE5AD240C155DD4F58
S11318301883CF5AD24081E5EAE1F2E0DE01119645
S113184001900D928A95E1F7FE01EE5AFF4F83E174
S1131850DF011D928A95E9F786E4EEE7F2E0DE0106
S1131860AB59BF4F01900D928A95E1F7FE01E55502
S1131870FF4F8EE1DF011D928A95E9F7BE016B5996
S11318807F4FCE0101960E94751A00D58AE0EED4EE
S11318908AE0ECD48DE0EAD480EAE2EEF2E0DE0104
S11318A0A753BF4F01900D928A95E1F780EFE2E8CC
S11318B0F3E0DE01A759BE4F01900D928A95E1F73E
S11318C082E4E2E7F4E0DE01A75ABD4F01900D92F5
S11318D08A95E1F7FE01E759FE4F7F01AA24A394FC
S11318E0B12CC12CD12C412C512C612C712CC05504
S11318F0DD4F19821882C05BD24000E010E00F2E49
S1131900F4E18F2E912CF02D1E01F5E62F1AFDEF38
S11319103F0ACC54DD4F2882C45BD240CB54DD4F08
S11319203882C55BD240C60126E0C216D10409F054
S113193018C28AE09BD48DE099D436E06316710412
S11319400CF063C08301000F111F000F111FCE5450
S1131950DD4F88819981C25BD240080F191F4BC0AB
S113196080E284D4C055DD4FA881B981C05BD240E8
S11319701197C055DD4FB983A883C05BD240AB2B10
S113198079F7F80180819181228133810C5F1F4FA7
S11319903F932F939F938F932DEC36E03F932F9398
S11319A03F922F920E94D01ACC54DD4F8881C45BA1
S11319B0D240CB54DD4F9881C55BD24067D49FEFB2
S11319C0691A790AF10101900020E9F73197E219C7
S11319D0F309D401AE1BBF0BC055DD4FB983A883F7
S11319E0C05BD2400FB6F894DEBF0FBECDBFF6E0A9
S11319F06F16710451F0C055DD4F28813981C05BE9
S1131A00D240232B09F0ACCFBCCF8AE02FD48AE09C
S1131A102DD48DE02BD436E1349DC001359D900D3D
S1131A201124A9E5B2E0AC0FBD1F8A0F9B1F2ED471
S1131A308AE01CD48AE01AD48DE018D4BFEF4B1A84
S1131A405B0A93C1E6E1E49DC001E59D900D11247C
S1131A5029E532E02C0F3D1F820F931F17D48AE033
S1131A6005D48AE003D48DE001D43FEF431A530A2E
S1131A700115110521F479C10115110529F080E240
S1131A80F5D301501109D9F7C70100D4F70101902A
S1131A900020E9F73197EE19FF0984010E1B1F0B93
S1131AA08CE0A816B10409F05FC08AE0DFD38DE0B2
S1131AB0DDD39CE0691671040CF064C08301000F4F
S1131AC0111F000F111FCE54DD4FA881B981C25BD5
S1131AD0D2400A0F1B1F0F2EF2EDAF2EF6E0BF2EE1
S1131AE0F02D7E01B5E6EB1ABDEFFB0A0F2EF4E1F3
S1131AF08F2E912CF02D06C080E2B8D3E1E0CE1AEF
S1131B00D108D1F7D8018C9111969C911197129616
S1131B102C91129713963C910C5F1F4F3F932F9378
S1131B209F938F93BF92AF92FF92EF920E94D01A2D
S1131B30C701ACD3BFEF6B1A7B0AF70101900020F9
S1131B40E9F73197EE19FF096401CE1ADF0A0FB6DF
S1131B50F894DEBF0FBECDBFFCE06F16710491F0A8
S1131B60C114D10449F6CECF2FEFC21AD20A3FEFE7
S1131B70A31AB30A84E1E80EF11C9CE0C916D1044F
S1131B8009F0D1CE8AE072D38AE070D38DE06ED3AF
S1131B9026E1249DC001259D900D1124A9E5B2E004
S1131BA0AC0FBD1F8A0F9B1F71D38AE05FD38AE0FD
S1131BB05DD38DE05BD38E0107531F4F6E01BBEAEB
S1131BC0CB1ABEEFDB0A0F2EF4E1EF2EF12CF02D31
S1131BD008C080E24BD3E1E0AE1AB108D1F70C5E45
S1131BE01F4FC80153D3F80101900020E9F7319742
S1131BF0E01BF10B5701AE1ABF0AC016D10621F043
S1131C00A114B10431F7EBCF8AE030D38DE02ED3A9
S1131C10C655DD4F08811981CA5AD2403801F8E00F
S1131C206F0E711C06C080E221D321E0E21AF10894
S1131C30D1F7D8018D918D01893749F487ED96E06C
S1131C4025D30F2EF2E1EF2EF12CF02D08C08AEDF2
S1131C5096E01CD30F2EF1E1EF2EF12CF02D60163F
S1131C60710609F78AE002D38AE000D38DE0FED240
S1131C708EED96E00BD38AE0F9D28DE0F7D2C4550D
S1131C80DD4FB881CC5AD240BD3419F48DE4EED284
S1131C901AC01F92C455DD4FE881CC5AD240EF934D
S1131CA086EE96E09F938F938E010B551D4F1F93E5
S1131CB00F930E94D01AC801E9D20F900F900F9091
S1131CC00F900F900F908AE0D1D28AE0CFD28DE0AE
S1131CD0CDD289EE96E0DAD28AE0C8D28DE0C6D2BF
S1131CE0C155DD4FF881CF5AD240FF93C255DD4F25
S1131CF02881CE5AD2402F9386EE96E09F938F93FD
S1131D008E010B551D4F1F930F930E94D01AC801CB
S1131D10BDD28AE0ABD28AE0A9D28DE0A7D289EF06
S1131D2096E0B4D28AE0A2D28DE0A0D20F900F90B8
S1131D300F900F900F900F90C355DD4F3881CD5AFF
S1131D40D240332321F08EEF96E0A0D203C089E085
S1131D5097E09CD28AE08AD28AE088D28DE086D24B
S1131D6011C0892B09F088CE6DCEC7018FD2F7013F
S1131D7001900020E9F73197EE19FF0984010E1B49
S1131D801F0BF2CECB54DD4F0FB6F894DEBF0FBE5F
S1131D90CDBFDF91CF911F910F91FF90EF90DF9016
S1131DA0CF90BF90AF909F908F907F906F905F90F7
S1131DB04F903F902F90089561E070E08FEFAFDB7C
S1131DC0A89581E0B6D280E090C208952F923F9208
S1131DD04F925F926F927F928F929F92AF92BF9237
S1131DE0CF92DF92EF92FF920F931F93CF93DF93E3
S1131DF0CDB7DEB7CA5BD1090FB6F894DEBF0FBE0C
S1131E00CDBFCB54DF4F99838883C55BD0402B0172
S1131E101A013901C954DF4F19830883C75BD040C5
S1131E20C754DF4FD982C882C95BD04088E01ED234
S1131E308E010F5F1F4F84EBD8011D928A95E9F73D
S1131E4089E0E4EBF4E0D80101900D928A95E1F782
S1131E50FE013A968BE0DF011D928A95E9F78AE04C
S1131E60E8ECF4E0DE01559601900D928A95E1F7D5
S1131E70FE017F968AE0DF011D928A95E9F78BE0E7
S1131E80ECEDF4E0DE01999601900D928A95E1F76C
S1131E9089E0FE01F496DF01982F1D929A95E9F7E7
S1131EA09BE0E0EFF4E0DE01DD9601900D929A955F
S1131EB0E1F7FE01E85BFF4FDF01982F1D929A9531
S1131EC0E9F79CE0E4E0F5E0DE01AF5ABF4F019092
S1131ED00D929A95E1F7E1E5F0E0EC0FFD1F3C96D9
S1131EE098E0DF011D929A95E9F79BE0E8E1F5E0BF
S1131EF0DE01AB59BF4F01900D929A95E1F7E5E6EB
S1131F00F0E0EC0FFD1F3B96DF011D928A95E9F787
S1131F1086E0ECE2F5E0DE01A758BF4F01900D9298
S1131F208A95E1F7E9E7F0E0EC0FFD1F36968EE0C5
S1131F30DF011D928A95E9F785E0E0E4F5E0DE0132
S1131F40A357BF4F01900D928A95E1F7EDE8F0E0B9
S1131F50EC0FFD1F35968FE0DF011D928A95E9F79E
S1131F6080E197E093D18AE081D18AE07FD18DE04E
S1131F707DD1680111E3812F79D181E397E086D186
S1131F80C60184D18AE072D18DE070D11F5FB4E1C3
S1131F90CB0ED11C193379F78AE068D186E397E038
S1131FA075D18AE063D18AE061D18DE05FD183E3AA
S1131FB097E06CD10F2EF4E1FF2EF02D5FD1D82ED7
S1131FC08AE054D18AE052D18DE050D181E597E086
S1131FD05DD18D2DDD0C990BC197F89E6001F99EA2
S1131FE0D00C1124E1E0F0E0EC0FFD1FCE0EDF1E5B
S1131FF0C6014CD18AE03AD18AE038D18DE036D19D
S113200064EB74E0C6010E94801A892BF1F485E622
S113201097E03CD18AE02AD18AE028D18DE026D10C
S1132020622DCB54DF4F88819981C55BD0405EDB44
S11320308401D2012C914E2DB301CB54DF4F888102
S11320409981C55BD040BCDBAFC068EC74E0C601CD
S11320500E94801A892B09F034C0F2018081811119
S11320601DC084E897E012D18AE000D18AE0FED056
S11320708DE0FCD083E397E009D1C30115D1B10110
S1132080C301BCD9B101D1018C910E947B078AE0C4
S1132090EDD08AE0EBD08DE0E9D086C08EE997E000
S11320A0F5D08AE0E3D08AE0E1D08DE0DFD081ECA6
S11320B097E0ECD08AE0DAD08AE0D8D08DE0D6D0B0
S11320C073C06CED74E0C6010E94801A892B79F408
S11320D0C954DF4F48815981C75BD040B301C7540D
S11320E0DF4F88819981C95BD040C3D95DC060EF5F
S11320F074E0C6010E94801A892BB9F4F201808130
S113210091E0811190E0D2019C93882321F084E036
S113211098E0BCD003C08DE198E0B8D08AE0A6D0A6
S11321208AE0A4D08DE0A2D03FC064E075E0C6018F
S11321300E94801A892B19F40E94200635C068E198
S113214075E0C6010E94801A892B51F48AE398E055
S11321509DD08AE08BD08AE089D08DE087D024C0DE
S11321606CE275E0C6010E94801A892B11F424DE0A
S11321701BC060E475E0C6010E94801A892B41F4FB
S113218081E0F5019081911180E0D5018C930CC020
S11321908FE698E07BD08AE069D08AE067D08DE052
S11321A065D08EE363D00ACFC654DF4F0FB6F894E0
S11321B0DEBF0FBECDBFDF91CF911F910F91FF9076
S11321C0EF90DF90CF90BF90AF909F908F907F90D3
S11321D06F905F904F903F902F9008958FE780937A
S11321E001019EE090930A0190EF91B9809304015C
S11321F08FEF87B982E08093020110920B0112B82D
S11322001092050118B8089510BA10927C0085E860
S113221080937A00089584E08093810082E0809323
S11322206F008FEF90E09093890080938800109264
S113223085001092840008951092C5008CE080936C
S1132240C40088E98093C10086E08093C2000895A9
S113225084B7877F84BF82E06CD089E046C008954C
S1132260BDDFD2DFE9DFD7DFF3CF0895E0ECF0E0A4
S1132270908195FFFDCF8093C6000895E0ECF0E0D7
S113228080818823ECF78091C6000895CF93DF9373
S1132290EC018881882329F02196E8DF8991811156
S11322A0FCCFDF91CF910895EF92FF920F931F938C
S11322B0CF93DF937C01E2DF8D3059F08701C0E0DA
S11322C0D0E0F80181938F012196D8DF8D30C9F7D2
S11322D002C0C0E0D0E0CE0DDF1D1882DF91CF91A7
S11322E01F910F91FF90EF900895CF93DF931F926A
S11322F0CDB7DEB7382F83FF02C050E201C050E0F3
S11323008FB78983F8948981A89518ED209160008E
S113231012231093600048E127E03223352B312B40
S113232040936000309360008FBF0F90DF91CF9196
S11323300895CF93DF931F92CDB7DEB79FB79983EC
S1132340F8942981A89594B7977F94BF813059F464
S11323501FEB2091600012231093600028E9212BC9
S1132360209360001CC081110EC017EF2091600003
S113237012231093600048E130ED312B409360004C
S1132380309360000CC0823051F417EF209160004C
S113239012231093600028ED212B209360002FBF9F
S11323A00F90DF91CF9108951F920F920FB60F9265
S11323B011240F931F932F933F934F935F936F9326
S11323C07F938F939F93AF93BF93EF93FF93F8946F
S11323D06091C7088DEF98E089D98091290990917F
S11323E02A09A0912B09B0912C098093CF089093CE
S11323F0D008A093D108B093D20880910102882319
S113240009F400C18091C4088111F6C0EDEFF8E031
S1132410208931894289538960A571A582A593A534
S11324200E945F036093D7087093D8088093D908FB
S11324309093DA082091CF083091D0084091D108C8
S11324405091D2080E94B1079093CA088093C9089A
S1132450FC01E552F74F80818093C70867EC78E070
S11324600E947B076091C70884EF98E00E94EA0904
S11324706091D7087091D8088091D9089091DA08B2
S113248072D28B01209101024091C90864EF78E077
S11324908DEF98E095D98AC087E998E0F7DE8AE065
S11324A0E5DE8AE0E3DE8DE0E1DE8FE390E0909309
S11324B089008093880086E190E09093CA08809315
S11324C0C90880E090E0A4EBB2E48093D70890932D
S11324D0D808A093D908B093DA0810920002E091CA
S11324E0C908F091CA08E552F74F80818093C70864
S11324F067EC78E00E947B076091C70884EF98E05E
S11325000E94EA096091D7087091D8088091D9088F
S11325109091DA0828D28B01209101024091C908D8
S113252064EF78E08DEF98E04BD920E030E040EAAA
S113253051E46091D7087091D8088091D90890919E
S1132540DA08A5D18823A4F48FEF90E09093890052
S11325508093880081E0809300021092C4088DEA81
S113256098E094DE8AE082DE8AE080DE8DE07EDE22
S113257020E030E040EA51E46091D7087091D80837
S11325808091D9089091DA081DD16093D70870938F
S1132590D8088093D9089093DA088091C90890915B
S11325A0CA0805979093CA088093C9088091C70800
S11325B08093C6088091CF089091D008A091D1084B
S11325C0B091D2088093CB089093CC08A093CD0807
S11325D0B093CE088091D7089091D808A091D908DB
S11325E0B091DA088093D3089093D408A093D508C7
S11325F0B093D608789440C080910002882309F4EF
S11326006CCF4ACFEDEFF8E02089318942895389B4
S113261060A571A582A593A50E945F036093D70866
S11326207093D8088093D9089093DA088DE490E0E9
S11326309093CA088093C90867EC78E08091C70832
S11326400E947B076091C70884EF98E00E94EA0922
S11326506091D7087091D8088091D9089091DA08D0
S113266082D18B01209101024091C90864EF78E086
S11326708DEF98E0A5D89ACFFF91EF91BF91AF91DC
S11326809F918F917F916F915F914F913F912F9186
S11326901F910F910F900FBE0F901F9018951F92CE
S11326A00F920FB60F9211248F929F92AF92BF9206
S11326B0CF92DF92EF920F931F932F933F934F93F9
S11326C05F936F937F938F939F93AF93BF93EF9396
S11326D0FF93F894D3DD80932D096091D70870910E
S11326E0D8088091D9089091DA083DD14B010F2E7A
S11326F0F4ECAF2EF8E0BF2EF02D0F2EF8ECCF2E19
S1132700F8E0DF2EF02DE090C9080BED18E024EF7F
S113271038E047EC58E061E072E08DEF98E056DB7A
S11327207894FF91EF91BF91AF919F918F917F9199
S11327306F915F914F913F912F911F910F91EF9066
S1132740DF90CF90BF90AF909F908F900F900FBE6F
S11327500F901F9018951F920F920FB60F9211248D
S11327602F933F934F935F936F937F938F939F9395
S1132770AF93BF93EF93FF93F8946ADD7894FF913E
S1132780EF91BF91AF919F918F917F916F915F91E5
S11327904F913F912F910F900FBE0F901F9018955E
S11327A084B788708093C5085BDDF8948091C50870
S11327B00E94A1050E9459068BED98E00E948A07A9
S11327C07894FFCF5058BB27AA270ED075C166D185
S11327D030F06BD120F031F49F3F11F41EF45BC153
S11327E00EF4E095E7FB51C1E92F77D180F3BA17D6
S11327F0620773078407950718F071F49EF58FC17B
S11328000EF4E0950B2EBA2FA02D0B01B901900107
S11328100C01CA01A0011124FF27591B99F0593F4B
S113282050F4503E68F11A16F040A22F232F342F93
S11328304427585FF3CF469537952795A795F040E1
S11328405395C9F77EF41F16BA0B620B730B840BF6
S1132850BAF09150A1F0FF0FBB1F661F771F881FAE
S1132860C2F70EC0BA0F621F731F841F48F4879506
S113287077956795B795F7959E3F08F0B3CF9395F5
S1132880880F08F09927EE0F979587950895D9D06A
S113289008F481E008950CD00FC107D140F0FED0B8
S11328A030F021F45F3F19F0F0C0511139C1F3C089
S11328B014D198F39923C9F35523B1F3951B550B00
S11328C0BB27AA2762177307840738F09F5F5F4FFF
S11328D0220F331F441FAA1FA9F333D00E2E3AF040
S11328E0E0E830D091505040E695001CCAF729D05A
S11328F0FE2F27D0660F771F881FBB1F26173707A9
S11329004807AB07B0E809F0BB0B802DBF01FF27D8
S113291093585F4F2AF09E3F510568F0B6C000C13E
S11329205F3FECF3983EDCF3869577956795B79512
S1132930F7959F5FC9F7880F911D9695879597F92D
S11329400895E1E0660F771F881FBB1F62177307A6
S11329508407BA0720F0621B730B840BBA0BEE1FBB
S113296088F7E095089504D06894B111D9C008950A
S1132970BCD088F09F5790F0B92F9927B751A0F099
S1132980D1F0660F771F881F991F1AF0BA95C9F7FF
S113299012C0B13081F0C3D0B1E00895C0C0672F38
S11329A0782F8827B85F39F0B93FCCF386957795AF
S11329B06795B395D9F73EF4909580957095619598
S11329C07F4F8F4F9F4F0895E89409C097FB3EF4C3
S11329D090958095709561957F4F8F4F9F4F992368
S11329E0A9F0F92F96E9BB279395F69587957795E6
S11329F06795B795F111F8CFFAF4BB0F11F460FFA6
S1132A001BC06F5F7F4F8F4F9F4F16C0882311F0FD
S1132A1096E911C0772321F09EE8872F762F05C011
S1132A20662371F096E8862F70E060E02AF09A95AC
S1132A30660F771F881FDAF7880F9695879597F9A1
S1132A400895990F0008550FAA0BE0E8FEEF16163B
S1132A501706E807F907C0F012161306E407F5078E
S1132A6098F0621B730B840B950B39F40A2661F002
S1132A70232B242B252B21F408950A2609F4A140A5
S1132A80A6958FEF811D811D089597F99F6780E8B2
S1132A9070E060E008959FEF80EC089500240A94AC
S1132AA01616170618060906089500240A94121625
S1132AB01306140605060895092E0394000C11F458
S1132AC0882352F0BB0F40F4BF2B11F460FF04C005
S1132AD06F5F7F4F8F4F9F4F089557FD9058440F5E
S1132AE0551F59F05F3F71F04795880F97FB991F69
S1132AF061F09F3F79F08795089512161306140626
S1132B00551FF2CF4695F1DF08C0161617061806B2
S1132B10991FF1CF86957105610508940895E8948D
S1132B20BB2766277727CB0197F908958ADF08F436
S1132B308FEF08950BD0C0CFB1DF28F0B6DF18F0C7
S1132B40952309F0A2CFA7CF1124EACFC6DFA0F3C3
S1132B50959FD1F3950F50E0551F629FF001729F2E
S1132B60BB27F00DB11D639FAA27F00DB11DAA1F4D
S1132B70649F6627B00DA11D661F829F2227B00D9A
S1132B80A11D621F739FB00DA11D621F839FA00D25
S1132B90611D221F749F3327A00D611D231F849F75
S1132BA0600D211D822F762F6A2F11249F575040CC
S1132BB08AF0E1F088234AF0EE0FFF1FBB1F661F67
S1132BC0771F881F91505040A9F79E3F510570F020
S1132BD05CCFA6CF5F3FECF3983EDCF38695779508
S1132BE06795B795F795E7959F5FC1F7FE2B880F1B
S1132BF0911D9695879597F90895A0E1B0E0E2E0DC
S1132C00F6E159C37C011B016A01FC01178216829B
S1132C10838181FF2AC39E012F5F3F4F3901F70152
S1132C209381F10193FD859193FF81911F01882385
S1132C3009F417C3853239F493FD859193FF81918B
S1132C401F01853231F4B70190E06ED4560165015D
S1132C50E6CF10E0512C912CFFE1F915D8F08B321E
S1132C6079F038F4803279F08332A1F4F92DF061EF
S1132C702EC08D3261F0803369F4292D21602DC07E
S1132C80392D3260932E892D8460982E2AC0E92D27
S1132C90E86015C097FC2DC020ED280F2A3088F479
S1132CA096FE06C03AE0139F200D1124122F19C07E
S1132CB08AE0589E200D1124522EE92DE0629E2EAA
S1132CC010C08E3231F496FCCCC2F92DF0649F2EE4
S1132CD008C08C3621F4292D2068922E02C0883633
S1132CE041F4F10193FD859193FF81911F018111BD
S1132CF0B3CF9BEB980F933020F4992D9061805EB5
S1132D0007C09BE9980F933008F059C1992D9F7E15
S1132D1096FF16E09F73992E853619F49064992EC8
S1132D2008C0863621F4392F3068932E02C0111161
S1132D30115097FE07C01C3350F444244394410EB1
S1132D4027E00BC0183038F027E017E005C027E073
S1132D509CE3492E02C0212F412C560184E0A80E89
S1132D60B11CF6016081718182819381042DA301DC
S1132D70D9D26C01F981FC87F0FF02C0F3FF06C0D1
S1132D8091FC06C092FE06C000E205C00DE203C03D
S1132D900BE201C000E08C858C7019F0011143C274
S1132DA080C297FE10C04C0CFC85F4FF04C08A81DD
S1132DB0813309F44A94141474F528E0241578F541
S1132DC088E0482E2CC096FC2AC0812F90E08C15F8
S1132DD09D059CF03CEFC3163FEFD30674F0892D9C
S1132DE08068982E0AC0E2E0F0E0EC0FFD1FE10FCE
S1132DF0F11D8081803319F411501111F4CF97FE25
S1132E000EC044244394410E812F90E0C816D90685
S1132E102CF41C1904C04424439401C010E097FE10
S1132E2006C01C141D0434F4C601019605C085E0D7
S1132E3090E002C081E090E001110196112331F08D
S1132E40212F30E02F5F3F4F820F931F252D30E05D
S1132E508217930714F4581A01C0512C892D8970D4
S1132E6041F4552031F0B70180E290E05DD35A94EB
S1132E70F8CF002321F0B701802F90E055D393FCC5
S1132E8008C0552031F0B70180E390E04DD35A9447
S1132E90F8CF97FE4AC04601D7FE02C0812C912C80
S1132EA0C60188199909F301E80FF91FFE87ED8718
S1132EB0960124193109388B2F87012F10E01195C1
S1132EC0019511093FEF8316930621F4B7018EE2B1
S1132ED090E02AD3C814D9044CF08F8598898815BA
S1132EE0990524F4ED85FE85818101C080E3F1E03C
S1132EF08F1A91082D853E852F5F3F4F3E872D8782
S1132F008016910624F0B70190E00ED3DBCFC814ED
S1132F10D90441F49A81963320F4953319F43C850D
S1132F2034FF81E3B70190E048C08A81813319F00E
S1132F309C859F7E9C87B70190E0F6D2111105C055
S1132F4094FC16C085E690E015C0B7018EE290E0CF
S1132F50EBD21E5F82E001E0080FF301E80FF11DE0
S1132F608081B70190E0E0D2802F0113F4CFE8CF45
S1132F7085E490E0B701D8D2D7FC06C0C114D104CF
S1132F8041F4EC85E4FF05C0D194C194D1088DE2ED
S1132F9001C08BE2B70190E0C7D280E32AE0C216F9
S1132FA0D1042CF08F5FFAE0CF1AD108F7CFB70124
S1132FB090E0BAD2B701C601C096B6D249C18336F1
S1132FC031F0833779F0833509F052C01FC05601C0
S1132FD032E0A30EB11CF6018081898301E010E088
S1132FE0630111C05601F2E0AF0EB11CF601C080BE
S1132FF0D18096FE03C0612F70E002C06FEF7FEFB7
S1133000C60187D28C01F92DFF7713C0560122E047
S1133010A20EB11CF601C080D18096FE03C0612FC0
S113302070E002C06FEF7FEFC60154D28C01F92D1E
S1133030F0689F2EF3FD18C0852D90E0081719073E
S113304098F4B70180E290E06FD25A94F5CFF6017C
S113305097FC859197FE81916F01B70190E064D24E
S113306051105A94015011090115110581F7F0C04E
S1133070843611F0893659F5560197FE09C024E0CB
S1133080A20EB11CF60160817181828193810AC014
S1133090F2E0AF0EB11CF60160817181072E000CC5
S11330A0880B990BF92DFF769F2E97FF09C09095F9
S11330B08095709561957F4F8F4F9F4FF0689F2E3D
S11330C02AE030E0A3018BD2C82EC6183EC0092DD9
S11330D0853721F40F7E2AE030E01DC0097F8F364A
S11330E091F018F4883559F0BCC0803719F088374E
S11330F011F0B7C0006104FF09C0046007C094FE6A
S113310008C0066006C028E030E005C020E130E0D9
S113311002C020E132E0560107FF09C084E0A80E96
S1133120B11CF601608171818281938108C0F2E053
S1133130AF0EB11CF6016081718180E090E0A301C3
S11331404ED2C82EC6180F77902E96FE0BC0092DAE
S11331500E7FC11650F494FE0AC092FC08C0092DDB
S11331600E7E05C0DC2C092D03C0DC2C01C0D12E41
S113317004FF0DC0FE01EC0DF11D8081803311F4BC
S1133180097E09C002FF06C0D394D39404C0802FE3
S1133190867809F0D39403FD10C000FF06C01C2DEF
S11331A0D51478F4150D1D190CC0D51450F4B701BD
S11331B080E290E0B9D1D394F8CFD51410F45D181F
S11331C001C0512C04FF0FC0B70180E390E0ACD1E3
S11331D002FF16C001FD03C088E790E002C088E545
S11331E090E0B7010CC0802F867851F001FF02C037
S11331F08BE201C080E207FD8DE2B70190E094D13B
S1133200C11630F4B70180E390E08ED11150F8CFAD
S1133210CA94F301EC0DF11D8081B70190E084D1D3
S1133220C110F6CF15C0F4E0F51550F584E0581A36
S113323093FE1EC0011125C02C8523FF27C004EE78
S113324010E0392D3071932EF8018491811121C041
S1133250552009F4FCCCB70180E290E065D15A9482
S1133260F7CFF7018681978123C08FEF9FEF20C0AE
S1133270B70180E290E058D15A945110F9CFDACFD7
S1133280512CB701802F90E04FD1D6CF08EE10E03B
S1133290D8CF91108052B70190E046D10F5F1F4FF5
S11332A0D3CF23E0251510F483E0C1CF512CC4CF34
S11332B06096E2E11CC02F923F924F925F926F9210
S11332C07F928F929F92AF92BF92CF92DF92EF92B2
S11332D0FF920F931F93CF93DF93CDB7DEB7CA1B33
S11332E0DB0B0FB6F894DEBF0FBECDBF09942A885E
S11332F0398848885F846E847D848C849B84AA8406
S1133300B984C884DF80EE80FD800C811B81AA8192
S1133310B981CE0FD11D0FB6F894DEBF0FBECDBF5D
S1133320ED010895283008F027E03327DA01990FDA
S1133330311D87FD916000966105710539F4326095
S11333402E5F3D9330E32A95E1F708959F3F30F0D7
S113335080387105610509F03C5F3C5F3D93913015
S113336008F08068911DDF93CF931F930F93FF9212
S1133370EF92192F987F9695E92F96959695E90FD8
S1133380FF27EA5BFE4F99273327EE24FF24A7018A
S1133390E70105900894079428F4360FE71EF81EF9
S11333A0491F511D660F771F881F991F0694A1F7A7
S11333B00590079428F4E70EF81E491F561FC11DF7
S11333C0770F881F991F661F0694A1F7059007942D
S11333D028F4F80E491F561FC71FD11D880F991FC7
S11333E0661F771F0694A1F70590079420F4490FF0
S11333F0561FC71FD81F990F661F771F881F069473
S1133400A9F784911095177041F0D695C7955795F3
S11334104795F794E7941A95C1F7ECEEF0E06894B9
S11334201590159135916591959105907FE273956D
S1133430E118F10A430B560BC90BD009C0F7E10C94
S1133440F11E431F561FC91FD01D7EF4703311F4A3
S11334508A95E6CFE894015030F0080F0AF400276B
S1133460021708F4202F2395022F7A3328F079E3EA
S11334707D932A95E9F710C07D932A9589F60694E1
S113348097956795379517951794E118F10A430BAB
S1133490560BC90BD00998F023957E9173957A3316
S11334A008F070E37C932013B8F77E9170617D93EC
S11334B030F0839571E37D9370E32A95E1F711244D
S11334C0EF90FF900F911F91CF91DF91992787FD86
S11334D090950895FC010590615070400110D8F753
S11334E0809590958E0F9F1F0895FB01DC010D9030
S11334F00020E9F7119701900D920020E1F708955B
S1133500FB01DC018D91019080190110D9F3990B15
S11335100895FC016150704001900110D8F7809526
S113352090958E0F9F1F08950F931F93CF93DF9352
S1133530FB01238121FD03C08FEF9FEF2CC022FFED
S113354016C046815781248135814217530744F4BC
S1133550A081B1819D012F5F3F4F318320838C93E4
S1133560268137812F5F3F4F3783268314C08B0119
S1133570EC01FB010084F185E02D0995892BE1F62E
S1133580D80116968D919C911797019617969C9346
S11335908E931697CE01DF91CF911F910F910895CD
S11335A0AEE0B0E0E5EDFAE194CE0D891E8986E047
S11335B08C831A8309838FEF9FE79E838D83AE01EB
S11335C0475E5F4F6F89788DCE01019616DBEF81E0
S11335D0F885E00FF11F10822E96E4E096CEFA01F2
S11335E0AA27283051F1203181F1E8946F936E7F3E
S11335F06E5F7F4F8F4F9F4FAF4FB1E03ED0B4E02F
S11336003CD0670F781F891F9A1FA11D680F791F6F
S11336108A1F911DA11D6A0F711D811D911DA11D80
S113362020D009F468943F912AE0269F1124301990
S1133630305D3193DEF6CF010895462F4770405D2B
S11336404193B3E00FD0C9F7F6CF462F4F70405DDA
S11336504A3318F0495D31FD4052419302D0A9F735
S1133660EACFB4E0A6959795879577956795BA952F
S1133670C9F700976105710508959B01AC010A2EF5
S113368006945795479537952795BA95C9F7620FCC
S1113690731F841F951FA01D0895F894FFCF8B
S113369E01010AD7033F83C00A3F54E3053FAE47F7
S11336AE013F4A0C023F14AE073F2F2A2A2A2A2A28
S11336BE2A2A2A2A2A2A2A2A2A2A2A2A2A2A2A2A58
S11336CE2A2A2A2A2A2A2A2A2A2A2A2A2A2A2A2A48
S11336DE2A2A2A2A2A2A2A2A2A2A2A2A2A2A2A2A38
S11336EE2A2A2A2A2A2A2A2A2A2A2A2A2A2A2A430F
S11336FE756265536174204550530000000000004C
S113370E00000000000000000000000000002A2A53
S113371E2A2A2A2A2A2A2A2A2A2A2A2A2A2A2A2AF7
S113372E2A2A2A2A2A2A2A2A2A2A2A2A2A2A2A2AE7
S113373E2A2A2A2A2A2A2A2A2A2A2A2A2A2A2A2AD7
S113374E2A2A2A2A2A2A2A2A2A2A2A2A2A2A2A2AC7
S113375E2A2A2F00000000000000000000000000D4
S113376E0000000000000000000000000000000047
S113377E00004865617465722031202856426174D8
S113378E7429000000004865617465722032202897
S113379E355629000000000000004865617465720A
S11337AE20332028385629000000000000004F4224
S11337BE43000000000000000000000000000000B4
S11337CE0000496D61676572000000000000000092
S11337DE0000000000004752495053000000000052
S11337EE00000000000000000000532D42616E64D2
S11337FE000000000000000000000000000055481A
S113380E4600000000000000000000000000000060
S113381E00003356332D31205261696C205B415DBB
S113382E0000000000003356332D32205261696CC3
S113383E205B415D00000000000035562052616996
S113384E6C205B415D000000000000000000385653
S113385E205261696C205B415D0000000000000095
S113386E000042617474657279205261696C205B48
S113387E415D00000000536F6C617220496E7075DB
S113388E74205B415D00000000003356332D31205F
S113389E5261696C205B565D0000000000003356D7
S11338AE332D32205261696C205B565D000000009E
S11338BE00003556205261696C205B565D00000095
S11338CE0000000000003856205261696C205B56DF
S11338DE5D00000000000000000042617474657217
S11338EE79205261696C205B565D000000005465BE
S11338FE6D7065726174757265205B435D000000C6
S113390E000043555252454E540000000000000082
S113391E0000000000000000564F4C544147450083
S113392E00000000000000000000000000004C4FEA
S113393E414453000000000000000000000000009D
S113394E0000000054656C656D5271740000000037
S113395E0000000000000000537562537973527129
S113396E7400000000000000000000005077724D4B
S113397E61744564697400000000000000000000DA
S113398E4D6F64654368616E67650000000000005A
S113399E000000004C61756E6368526573657400B7
S11339AE000000000000000048656C6C6F43686501
S11339BE636B000000000000000000005265736598
S11339CE7400000000000000000000000000000071
S11339DE44656D6F00000000000000000000000050
S11339EE000000004572726F722052656164696E48
S11339FE67205374617465206F6620436861726733
S1133A0E65200A0A0D0041206D616E75616C20728D
S1133A1E6573657420686173206F63637572726574
S1133A2E642E0041206C61756E6368207265736547
S1133A3E74206F636375727265642E004120466153
S1133A4E756C74206F636375727265642E00492001
S1133A5E68617665206265656E20726570726F6747
S1133A6E72616D6D65642E004120706F77657220F2
S1133A7E726573657420686173206F636375727207
S1133A8E65642E005374617274696E67204C61759F
S1133A9E6E63682054696D65720054696D65722099
S1133AAE636F6D706C6574652E20456E74657269F6
S1133ABE6E67206E6F726D616C206F7065726174CB
S1133ACE696F6E2E0049206861766520616C72659F
S1133ADE616479206265656E206C61756E636865DC
S1133AEE642E0052657475726E696E6720746F2051
S1133AFE6E6F726D616C206F7065726174696F6E3A
S1133B0E2E2E2E00456E7465722074686520706FBB
S1133B1E776572207374617465206E756D6265725B
S1133B2E20746F206265206368616E67656400456A
S1133B3E6E74657220746865206E65772073746187
S1133B4E746520696E2063686172616374657220A6
S1133B5E666F726D2028792F6E293A2000252E3338
S1133B6E6600252E3266004F4E004F4646005354D3
S1133B7E4154452023002564005354415445204F9D
S1133B8E4620434841524745004D4F444500417538
S1133B9E746F6E6F6D6F7573004D616E75616C0031
S1133BAE4C697374206F6620617661696C61626C16
S1133BBE65204F424320436F6D6D616E64733A20EE
S1133BCE00202D3E2000456E7465722074686520B9
S1133BDE6465736972656420636F6D6D616E643ABA
S1133BEE00596F7520686176652053656C65637442
S1133BFE65643A20005570646174696E672054657B
S1133C0E6C656D6574727920496E666F726D617440
S1133C1E696F6E00456E7465722074686520646504
S1133C2E73697265642073746174653A2000492067
S1133C3E616D2063757272656E746C7920696E2085
S1133C4E4175746F6E6F6D6F7573206D6F64652E35
S1133C5E0053656C656374204D6F64654368616ED3
S1133C6E6765205B345D206265666F7265206174E2
S1133C7E74656D7074696E6720746F206368616E0D
S1133C8E67652074686520706F7765722073746140
S1133C9E74652E004920616D206E6F7720696E2049
S1133CAE4D616E75616C206D6F64652E00492061E7
S1133CBE6D206E6F7720696E204175746F6E6F6D17
S1133CCE6F7573206D6F64652E004F682048656CA8
S1133CDE6C6F2C204920616D2043756265536174AD
S1133CEE204550532E2057686174277320796F75C1
S1133CFE72205A6F64696163207369676E3F004373
S1133D0E6F6D6D616E6420556E7265636F676E695B
S1133D1E7A65642E20506C65617365205472792027
S1133D2E616761696E2E005468652064656D6F204D
S1133D3E68617320737461727465642E00546865CF
S1133D4E2064656D6F20697320636F6D706C65748C
S1073D5E652E0000CA
S9030000FC
