:10000000F2C0000000C10000FEC00000FCC0000003
:10001000FAC00000F8C00000F6C00000F4C0000004
:10002000F2C00000F0C00000EEC00000ECC0000014
:1000300075C10000E8C00000E6C00000E4C0000098
:10004000E2C00000CBC10000DEC00000DCC0000048
:10005000DAC00000D8C00000D6C00000D4C0000044
:10006000D2C00000D0C00000CEC00000CCC0000054
:10007000CAC00000C8C00000C6C00000C4C0000064
:10008000C2C00000C0C00000BEC00000BCC0000074
:10009000BAC00000B8C00000B6C00000B4C0000084
:1000A000B2C00000B0C00000AEC00000ACC0000094
:1000B000AAC00000A8C00000A6C00000A4C00000A4
:1000C000A2C00000A0C000009EC000009CC00000B4
:1000D0009AC0000098C0000096C0000094C00000C4
:1000E00092C000006E616E00696E660000407A107A
:1000F000F35A00A0724E18090010A5D4E80000E8D9
:100100007648170000E40B54020000CA9A3B000036
:1001100000E1F505000080969800000040420F00C5
:100120000000A08601000000102700000000E80386
:10013000000000006400000000000A000000000051
:100140000100000000002C76D888DC674F0823DF10
:10015000C1DFAE59E1B1B796E5E3E453C63AE651E3
:10016000997696E8E6C28426EB898C9B62ED407C0A
:100170006FFCEFBC9C9F40F2BAA56FA5F490055AA6
:100180002AF75C936B6CF9676DC11BFCE0E40D47CB
:10019000FEF520E6B500D0ED902E030094357705EE
:1001A0000080841E080000204E0A000000C80C33A6
:1001B0003333330F986E12831141EF8D2114893B35
:1001C000E65516CFFEE6DB18D1844B381BF77C1DB5
:1001D000901DA4BBE424203284725E228100C9F108
:1001E00024ECA1E53D2711241FBECFEFD1E2DEBFF5
:1001F000CDBF12E0A0E0B2E001C01D92A232B10773
:10020000E1F7B5D025C6FCCE9C01843091051CF4E5
:1002100080937C00089588E080937B00822F845037
:1002200080937C000895EAE7F0E080818064808319
:10023000808186FDFDCF2091780030917900822F5A
:10024000932F08959FE7909301018EE080930A0118
:1002500080EF81B9909304018FEF87B9109202016A
:1002600010920B0112B81092050118B8089510BA37
:1002700010927C0085E880937A0008951092C50062
:100280008CE08093C40088E18093C10086E0809375
:10029000C20008950895982FE0ECF0E0808185FF7A
:1002A000FDCF9093C6000895E0ECF0E080818823B4
:1002B000ECF78091C6000895CF93DF93EC0188811D
:1002C000882329F02196E7DF88818823D9F7DF91F9
:1002D000CF9108950F931F93DF93CF93CDB7DEB7E0
:1002E000E2970FB6F894DEBF0FBECDBFDDDF8032E0
:1002F00041F08E010E5F1F4FD7DFF80181938F0110
:10030000FBCFCE010196E2960FB6F894DEBF0FBE8A
:10031000CDBFCF91DF911F910F9108951F920F9242
:100320000FB60F9211242F933F934F935F936F93C8
:100330007F938F939F93AF93BF93EF93FF93E0913E
:100340000002F0910102309709F00995FF91EF91B9
:10035000BF91AF919F918F917F916F915F914F91DD
:100360003F912F910F900FBE0F901F9018956ADF4D
:1003700091DF7DDF83DFAEDF9FDF80E090E00895D7
:10038000EF92FF920F931F93CF93DF9302E012E05F
:10039000C0E0D0E00F2EFCE7EF2EFF24F02DCE01C1
:1003A0001C161D0634F430DF3EDFF8019183808394
:1003B00006C0F701108237DFF80191838083219610
:1003C0000E5F1F4FC430D10551F782E092E0DF91FC
:1003D000CF911F910F91FF90EF9008951F920F9270
:1003E0000FB60F9211242F933F934F935F936F9308
:1003F0007F938F939F93AF93BF93EF93FF93C0DF50
:10040000FF91EF91BF91AF919F918F917F916F91EC
:100410005F914F913F912F910F900FBE0F901F90C2
:100420001895A1E1B0E0E6E1F2E063C33C017F870B
:100430006E876A01FC0117821682838181FD03C0E9
:100440006FEF7FEF52C39E012F5F3F4F398B288B99
:10045000F3012381EE85FF8523FD859123FF8191A3
:10046000FF87EE87882309F43DC3853251F4EE857A
:10047000FF8523FD859123FF8191FF87EE878532DC
:1004800021F490E0B3015AD4E3CF982F10E08824F0
:1004900099241032B0F49B3269F09C3228F49032E7
:1004A00051F0933271F40BC09D3239F0903349F41E
:1004B000116028C01260146025C0186023C010614C
:1004C00021C017FD2AC0892F80538A3078F416FF87
:1004D00006C0FAE09F9E902C1124980E13C03AE0BB
:1004E000839E802C1124880E10620CC09E3221F451
:1004F00016FDF8C2106406C09C3611F4106802C0E4
:10050000983659F4EE85FF8523FD959123FF91914F
:10051000FF87EE87992309F0BCCF892F855483305C
:1005200020F4812F8061905E07C0892F855683302B
:1005300008F08FC1812F8F7E86FD02C076E0972E56
:100540006FE3F62EF822953619F4F0E4FF2A07C07F
:10055000963619F420E8F22A02C091109A94F7FE18
:100560000AC03BE3391518F45CE3B52E02C0B92C80
:10057000B39427E009C047E0491520F4BB2447E0C5
:10058000942EF7CF292DBB24C60104969D878C8716
:10059000F6016081718182819381AE014F5F5F4F6F
:1005A0000B2DDED26C010981202E332400FF04C004
:1005B00003FD02C01DE209C0F1FE02C01BE205C03E
:1005C000F2FC02C010E001C010E2C1018C7090701A
:1005D000892BA1F1112311F483E001C084E0881577
:1005E00010F0882409C0881AF3FC06C080E290E06D
:1005F000B301A4D38A94D1F7112321F0812F90E085
:10060000B3019CD323FE03C004EE10E00DC008EE3E
:1006100010E00AC0E114F10409F0805290E0B30147
:100620008DD30F5F1F4F05C0EF2CFF24F0E1EF22A9
:10063000FF24F8018491882369F708C1F7FE12C0EE
:10064000BC0C24FE04C08A81813309F4BA941B14C3
:100650001CF0BB24B3942DC0F8E0FB1550F538E036
:10066000B32E27C0F6FC25C0892D90E08C159D0582
:100670004CF02CEFC2162FEFD20624F030E8F32A0C
:1006800001C09A94992049F0E2E0F0E0EC0FFD1FE0
:10069000E90DF11D80818033A1F3F7FE0AC0B92C6A
:1006A000B394892D90E0C816D90614F0992401C09E
:1006B0009C18F7FC03C025E030E009C01C141D04A1
:1006C0001CF021E030E003C096012F5F3F4F112363
:1006D00011F02F5F3F4F992029F0892D90E001966E
:1006E000280F391F882D90E02817390714F0882427
:1006F00001C0821A4F2C5524C20189709070892B39
:1007000031F007C080E290E0B30118D38A948820CA
:10071000C9F7112321F0812F90E0B3010FD343FEDD
:1007200006C007C080E390E0B30108D38A94882014
:10073000C9F7F7FE44C08601D7FE02C000E010E012
:1007400076010894E11CF11CE01AF10A41E050E046
:100750004C0F5D1FE40EF51E26014B185108892D24
:1007600090E0AA24BB24A81AB90A5FEF0F3F15072F
:1007700021F48EE290E0B301E1D2C016D10634F04C
:10078000401651061CF4F701808101C080E301503E
:1007900010400894E11CF11C0A151B0524F090E0A0
:1007A000B301CCD2E2CF0C151D0539F49A819633F2
:1007B00018F4953311F424FE81E390E045C08A815A
:1007C000813309F00F7E90E0B301B8D2992091F007
:1007D0008EE290E0B301B2D212E0E1E0F0E0EC0F83
:1007E000FD1FE10FF11D1F5F808190E0B301A6D2D4
:1007F0009A9499F744FC03C085E690E002C085E432
:1008000090E0B3019BD2D7FC05C0C114D10441F4E0
:1008100004FF06C0D094C194D108D3948DE201C0E6
:100820008BE290E0B3018AD280E305C08F5F26EFB0
:100830003FEFC20ED31E3AE0C316D104BCF790E0DE
:10084000B3017CD2C601C096B30178D2CC84DD84DA
:1008500046C1933631F0933799F0933509F055C07E
:1008600022C0F601808189835E010894A11CB11C1D
:1008700022E030E0C20ED31E21E0E22EF12C11C0A6
:10088000F601A080B18016FD03C06FEF7FEF02C0BC
:10089000692D70E022E030E0C20ED31EC50143D2C4
:1008A0007C011F7712C0F601A080B18016FD03C045
:1008B0006FEF7FEF02C0692D70E022E030E0C20EE2
:1008C000D31EC50125D27C01106813FF06C019C0D4
:1008D00080E290E0B30132D28A94882D90E0E8164D
:1008E000F906B0F30EC0F50117FD859117FF819150
:1008F0005F0190E0B30122D281108A940894E1084C
:10090000F108E114F10479F7EAC0943611F0993650
:1009100081F517FF08C0F6012081318142815381A2
:1009200084E090E00AC0F601808191819C01442717
:1009300037FD4095542F82E090E0C80ED91E9FE607
:10094000F92EF12257FF09C0509540953095219519
:100950003F4F4F4F5F4F90E8F92ACA01B901AE01EE
:100960004F5F5F4F2AE030E015D2E82EE889EE1A9B
:1009700040C0953721F41F7E2AE030E01CC0197F6B
:100980009F3661F0903720F4983509F0ABC00FC066
:10099000903739F0983709F0A5C004C028E030E05E
:1009A0000AC0106114FD146020E130E004C014FDA1
:1009B000166020E132E017FF08C0F6016081718106
:1009C0008281938144E050E008C0F60180819181EA
:1009D000BC0180E090E042E050E0C40ED51EAE01C4
:1009E0004F5F5F4FD7D1E82E5889E51A8FE7F82E71
:1009F000F122F6FE0BC08EEFF822E91438F4F4FE73
:100A000007C0F2FC05C09FEEF92202C01E2D01C0F6
:100A1000192DF4FE0DC0FE01EE0DF11D8081803315
:100A200019F4E9EEFE2208C01F5FF2FE05C003C004
:100A30008F2D867809F01F5F0F2DF3FC13C0F0FE99
:100A40000EC0181510F09E2C0AC09E2C980C911AFE
:100A5000182D05C080E290E0B30170D11F5F18151A
:100A6000C8F304C0181510F4811A01C0882404FFCB
:100A70000EC080E390E0B30161D102FF1BC001FD15
:100A800003C088E790E00EC088E590E00BC0802F9F
:100A9000867881F001FF02C08BE201C080E2F7FCA2
:100AA0008DE290E0B3014AD105C080E390E0B3014C
:100AB00045D19A94E914C8F3EA94E1E0F0E0EC0F30
:100AC000FD1FEE0DF11D808190E0B30137D1EE20C6
:100AD00099F705C080E290E0B30130D18A94882074
:100AE000C9F7B6CCF30166817781CB016196E2E16B
:100AF0001CC02F923F924F925F926F927F928F9283
:100B00009F92AF92BF92CF92DF92EF92FF920F939C
:100B10001F93CF93DF93CDB7DEB7CA1BDB0B0FB6A6
:100B2000F894DEBF0FBECDBF09942A883988488863
:100B30005F846E847D848C849B84AA84B984C884F9
:100B4000DF80EE80FD800C811B81AA81B981CE0FF0
:100B5000D11D0FB6F894DEBF0FBECDBFED010895D5
:100B6000283008F027E03327DA01990F311D87FD7F
:100B7000916000966105710539F432602E5F3D93F6
:100B800030E32A95E1F708959F3F30F080387105F2
:100B9000610509F03C5F3C5F3D93913008F080684F
:100BA000911DDF93CF931F930F93FF92EF92192F15
:100BB000987F9695E92F96959695E90FFF27EA5B22
:100BC000FE4F99273327EE24FF24A701E701059064
:100BD0000894079428F4360FE71EF81E491F511D8C
:100BE000660F771F881F991F0694A1F70590079439
:100BF00028F4E70EF81E491F561FC11D770F881FE6
:100C0000991F661F0694A1F70590079428F4F80E23
:100C1000491F561FC71FD11D880F991F661F771FB9
:100C20000694A1F70590079420F4490F561FC71F9B
:100C3000D81F990F661F771F881F0694A9F7849104
:100C40001095177041F0D695C79557954795F7942D
:100C5000E7941A95C1F7ECEEF0E0689415901591C1
:100C600035916591959105907FE27395E118F10AB0
:100C7000430B560BC90BD009C0F7E10CF11E431F03
:100C8000561FC91FD01D7EF4703311F48A95E6CF2C
:100C9000E894015030F0080F0AF40027021708F416
:100CA000202F2395022F7A3328F079E37D932A951C
:100CB000E9F710C07D932A9589F606949795679574
:100CC000379517951794E118F10A430B560BC90B8A
:100CD000D00998F023957E9173957A3308F070E3EC
:100CE0007C932013B8F77E9170617D9330F08395EB
:100CF00071E37D9370E32A95E1F71124EF90FF9063
:100D00000F911F91CF91DF91992787FD90950895BD
:100D1000FC010590615070400110D8F780959095C6
:100D20008E0F9F1F0895FC016150704001900110CB
:100D3000D8F7809590958E0F9F1F08950F931F935E
:100D4000CF93DF938C01EB018B8181FF1BC082FF6E
:100D50000DC02E813F818C819D812817390764F455
:100D6000E881F9810193F983E88306C0E885F98574
:100D7000802F0995892B31F48E819F8101969F8365
:100D80008E8302C00FEF1FEFC801DF91CF911F913B
:100D90000F910895FA01AA27283051F1203181F1ED
:100DA000E8946F936E7F6E5F7F4F8F4F9F4FAF4F73
:100DB000B1E03ED0B4E03CD0670F781F891F9A1F86
:100DC000A11D680F791F8A1F911DA11D6A0F711D3A
:100DD000811D911DA11D20D009F468943F912AE046
:100DE000269F11243019305D3193DEF6CF0108952E
:100DF000462F4770405D4193B3E00FD0C9F7F6CF5F
:100E0000462F4F70405D4A3318F0495D31FD405226
:100E1000419302D0A9F7EACFB4E0A69597958795BC
:100E200077956795BA95C9F700976105710508959B
:100E30009B01AC010A2E0694579547953795279547
:100E4000BA95C9F7620F731F841F951FA01D0895DF
:040E5000F894FFCF44
:00000001FF
