:10000000F2C000000CC100000AC1000008C10000DD
:1000100006C1000004C1000002C1000000C10000D0
:10002000FEC00000FCC00000FAC00000F8C00000E4
:10003000DCC70000F4C00000F2C00000F0C0000007
:10004000EEC00000FBC70000EAC00000E8C00000EE
:10005000E6C00000E4C00000E2C00000E0C0000014
:10006000DEC00000DCC00000DAC00000D8C0000024
:10007000D6C00000D4C00000D2C00000D0C0000034
:10008000CEC00000CCC00000CAC00000C8C0000044
:10009000C6C00000C4C00000C2C00000C0C0000054
:1000A000BEC00000BCC00000BAC00000B8C0000064
:1000B000B6C00000B4C00000B2C00000B0C0000074
:1000C000AEC00000ACC00000AAC00000A8C0000084
:1000D000A6C00000A4C00000A2C00000A0C0000094
:1000E0009EC000006E616E00696E660000407A106E
:1000F000F35A00A0724E18090010A5D4E80000E8D9
:100100007648170000E40B54020000CA9A3B000036
:1001100000E1F505000080969800000040420F00C5
:100120000000A08601000000102700000000E80386
:10013000000000006400000000000A000000000051
:100140000100000000002C76D888DC674F0823DF10
:10015000C1DFAE59E1B1B796E5E3E453C63AE651E3
:10016000997696E8E6C28426EB898C9B62ED407C0A
:100170006FFCEFBC9C9F40F2BAA56FA5F490055AA6
:100180002AF75C936B6CF9676DC11BFCE0E40D47CB
:10019000FEF520E6B500D0ED902E030094357705EE
:1001A0000080841E080000204E0A000000C80C33A6
:1001B0003333330F986E12831141EF8D2114893B35
:1001C000E65516CFFEE6DB18D1844B381BF77C1DB5
:1001D000901DA4BBE424203284725E228100C9F108
:1001E00024ECA1E53D2711241FBECFEFD1E2DEBFF5
:1001F000CDBF14E0A0E0B2E0EAE8FFE102C0059064
:100200000D92AE30B107D9F724E0AEE0B4E001C002
:100210001D92A835B207E1F75ED70C94C30FF0CE5C
:10022000843091051CF480937C00089598E09093AD
:100230007B00845080937C000895EAE7F0E08081A1
:1002400080648083808186FDFDCF809178009091CD
:1002500079000895E5DFF1DFBC0180E090E00C94C7
:1002600063099C012C5F3F4F0297A0F4C901F2DFA4
:1002700020E030E040E85AE30E94190A23E333E328
:1002800043E550E40E94190A29E334EB48E65FE3B2
:10029000B2C7089526303105A9F486E090E0DADF90
:1002A00020E030E040E85AE30E94190A23E333E3F8
:1002B00043E550E40E94190A20EF35E849E15FE385
:1002C0009AC7089527303105A9F487E090E0C2DF8E
:1002D00020E030E040E85AE30E94190A23E333E3C8
:1002E00043E550E40E94190A29E93AE248EB5EE34B
:1002F00082C7089528303105A9F488E090E0AADF8C
:1003000020E030E040E85AE30E94190A23E333E397
:1003100043E550E40E94190A22E43FEC46E35FE320
:100320006AC7089560E070E0CB01089584309105BC
:100330001CF19C012450310922303105C8F4059686
:1003400089DF20E030E040E85AE30E94190A23E305
:1003500033E343E550E40E94190A21E93DEE4CEFF6
:100360005EE3E0D62DEC3CEC4CEC5EE344C7089534
:1003700060E070E0CB0108956DDF20E030E040E800
:100380005AE30E94190A23E333E343E550E40E9451
:10039000190A21E93DEE4CEF5EE3C4D62DEC3CECAE
:1003A0004CEC5EE328C70895CF92DF92EF92FF9264
:1003B0000F931F93CF93DF9381E090E0F9D201E098
:1003C00010E0C0E0D0E003C021960F5F1F4F2097E0
:1003D00051F584E090E0ECD285E090E083D286E0B5
:1003E00090E080D28BE090E035DF20E030E040E824
:1003F0005AE30E94190A23E333E343E550E40E94E1
:10040000190A23EB3BE742E35FE38CD62BE439E5A3
:1004100046E05DE3F0D69B01AC01C701B60183D68F
:100420006B017C01D1CFC130D10541F584E090E072
:1004300059D285E090E056D286E090E0B9D28BE0C8
:1004400090E008DF20E030E040E85AE3F2D723E311
:1004500033E343E550E4EDD723EB3BE742E35FE3CF
:1004600061D62BE439E546E05DE3C5D69B01AC01DE
:10047000C701B60158D66B017C01A6CFC230D105A9
:1004800041F584E090E02ED285E090E02BD286E02A
:1004900090E028D28BE090E0DDDE20E030E040E824
:1004A0005AE3C7D723E333E343E550E4C2D723EB52
:1004B0003BE742E35FE336D62BE439E546E05DE314
:1004C0009AD69B01AC01C701B6012DD66B017C0108
:1004D00004C0033011050CF477CF20E030E040E495
:1004E00050E4C701B60187D6DF91CF911F910F91DC
:1004F000FF90EF90DF90CF9008958F929F92AF92F0
:10050000BF92CF92DF92EF92FF924B015C016901A3
:100510007A012AE939E949E15FE3C701B60167D603
:1005200088230CF082C020E030E0A901C701B601A9
:100530007CD718160CF079C020E030E040E850E499
:10054000C501B40172D718160CF485C120E030E063
:1005500040E850E4C501B4014AD6882354F423E3AB
:1005600033E343E750E4C501B4015FD718160CF438
:1005700075C123E333E343E750E4C501B40137D643
:10058000882354F420E030E040E750E4C501B40192
:100590004CD718160CF465C120E030E040E750E479
:1005A000C501B40124D6882354F42DEC3CEC4CE670
:1005B00050E4C501B40139D718160CF455C12DEC1F
:1005C0003CEC4CE650E4C501B40111D6882354F448
:1005D00026E636E646E650E4C501B40126D71816ED
:1005E0000CF445C126E636E646E650E4C501B40102
:1005F000FED5882354F420E030E040E650E4C50105
:10060000B40113D718160CF435C120E030E040E6F1
:1006100050E4C501B401EBD588230CF42EC181E36D
:1006200093E0D5D480E090E054C12AE939E949E16A
:100630005FE3C701B601F9D618160CF083C020E0BD
:1006400030E040E450E4C701B601D1D588230CF076
:1006500079C020E030E040E750E4C501B401E5D6C0
:1006600018160CF40DC120E030E040E750E4C5015D
:10067000B401BDD5882354F42AE939E949E650E4A8
:10068000C501B401D2D618160CF4FDC02AE939E927
:1006900049E650E4C501B401AAD5882354F423E304
:1006A00033E343E650E4C501B401BFD618160CF499
:1006B000EDC023E333E343E650E4C501B40197D52D
:1006C000882354F42DEC3CEC4CE550E4C501B40116
:1006D000ACD618160CF4DDC02DEC3CEC4CE550E427
:1006E000C501B40184D5882354F426E636E646E5F0
:1006F00050E4C501B40199D618160CF4CDC026E615
:1007000036E646E550E4C501B40171D5882354F4BA
:1007100023E333E343E550E4C501B40186D618165C
:100720000CF4BDC023E333E343E550E4C501B40159
:100730005ED588230CF4B6C081E393E048D480E012
:1007400090E0C7C020E030E040E450E4C701B601CB
:100750006CD618160CF079C023E333E343E750E47A
:10076000C501B40162D618160CF49FC023E333E32D
:1007700043E750E4C501B4013AD5882354F420E09E
:1007800030E040E750E4C501B4014FD618160CF430
:100790008FC020E030E040E750E4C501B40127D528
:1007A000882354F42AE939E949E650E4C501B40143
:1007B0003CD618160CF47FC02AE939E949E650E422
:1007C000C501B40114D5882354F420E030E040E69C
:1007D00050E4C501B40129D618160CF46FC020E00E
:1007E00030E040E650E4C501B40101D5882354F45B
:1007F0002AE939E949E550E4C501B40116D61816CD
:100800000CF45FC02AE939E949E550E4C501B401B7
:10081000EED4882354F420E030E040E550E4C501F4
:10082000B40103D618160CF44FC020E030E040E5C8
:1008300050E4C501B401DBD488230CF448C081E343
:1008400093E0C5D380E090E044C083E593E0BFD35C
:1008500080E090E03EC080E590E03BC086E490E020
:1008600038C08CE390E035C082E390E032C088E28B
:1008700090E02FC08EE190E02CC084E190E029C090
:1008800080E590E026C086E490E023C08CE390E011
:1008900020C082E390E01DC088E290E01AC08EE1A3
:1008A00090E017C084E190E014C080E590E011C0B2
:1008B00086E490E00EC08CE390E00BC082E390E011
:1008C00008C088E290E005C08EE190E002C084E1BB
:1008D00090E0FF90EF90DF90CF90BF90AF909F900F
:1008E0008F900895873091057CF4E2E0F1E040813B
:1008F00021E030E0B90102C0660F771F8A95E2F768
:10090000CB01842B808308959C012750310923302B
:10091000310580F4EBE0F1E04081069721E030E022
:10092000B90102C0660F771F8A95E2F7CB01842BCD
:10093000808308959C012A5031092430310570F4D8
:1009400042B1069721E030E0B90102C0660F771F7F
:100950008A95E2F7CB01842B82B908959C012E5031
:1009600031092730310580F4E5E0F1E04081C9012B
:1009700021E030E0B90102C0660F771F8A95E2F7E7
:10098000CB01842B808308959C01255131092830A7
:10099000310568F448B1C90121E030E0B90102C075
:1009A000660F771F8A95E2F7CB01842B88B90895EB
:1009B0008730910584F4E2E0F1E0908141E050E07D
:1009C00002C0440F551F8A95E2F72EEF842F82272D
:1009D0008923808308959C012750310923303105F4
:1009E00090F4EBE0F1E02081AC014650510981E048
:1009F00090E002C0880F991F4A95E2F79EEF892781
:100A00008223808308959C012A50310924303105C6
:100A100080F422B1AC014650510981E090E002C05F
:100A2000880F991F4A95E2F79EEF8927822382B9A2
:100A300008959C012E5031092730310590F4E5E0EE
:100A4000F1E02081AC014E50510981E090E002C0FC
:100A5000880F991F4A95E2F79EEF892782238083AA
:100A600008959C01255131092830310578F428B1C9
:100A7000459741E050E0BA0102C0660F771F8A95A2
:100A8000E2F7CB019EEF8927822388B90895CF939F
:100A9000DF93EC018BE090E025DF82E090E0E1DB8A
:100AA0002AE939E949E950E4A2D38823B4F382E082
:100AB00090E03CDC688379838A839B8383E090E0C9
:100AC00035DC6C837D838E839F8381E090E02EDC18
:100AD000688779878A879B8780E090E027DC6C872E
:100AE0007D878E879F8785E090E020DC688B798BFF
:100AF0008A8B9B8B84E090E019DC6C8B7D8B8E8BDA
:100B00009F8B80E090E0ADDB688F798F8A8F9B8F21
:100B100081E090E0A6DB6C8F7D8F8E8F9F8F82E0CF
:100B200090E09FDB68A379A38AA39BA383E090E076
:100B300098DB6CA37DA38EA39FA384E090E091DB60
:100B400068A779A78AA79BA72FDC6CA77DA78EA78C
:100B50009FA7DF91CF910895FC01AC01485F5F4FE3
:100B600091E03EE489E5262F292319F08083990F2F
:100B700002C03083990F3196E417F507A1F7089565
:100B80002F923F924F925F926F927F928F929F929D
:100B9000AF92BF92CF92DF92EF92FF920F931F938B
:100BA000CF93DF93CDB7DEB7CF53D1400FB6F894D4
:100BB000DEBF0FBECDBFC45CDE4F99838883CC53AC
:100BC000D1404B0184E3E0E0F2E0DE0111960190B8
:100BD0000D928A95E1F7FE01F59688E0DF011D92FE
:100BE0008A95E9F789E2ECE3F2E0DE01DD96019017
:100BF0000D928A95E1F7FE01EA59FF4F84E0DF018B
:100C00001D928A95E9F7BE01635C7F4FCE01019684
:100C10000E94F40EDCD18AE0D2D18AE0D0D18DE0FE
:100C2000CED180E5E9E6F2E0DE01A659BF4F0190A2
:100C30000D928A95E1F788E7E9EBF2E0DE01A65430
:100C4000BF4F01900D928A95E1F7FE01E654FF4FE8
:100C50007F01C12CD12C412C512C00E010E00F2E33
:100C6000FFE0AF2EB12CF02D3E01FEEC6F1AFEEF2F
:100C70007F0AC25CDE4F6882CE53D140C15CDE4F3A
:100C80007882CF53D14026E0C216D10409F071C05A
:100C90008AE095D18DE093D146E0241631040CF022
:100CA00052C08101000F111F000F111FC45CDE4FE5
:100CB00088819981CC53D140080F191F3FC080E231
:100CC0007ED191E0491A5108D1F7D8018C91119643
:100CD0009C91119712962C91129713963C910C5F50
:100CE0001F4F3F932F939F938F93EBE0F4E0FF937D
:100CF000EF937F926F920E94460FC25CDE4F888115
:100D0000CE53D140C15CDE4F9881CF53D1405FD1EB
:100D10004FEF241A340AF30101900020E9F73197CC
:100D2000E619F70925014E1A5F0A0FB6F894DEBFDF
:100D30000FBECDBF96E02916310429F041145104AD
:100D400009F0BDCFC2CF8AE03AD18AE038D18DE038
:100D500036D1C7013CD1AFEFCA1ADA0AF7010190C8
:100D60000020E9F73197EE19FF0985010E1B1F0BD3
:100D70007BC00115110529F080E221D10150110934
:100D8000D9F7C70124D1BFEFCB1ADB0AF7010190D5
:100D90000020E9F73197EE19FF0985010E1B1F0BA3
:100DA000ECE0CE16D10409F05FC08AE008D18DE0F6
:100DB00006D1FCE02F1631040CF099C0C101880F58
:100DC000991F880F991FC45CDE4F48805980CC530F
:100DD000D140480E591E0F2EFBE0AF2EF4E0BF2E7F
:100DE000F02D8E010E5C1E4F0F2EFFE0CF2ED12C6A
:100DF000F02D06C080E2E3D021E0E21AF108D1F73D
:100E0000D2018C9111969C91119712962C91129768
:100E100013963C91B4E04B0E511C3F932F939F933C
:100E20008F93BF92AF921F930F930E94460FC801FA
:100E3000CED0EFEF2E1A3E0AF80101900020E9F71C
:100E40003197E01BF10B7601EE1AFF0A0FB6F8940A
:100E5000DEBF0FBECDBF9CE02916310409F447C0A8
:100E6000E114F10439F6CCCFAAE0EA0EF11C0BCF65
:100E700080E2A5D001501109D9F7BAE0EB0EF11CC0
:100E8000C701A5D0F70101900020E9F73197EE19CD
:100E9000FF0986010E1B1F0BAE14BF0421F00115C4
:100EA000110531F7EACF8AE08AD08DE088D074014D
:100EB000E8E08E0E911C00E010E00EC080E27FD0D2
:100EC00001501109D9F7D7018D917D0178D00EE03D
:100ED00010E08E149F0421F00115110579F7F3CF6E
:100EE0008AE06DD08AE06BD08DE069D014C08AE0D2
:100EF00066D08AE064D08DE062D07E01BAE6EB0E67
:100F0000F11C5E01E0EBAE0EB11C0F2EFFE0CF2E08
:100F1000D12CF02DB5CFC15CDE4F0FB6F894DEBFFB
:100F20000FBECDBFDF91CF911F910F91FF90EF903A
:100F3000DF90CF90BF90AF909F908F907F906F90F9
:100F40005F904F903F902F9008958FE7809301011D
:100F50009EE090930A0190EF91B9809304018FEF86
:100F600087B982E08093020110920B0112B81092AF
:100F7000050118B8089510BA10927C0085E8809396
:100F80007A00089585E08093810082E080936F006D
:100F90008FEF9FE1909389008093880010928500E5
:100FA0001092840008951092C5008CE08093C400D4
:100FB00088E18093C10086E08093C2000895E0EC50
:100FC000F0E0908195FFFDCF8093C6000895CF9308
:100FD000DF93EC018881882329F02196F0DF899145
:100FE0008111FCCFDF91CF9108951F920F920FB620
:100FF0000F9211242F933F934F935F936F937F939F
:101000008F939F93AF93BF93EF93FF93E0910E0461
:10101000F0910F04309709F00995FF91EF91BF917E
:10102000AF919F918F917F916F915F914F913F9180
:101030002F910F900FBE0F901F9018951F920F9237
:101040000FB60F9211242F933F934F935F936F939B
:101050007F938F939F93AF93BF93EF93FF93F894F6
:101060006091100483E194E077DD83E294E00FDD8A
:1010700063E174E083E294E083DDE3E2F4E020895D
:1010800031894289538960A571A582A593A535DA76
:1010900090931204809311048634910524F087E321
:1010A0008093530403C080E38093530480915304DE
:1010B00086DF7894FF91EF91BF91AF919F918F91CF
:1010C0007F916F915F914F913F912F910F900FBE44
:1010D0000F901F90189539DF66DF4DDF53DF78944E
:1010E0008BE090E0FFDB2FE38DE093E02150804028
:1010F0009040E1F700C000008AE090E0F3DB8CE173
:1011000090E0F0DB2FE38DE093E0215080409040B1
:10111000E1F700C0000080E190E0E4DB8AE190E0CC
:10112000E1DBFFCF5058BB27AA270ED044C135D1F1
:1011300030F03AD120F031F49F3F11F41EF42AC16F
:101140000EF4E095E7FB20C1E92F46D180F3BA17F2
:10115000620773078407950718F071F49EF55EC166
:101160000EF4E0950B2EBA2FA02D0B01B9019001C2
:101170000C01CA01A0011124FF27591B99F0593F06
:1011800050F4503E68F11A16F040A22F232F342F4E
:101190004427585FF3CF469537952795A795F0409C
:1011A0005395C9F77EF41F16BA0B620B730B840BB1
:1011B000BAF09150A1F0FF0FBB1F661F771F881F69
:1011C000C2F70EC0BA0F621F731F841F48F48795C1
:1011D00077956795B795F7959E3F08F0B3CF9395B0
:1011E000880F08F09927EE0F979587950895A8D056
:1011F00008F481E008950CD0DEC0D6D040F0CDD008
:1012000030F021F45F3F19F0BFC0511108C1C2C0D6
:10121000E3D098F39923C9F35523B1F3951B550BEC
:10122000BB27AA2762177307840738F09F5F5F4FB9
:10123000220F331F441FAA1FA9F333D00E2E3AF0FA
:10124000E0E830D091505040E695001CCAF729D014
:10125000FE2F27D0660F771F881FBB1F2617370763
:101260004807AB07B0E809F0BB0B802DBF01FF2793
:1012700093585F4F2AF09E3F510568F085C0CFC05C
:101280005F3FECF3983EDCF3869577956795B795CD
:10129000F7959F5FC9F7880F911D9695879597F9E8
:1012A0000895E1E0660F771F881FBB1F6217730761
:1012B0008407BA0720F0621B730B840BBA0BEE1F76
:1012C00088F7E0950895E89409C097FB3EF490955F
:1012D0008095709561957F4F8F4F9F4F9923A9F00F
:1012E000F92F96E9BB279395F6958795779567959E
:1012F000B795F111F8CFFAF4BB0F11F460FF1BC0E2
:101300006F5F7F4F8F4F9F4F16C0882311F096E974
:1013100011C0772321F09EE8872F762F05C0662322
:1013200071F096E8862F70E060E02AF09A95660FDB
:10133000771F881FDAF7880F9695879597F9089594
:10134000990F0008550FAA0BE0E8FEEF16161706D6
:10135000E807F907C0F012161306E407F50798F03E
:10136000621B730B840B950B39F40A2661F0232B57
:10137000242B252B21F408950A2609F4A140A695D3
:101380008FEF811D811D089597F99F6780E870E0B8
:1013900060E008959FEF80EC089500240A941616EB
:1013A000170618060906089500240A941216130653
:1013B000140605060895092E0394000C11F48823E1
:1013C00052F0BB0F40F4BF2B11F460FF04C06F5FFD
:1013D0007F4F8F4F9F4F089557FD9058440F551FD3
:1013E00059F05F3F71F04795880F97FB991F61F0A7
:1013F0009F3F79F087950895121613061406551F1E
:10140000F2CF4695F1DF08C0161617061806991F89
:10141000F1CF86957105610508940895E894BB277E
:1014200066277727CB0197F908958ADF08F48FEFB5
:1014300008950BD0C0CFB1DF28F0B6DF18F09523A8
:1014400009F0A2CFA7CF1124EACFC6DFA0F3959F62
:10145000D1F3950F50E0551F629FF001729FBB279B
:10146000F00DB11D639FAA27F00DB11DAA1F649F47
:101470006627B00DA11D661F829F2227B00DA11DFA
:10148000621F739FB00DA11D621F839FA00D611D80
:10149000221F749F3327A00D611D231F849F600DA1
:1014A000211D822F762F6A2F11249F5750408AF0DA
:1014B000E1F088234AF0EE0FFF1FBB1F661F771F66
:1014C000881F91505040A9F79E3F510570F05CCFA6
:1014D000A6CF5F3FECF3983EDCF386957795679552
:1014E000B795F795E7959F5FC1F7FE2B880F911D84
:1014F0009695879597F90895A0E1B0E0E1E8FAE0C4
:1015000059C37C011B016A01FC0117821682838189
:1015100081FF2AC39E012F5F3F4F3901F70193815D
:10152000F10193FD859193FF81911F01882309F4B7
:1015300017C3853239F493FD859193FF81911F0183
:10154000853231F4B70190E065D456016501E6CFEC
:1015500010E0512C912CFFE1F915D8F08B3279F085
:1015600038F4803279F08332A1F4F92DF0612EC085
:101570008D3261F0803369F4292D21602DC0392D21
:101580003260932E892D8460982E2AC0E92DE86060
:1015900015C097FC2DC020ED280F2A3088F496FE48
:1015A00006C03AE0139F200D1124122F19C08AE0C3
:1015B000589E200D1124522EE92DE0629E2E10C05F
:1015C0008E3231F496FCCCC2F92DF0649F2E08C007
:1015D0008C3621F4292D2068922E02C0883641F4E1
:1015E000F10193FD859193FF81911F018111B3CF8B
:1015F0009BEB980F933020F4992D9061805E07C08B
:101600009BE9980F933008F059C1992D9F7E96FF62
:1016100016E09F73992E853619F49064992E08C0B0
:10162000863621F4392F3068932E02C011111150E3
:1016300097FE07C01C3350F444244394410E27E026
:101640000BC0183038F027E017E005C027E09CE316
:10165000492E02C0212F412C560184E0A80EB11C56
:10166000F6016081718182819381042DA301D9D219
:101670006C01F981FC87F0FF02C0F3FF06C091FC0A
:1016800006C092FE06C000E205C00DE203C00BE2F8
:1016900001C000E08C858C7019F0011143C280C23A
:1016A00097FE10C04C0CFC85F4FF04C08A81813386
:1016B00009F44A94141474F528E0241578F588E0A8
:1016C000482E2CC096FC2AC0812F90E08C159D05D9
:1016D0009CF03CEFC3163FEFD30674F0892D806871
:1016E000982E0AC0E2E0F0E0EC0FFD1FE10FF11DC3
:1016F0008081803319F411501111F4CF97FE0EC080
:1017000044244394410E812F90E0C816D9062CF44E
:101710001C1904C04424439401C010E097FE06C085
:101720001C141D0434F4C601019605C085E090E048
:1017300002C081E090E001110196112331F0212FC8
:1017400030E02F5F3F4F820F931F252D30E082172F
:10175000930714F4581A01C0512C892D897041F453
:10176000552031F0B70180E290E054D35A94F8CF7D
:10177000002321F0B701802F90E04CD393FC08C0E8
:10178000552031F0B70180E390E044D35A94F8CF6C
:1017900097FE4AC04601D7FE02C0812C912CC6019B
:1017A00088199909F301E80FF91FFE87ED87960163
:1017B00024193109388B2F87012F10E011950195DD
:1017C00011093FEF8316930621F4B7018EE290E0F2
:1017D00021D3C814D9044CF08F85988988159905B0
:1017E00024F4ED85FE85818101C080E3F1E08F1A4C
:1017F00091082D853E852F5F3F4F3E872D878016B0
:10180000910624F0B70190E005D3DBCFC814D904CA
:1018100041F49A81963320F4953319F43C8534FFD2
:1018200081E3B70190E048C08A81813319F09C853B
:101830009F7E9C87B70190E0EDD2111105C094FC0A
:1018400016C085E690E015C0B7018EE290E0E2D2C6
:101850001E5F82E001E0080FF301E80FF11D8081B7
:10186000B70190E0D7D2802F0113F4CFE8CF85E401
:1018700090E0B701CFD2D7FC06C0C114D10441F427
:10188000EC85E4FF05C0D194C194D1088DE201C07C
:101890008BE2B70190E0BED280E32AE0C216D10409
:1018A0002CF08F5FFAE0CF1AD108F7CFB70190E0A4
:1018B000B1D2B701C601C096ADD249C1833631F06D
:1018C000833779F0833509F052C01FC0560132E0EA
:1018D000A30EB11CF6018081898301E010E0630151
:1018E00011C05601F2E0AF0EB11CF601C080D180EC
:1018F00096FE03C0612F70E002C06FEF7FEFC6015C
:101900007ED28C01F92DFF7713C0560122E0A20E82
:10191000B11CF601C080D18096FE03C0612F70E03B
:1019200002C06FEF7FEFC60154D28C01F92DF06831
:101930009F2EF3FD18C0852D90E00817190798F425
:10194000B70180E290E066D25A94F5CFF60197FC99
:10195000859197FE81916F01B70190E05BD25110A4
:101960005A94015011090115110581F7F0C0843610
:1019700011F0893659F5560197FE09C024E0A20EF0
:10198000B11CF60160817181828193810AC0F2E00D
:10199000AF0EB11CF60160817181072E000C880B1F
:1019A000990BF92DFF769F2E97FF09C09095809592
:1019B000709561957F4F8F4F9F4FF0689F2E2AE063
:1019C00030E0A30182D2C82EC6183EC0092D85374B
:1019D00021F40F7E2AE030E01DC0097F8F3691F0A0
:1019E00018F4883559F0BCC0803719F0883711F0E9
:1019F000B7C0006104FF09C0046007C094FE08C0BE
:101A0000066006C028E030E005C020E130E002C0FA
:101A100020E132E0560107FF09C084E0A80EB11CA6
:101A2000F601608171818281938108C0F2E0AF0E7E
:101A3000B11CF6016081718180E090E0A30145D284
:101A4000C82EC6180F77902E96FE0BC0092D0E7F5C
:101A5000C11650F494FE0AC092FC08C0092D0E7EF7
:101A600005C0DC2C092D03C0DC2C01C0D12E04FFE5
:101A70000DC0FE01EC0DF11D8081803311F4097E53
:101A800009C002FF06C0D394D39404C0802F867887
:101A900009F0D39403FD10C000FF06C01C2DD5141F
:101AA00078F4150D1D190CC0D51450F4B70180E25F
:101AB00090E0B0D1D394F8CFD51410F45D1801C0E4
:101AC000512C04FF0FC0B70180E390E0A3D102FFC7
:101AD00016C001FD03C088E790E002C088E590E0F1
:101AE000B7010CC0802F867851F001FF02C08BE255
:101AF00001C080E207FD8DE2B70190E08BD1C116F5
:101B000030F4B70180E390E085D11150F8CFCA944A
:101B1000F301EC0DF11D8081B70190E07BD1C11084
:101B2000F6CF15C0F4E0F51550F584E0581A93FE91
:101B30001EC0011125C02C8523FF27C004EE10E034
:101B4000392D3071932EF8018491811121C05520D7
:101B500009F4FCCCB70180E290E05CD15A94F7CF55
:101B6000F7018681978123C08FEF9FEF20C0B701D7
:101B700080E290E04FD15A945110F9CFDACF512C36
:101B8000B701802F90E046D1D6CF08EE10E0D8CF35
:101B900091108052B70190E03DD10F5F1F4FD3CF1E
:101BA00023E0251510F483E0C1CF512CC4CF6096FB
:101BB000E2E11CC02F923F924F925F926F927F9210
:101BC0008F929F92AF92BF92CF92DF92EF92FF924D
:101BD0000F931F93CF93DF93CDB7DEB7CA1BDB0BF9
:101BE0000FB6F894DEBF0FBECDBF09942A8839889E
:101BF00048885F846E847D848C849B84AA84B984A5
:101C0000C884DF80EE80FD800C811B81AA81B981B0
:101C1000CE0FD11D0FB6F894DEBF0FBECDBFED01C4
:101C20000895283008F027E03327DA01990F311D95
:101C300087FD916000966105710539F432602E5F71
:101C40003D9330E32A95E1F708959F3F30F08038C7
:101C50007105610509F03C5F3C5F3D93913008F0F0
:101C60008068911DDF93CF931F930F93FF92EF92A4
:101C7000192F987F9695E92F96959695E90FFF274E
:101C8000EA5BFE4F99273327EE24FF24A701E701E3
:101C900005900894079428F4360FE71EF81E491F94
:101CA000511D660F771F881F991F0694A1F7059095
:101CB000079428F4E70EF81E491F561FC11D770F21
:101CC000881F991F661F0694A1F70590079428F4B2
:101CD000F80E491F561FC71FD11D880F991F661F79
:101CE000771F0694A1F70590079420F4490F561F1B
:101CF000C71FD81F990F661F771F881F0694A9F763
:101D000084911095177041F0D695C79557954795D2
:101D1000F794E7941A95C1F7ECEEF0E0689415900B
:101D2000159135916591959105907FE27395E11834
:101D3000F10A430B560BC90BD009C0F7E10CF11E99
:101D4000431F561FC91FD01D7EF4703311F48A95AE
:101D5000E6CFE894015030F0080F0AF4002702178C
:101D600008F4202F2395022F7A3328F079E37D930E
:101D70002A95E9F710C07D932A9589F606949795E0
:101D80006795379517951794E118F10A430B560B91
:101D9000C90BD00998F023957E9173957A3308F09A
:101DA00070E37C932013B8F77E9170617D9330F0DF
:101DB000839571E37D9370E32A95E1F71124EF9009
:101DC000FF900F911F91CF91DF91992787FD9095FB
:101DD0000895FC010590615070400110D8F780957E
:101DE00090958E0F9F1F0895FB01DC010D90002040
:101DF000E9F7119701900D920020E1F70895FC0199
:101E00006150704001900110D8F7809590958E0F29
:101E10009F1F08950F931F93CF93DF93FB0123819F
:101E200021FD03C08FEF9FEF2CC022FF16C046811B
:101E30005781248135814217530744F4A081B18131
:101E40009D012F5F3F4F318320838C932681378103
:101E50002F5F3F4F3783268314C08B01EC01FB01BA
:101E60000084F185E02D0995892BE1F6D8011696BD
:101E70008D919C911797019617969C938E93169728
:101E8000CE01DF91CF911F910F910895AEE0B0E0A8
:101E9000EBE4FFE09DCE0D891E8986E08C831A83DA
:101EA00009838FEF9FE79E838D83AE01475E5F4F6F
:101EB0006F89788DCE0101961FDBEF81F885E00FE9
:101EC000F11F10822E96E4E09FCEFA01AA27283057
:101ED00051F1203181F1E8946F936E7F6E5F7F4FF7
:101EE0008F4F9F4FAF4FB1E03ED0B4E03CD0670F73
:101EF000781F891F9A1FA11D680F791F8A1F911DC6
:101F0000A11D6A0F711D811D911DA11D20D009F415
:101F100068943F912AE0269F11243019305D319357
:101F2000DEF6CF010895462F4770405D4193B3E040
:101F30000FD0C9F7F6CF462F4F70405D4A3318F0E7
:101F4000495D31FD4052419302D0A9F7EACFB4E098
:101F5000A6959795879577956795BA95C9F7009750
:101F60006105710508959B01AC010A2E06945795F1
:101F7000479537952795BA95C9F7620F731F841F48
:0A1F8000951FA01D0895F894FFCFEF
:101F8A002F2A2A2A2A2A2A2A2A2A2A2A2A2A2A2AA2
:101F9A002A2A2A2A2A2A2A2A2A2A2A2A2A2A2A2A97
:101FAA002A2A2A2A2A2A2A2A437562655361742010
:101FBA004550530000000000000000002A2A2A2A87
:101FCA002A2A2A2A2A2A2A2A2A2A2A2A2A2A2A2A67
:101FDA002A2A2A2A2A2A2A2A2A2A2A2A2A2A2A2A57
:101FEA002A2A2A2F000000000048656174657220C1
:101FFA0031000048656174657220320000486561ED
:10200A00746572203300004F424300000000000054
:10201A0000496D61676572000000004752495053DC
:10202A000000000000532D42616E6400000000555C
:10203A004846000000000000003356332D31205B73
:10204A00415D003356332D32205B415D0035562009
:10205A005B415D000000003856205B415D000000D6
:10206A00005642617474205B415D00536F6C61726B
:10207A00205B415D003356332D31205B565D0033C2
:10208A0056332D32205B565D003556205B565D0077
:10209A000000003856205B565D0000000056426181
:1020AA007474205B565D0054656D70205B435D005F
:1020BA00004572726F722052656164696E672053BF
:1020CA0074617465206F6620436861726765200ACF
:1020DA000A0D0042617474657279204368617267FF
:1020EA00696E67004572726F722120436F6D6D6170
:1020FA006E64206C6172676572207468616E20324A
:10210A00302063686172730054656C656D52717436
:10211A00200053756253797352717420005077729C
:10212A004D61744564697420005077724D61745230
:10213A00717420004D6F64654368616E67652000A5
:10214A004C61756E63685265736574200048656CEE
:10215A006C6F436865636B20004572726F72212051
:10216A0054686520666F6C6C6F77696E6720636F61
:10217A006D6D616E642069736E2774207265636F7A
:0E218A00676E697A65643A2025730025660049
:00000001FF
