:10000000F2C000000DC100000BC1000009C10000DA
:1000100007C1000005C1000003C1000001C10000CC
:10002000FFC00000FDC00000FBC00000F9C00000E0
:100030000C948B11F5C00000F3C00000F1C000006B
:10004000EFC000000C94A510EBC00000E9C0000058
:10005000E7C00000E5C00000E3C00000E1C0000010
:10006000DFC000000C945111DBC00000D9C00000BB
:10007000D7C00000D5C00000D3C00000D1C0000030
:10008000CFC00000CDC00000CBC00000C9C0000040
:10009000C7C00000C5C00000C3C00000C1C0000050
:1000A000BFC00000BDC00000BBC00000B9C0000060
:1000B000B7C00000B5C00000B3C00000B1C0000070
:1000C000AFC00000ADC00000ABC00000A9C0000080
:1000D000A7C00000A5C00000A3C00000A1C0000090
:1000E0009FC000006E616E00696E660000407A106D
:1000F000F35A00A0724E18090010A5D4E80000E8D9
:100100007648170000E40B54020000CA9A3B000036
:1001100000E1F505000080969800000040420F00C5
:100120000000A08601000000102700000000E80386
:10013000000000006400000000000A000000000051
:100140000100000000002C76D888DC674F0823DF10
:10015000C1DFAE59E1B1B796E5E3E453C63AE651E3
:10016000997696E8E6C28426EB898C9B62ED407C0A
:100170006FFCEFBC9C9F40F2BAA56FA5F490055AA6
:100180002AF75C936B6CF9676DC11BFCE0E40D47CB
:10019000FEF520E6B500D0ED902E030094357705EE
:1001A0000080841E080000204E0A000000C80C33A6
:1001B0003333330F986E12831141EF8D2114893B35
:1001C000E65516CFFEE6DB18D1844B381BF77C1DB5
:1001D000901DA4BBE424203284725E228100C9F108
:1001E00024ECA1E53D2711241FBECFEFD1E2DEBFF5
:1001F000CDBF18E0A0E0B2E0ECEFF1E302C0059063
:100200000D92A43CB107D9F729E0A4ECB8E001C0F5
:100210001D92A133B207E1F70E94B0110C94FC18B3
:10022000EFCE8430910544F4EBE7F0E09081977FC6
:10023000908380937C00089598E090937B00845095
:1002400080937C000895EAE7F0E0808180648083F9
:10025000808186FDFDCF809178009091790008958E
:10026000E0DFF1DFBC0180E090E00C949312089590
:100270009C012C5F3F4F0297A8F4C901F1DF20E0F9
:1002800030E040E85AE30E94491323E333E343E5B7
:1002900050E40E94491329E334EB48E65FE30C94F1
:1002A0002B12089526303105B1F486E090E0D8DFB6
:1002B00020E030E040E85AE30E94491323E333E3AF
:1002C00043E550E40E94491320EF35E849E15FE33C
:1002D0000C942B12089527303105B1F487E090E09B
:1002E000BFDF20E030E040E85AE30E94491323E3F7
:1002F00033E343E550E40E94491329E93AE248EB2D
:100300005EE30C942B12089528303105B1F488E097
:1003100090E0A6DF20E030E040E85AE30E94491375
:1003200023E333E343E550E40E94491322E43FEC26
:1003300046E35FE30C942B12089560E070E0CB017C
:1003400008954F925F926F927F928F929F92AF9299
:10035000BF92CF92DF92EF92FF920F931F93CF93B2
:10036000DF93CDB7DEB768970FB6F894DEBF0FBE48
:10037000CDBF5C0188E1E1E0F2E0DE011196019081
:100380000D928A95E1F784E0A816B1040CF03DC007
:1003900009E110E0C12CD12C76014501880C991C93
:1003A000880C991CE1E0F0E0EC0FFD1F8E0E9F1E03
:1003B000C50156DF20E030E040E85AE30E944913CF
:1003C00023E333E343E550E40E944913F401208121
:1003D0003181428153810E94C2112DEC3CEC4CECE6
:1003E0005EE30E942B129B01AC01C701B6010E9483
:1003F000C3116B017C0101501109D1F620E030E0FE
:1004000048EC51E40E942B1248C0C50104970297A2
:1004100008F040C07501F5E0EF0EF11C09E110E0B5
:10042000412C512C3201AA0CBB1CAA0CBB1C81E034
:1004300090E08C0F9D1FA80EB91EC70111DF20E0B0
:1004400030E040E85AE30E94491323E333E343E5F5
:1004500050E40E944913F50120813181428153818A
:100460000E94C2112DEC3CEC4CEC5EE30E942B127E
:100470009B01AC01C301B2010E94C3112B013C01DD
:1004800001501109D1F620E030E048EC51E40E941F
:100490002B1203C060E070E0CB0168960FB6F894B1
:1004A000DEBF0FBECDBFDF91CF911F910F91FF90A7
:1004B000EF90DF90CF90BF90AF909F908F907F9004
:1004C0006F905F904F900895AF92BF92CF92DF925E
:1004D000EF92FF920F931F93CF93DF93CDB7DEB7C9
:1004E0002C970FB6F894DEBF0FBECDBF81E090E031
:1004F0000E94B70AEE24E394F12C00E010E005C05E
:100500000F5F1F4F8FEFE81AF80A0115110551F51B
:1005100084E090E00E94B70A85E090E0C2D786E0D0
:1005200090E0BFD78BE090E09BDE20E030E040E839
:100530005AE30E94491323E333E343E550E40E9466
:10054000491323EB3BE742E35FE30E94C2112BE434
:1005500039E546E05DE30E942B1269837A838B8341
:100560009C83CECF0130110549F584E090E099D706
:1005700085E090E096D786E090E0F9D78BE090E0B8
:100580006FDE20E030E040E85AE30E94491323E3A5
:1005900033E343E550E40E94491323EB3BE742E396
:1005A0005FE30E94C2112BE439E546E05DE30E945F
:1005B0002B126D837E838F839887A2CF0230110523
:1005C00049F584E090E06DD785E090E06AD786E059
:1005D00090E067D78BE090E043DE20E030E040E839
:1005E0005AE30E94491323E333E343E550E40E94B6
:1005F000491323EB3BE742E35FE30E94C2112BE484
:1006000039E546E05DE30E942B1269877A878B8784
:100610009C8705C083E0E816F1040CF471CF81E0FB
:1006200090E03FD784E090E0A2D785E090E09FD7AC
:1006300086E090E09CD7F9800A811B81EC80AD8038
:10064000BE80CF80D8842A2D3B2D4C2D5D2D6F2D63
:10065000702F812F9E2D0E942712882324F4FA2CBC
:100660000B2D1C2DED2CA984BA84CB84DC842F2D7A
:10067000302F412F5E2D6A2D7B2D8C2D9D2D0E94BC
:100680004513181624F4FA2C0B2D1C2DED2C6F2D70
:10069000702F812F9E2D2C960FB6F894DEBF0FBEC3
:1006A000CDBFDF91CF911F910F91FF90EF90DF9021
:1006B000CF90BF90AF9008958F929F92AF92BF92CC
:1006C000CF92DF92EF92FF926B017C0149015A01B8
:1006D0002AE939E949E15FE3C501B4010E94271223
:1006E00088230CF087C020E030E040E850E4C701E8
:1006F000B6010E94451318160CF4ABC120E030E09F
:1007000040E850E4C701B6010E94271288235CF438
:1007100023E333E343E750E4C701B6010E944513E6
:1007200018160CF49BC123E333E343E750E4C701FD
:10073000B6010E94271288235CF420E030E040E7F5
:1007400050E4C701B6010E94451318160CF48BC182
:1007500020E030E040E750E4C701B6010E942712D4
:1007600088235CF42DEC3CEC4CE650E4C701B60168
:100770000E94451318160CF47BC12DEC3CEC4CE6A2
:1007800050E4C701B6010E94271288235CF426E6D4
:1007900036E646E650E4C701B6010E944513181636
:1007A0000CF46BC126E636E646E650E4C701B60116
:1007B0000E94271288235CF420E030E040E650E4F9
:1007C000C701B6010E94451318160CF45BC120E066
:1007D00030E040E650E4C701B6010E9427128823AA
:1007E0000CF455C183E595E00E94171060E070E0BD
:1007F000CB019BC12AE939E949E15FE3C501B401B5
:100800000E94451318160CF092C020E030E040E43E
:1008100050E4C501B4010E94271288230CF087C060
:1008200020E030E040E750E4C701B6010E944513E4
:1008300018160CF431C120E030E040E750E4C70165
:10084000B6010E94271288235CF42AE939E949E6B7
:1008500050E4C701B6010E94451318160CF421C1DB
:100860002AE939E949E650E4C701B6010E94271296
:1008700088235CF423E333E343E650E4C701B60185
:100880000E94451318160CF411C123E333E343E629
:1008900050E4C701B6010E94271288235CF42DECB6
:1008A0003CEC4CE550E4C701B6010E944513181614
:1008B0000CF401C12DEC3CEC4CE550E4C701B60151
:1008C0000E94271288235CF426E636E646E550E4CB
:1008D000C701B6010E94451318160CF4F1C026E6B4
:1008E00036E646E550E4C701B6010E942712882388
:1008F0005CF423E333E343E550E4C701B6010E940F
:10090000451318160CF4E1C023E333E343E550E448
:10091000C701B6010E94271288230CF4DBC083E5CF
:1009200095E00E94171060E070E0CB01FEC020E06F
:1009300030E040E450E4C501B4010E9445131816AC
:100940000CF0CDC023E333E343E750E4C701B60125
:100950000E94451318160CF4C6C023E333E343E7A3
:1009600050E4C701B6010E94271288235CF420E0FE
:1009700030E040E750E4C701B6010E944513181665
:100980000CF4B6C020E030E040E750E4C701B60107
:100990000E94271288235CF42AE939E949E650E4E9
:1009A000C701B6010E94451318160CF4A6C02AE927
:1009B00039E949E650E4C701B6010E9427128823AD
:1009C0005CF420E030E040E650E4C701B6010E944C
:1009D000451318160CF496C020E030E040E650E4D1
:1009E000C701B6010E94271288235CF42AE939E97D
:1009F00049E550E4C701B6010E94451318160CF4EE
:100A000086C02AE939E949E550E4C701B6010E94E8
:100A1000271288235CF420E030E040E550E4C70171
:100A2000B6010E94451318160CF476C020E030E0A1
:100A300040E550E4C701B6010E94271288230CF458
:100A400070C083E595E00E94171060E070E0CB0174
:100A50006CC060E070E080EA92E467C060E070E043
:100A60008CE892E462C060E070E080E792E45DC0F0
:100A700060E070E088E492E458C060E070E080E2FA
:100A800092E453C060E070E080EF91E44EC060E01B
:100A900070E080EA91E449C060E070E080EA92E4AE
:100AA00044C060E070E08CE892E43FC060E070E039
:100AB00080E792E43AC060E070E088E492E435C0F8
:100AC00060E070E080E292E430C060E070E080EFCF
:100AD00091E42BC060E070E080EA91E426C060E021
:100AE00070E0CB0122C060E070E080EA92E41DC0BB
:100AF00060E070E08CE892E418C060E070E080E7AD
:100B000092E413C060E070E088E492E40EC060E01C
:100B100070E080E292E409C060E070E080EF91E470
:100B200004C060E070E080EA91E4FF90EF90DF9015
:100B3000CF90BF90AF909F908F9008958823D1F170
:100B400081E090E0A6D4882309F453C061E070E00E
:100B500080E095D485E795E00E9417108DE00E9413
:100B600007108AE00E9407108AE00C94071008958D
:100B700082E995E00E9417108DE00E9407108AE03C
:100B80000E9407108AE00C94071008958AE00E94E2
:100B900007108DE00E9407108BEA95E00E94171065
:100BA0008DE00E9407108AE00E9407108AE00C94F2
:100BB0000710089504B604FE0EC08DEB95E00E9468
:100BC00017108DE00E9407108AE00E9407108AE04B
:100BD0000C940710089587ED95E00E9417108DE0A2
:100BE0000E9407108AE00E9407108AE00C94071008
:100BF000089580E090E04DD48111C8CFB9CF60E076
:100C000070E080E03CC4089560E070E08FEF37C48E
:100C1000089580E090E03DD4882339F0869539F03E
:100C2000869539F0869539F4089580E0089580E03E
:100C3000089580E0089584E00895E1DFA89581E0BB
:100C40000E946A1080E00C9446100895CF9383EFC1
:100C500095E00E9417108AE00E9407108DE00E9424
:100C60000710C9E38C2F0E9407102FE38DE093E05B
:100C7000215080409040E1F700C000008AE00E94CF
:100C800007108DE00E940710C150C03359F789E06A
:100C900096E00E9417108AE00E9407108AE00E94E6
:100CA00007108DE00E940710CF910895B2DF8823CE
:100CB000C1F084E396E00E9417108AE00E940710BA
:100CC0008DE00E94071082E596E00E9417108AE0EE
:100CD0000E9407108AE00E9407108DE00C94071014
:100CE0000895B4DF91CF08958AE090E0DAD380E0F0
:100CF00090E0BEDA26E636E646E450E40E9427128B
:100D00008823ACF308958BE090E0CBD382E090E0B1
:100D1000AFDA2AE939E949E950E40E942712882329
:100D2000ACF3089580E190E0BCD383E090E0A0DADA
:100D30002AE939E949EF50E40E9427128823ACF3ED
:100D4000089585E190E0ADD384E090E091DA20E071
:100D500030E040E250E40E9427128823ACF308956B
:100D600085FD03C08AE090E002C40895827319F4FF
:100D70008BE090E0FCC30895847C19F480E190E05E
:100D8000F6C3089580FD03C085E190E0F0C30895A7
:100D90000F931F93CF93C82F8B0180FF11C08670D4
:100DA00079F48C2FE3DF8C2FE7DF83E090E0DFD353
:100DB00082E090E0DCD3C5DF80E090E072D33BC0FE
:100DC000C1FF12C08C2F857079F48C2FDBDF8C2F44
:100DD000D3DF80E090E0CBD382E090E0C8D393DF14
:100DE00083E090E05ED327C0C2FF12C08C2F8370D7
:100DF00079F48C2FC7DF8C2FB9DF80E090E0B7D378
:100E000083E090E0B4D38EDF82E090E04AD313C059
:100E100080E090E0ACD383E090E0A9D382E090E062
:100E2000A6D38C2FAFDF8C2FA1DF8C2FA5DFF8018D
:100E30008081887F8083CF911F910F91089583FFD8
:100E400004C088E190E02DC3089588E190E08FC34D
:100E50000895CF93C82F84FF08C055DF87E190E045
:100E600020D386E190E01DD308C086E190E07FD3D7
:100E700087E190E07CD38C2F79DFCF910895CF93D9
:100E8000C82F85FF09C03FDF2FDF8BE190E009D33A
:100E90008CE190E006D30AC08CE190E068D38BE14E
:100EA00090E065D38C2F5CDF8C2F60DFCF910895AD
:100EB000CF93C82F86FF05C035DF8AE190E0F1D2DD
:100EC00005C08AE190E053D38C2F56DFCF9108956F
:100ED000CF93C82F88232CF425DF89E190E0E1D25D
:100EE00005C089E190E043D38C2F46DFCF91089570
:100EF000CF93C82F4DDF8C2FA2DF8C2FAADF8C2F32
:100F0000BEDF8C2FD5DF8C2FE3DFCF910895FC015E
:100F100081E080838183128213821482158284E0AF
:100F200086838AE0878388E0808781878CE1828757
:100F30008AE1838788E18487858716868CEB87879B
:100F40008AE3808B88E3818B828B138A8CEF848B7E
:100F50008AEF858B88EF868B878B108E08958F9212
:100F60009F92AF92BF92CF92DF92EF92FF92CF9378
:100F70006B017C0149015A0120E030E040EA51E474
:100F80000E94271288230CF04FC020E030E040E29E
:100F900052E4C501B4010E94451388230CF0C6C178
:100FA00020E030E040EF51E4C501B4010E94451358
:100FB00088235CF020E030E040E252E4C501B40157
:100FC0000E94271288230CF4B4C120E030E040E7EF
:100FD00051E4C501B4010E94451388235CF020E070
:100FE00030E040EF51E4C501B4010E94271288238C
:100FF0000CF4A2C120E030E0A901C501B4010E94B7
:10100000451388230CF49BC1C1E0F12C20E030E0B3
:1010100040E751E4C501B4010E94271288230CF077
:10102000C0E08C2F9F2DCAC120E030E040E252E4A6
:10103000C701B6010E94271288230CF05BC020E094
:1010400030E040EA51E4C701B6010E94451388230D
:101050000CF450C020E030E040E252E4C501B4019D
:101060000E94451388230CF06DC120E030E040EF72
:1010700051E4C501B4010E94451388235CF020E0CF
:1010800030E040E252E4C501B4010E9427128823F7
:101090000CF45BC120E030E040E751E4C501B4014D
:1010A0000E94451388235CF020E030E040EF51E4DB
:1010B000C501B4010E94271288230CF449C120E025
:1010C00030E0A901C501B4010E94451388230CF446
:1010D00042C120E030E040E751E4C501B4010E9484
:1010E0002712082E000C990B8827990F881F992723
:1010F000059664C120E030E040E752E4C701B60144
:101100000E94271288230CF05BC020E030E040E210
:1011100052E4C701B6010E94451388230CF442C172
:1011200020E030E040E252E4C501B4010E944513E2
:1011300088230CF013C120E030E040EF51E4C501FA
:10114000B4010E94451388235CF020E030E040E2C7
:1011500052E4C501B4010E94271288230CF401C196
:1011600020E030E040E751E4C501B4010E9445139E
:1011700088235CF020E030E040EF51E4C501B40189
:101180000E94271288230CF4EFC020E030E0A90170
:10119000C501B4010E94451388230CF4E8C020E087
:1011A00030E040E751E4C501B4010E942712082E47
:1011B000000C990B8827990F881F99270A96FEC063
:1011C00020E030E040EA52E4C701B6010E94271255
:1011D00088230CF05BC020E030E040E752E4C70118
:1011E000B6010E94271218160CF450C020E030E01F
:1011F00040E252E4C501B4010E94451388230CF07B
:10120000B9C020E030E040EF51E4C501B4010E94D4
:10121000451388235CF020E030E040E252E4C50151
:10122000B4010E94271288230CF4A7C020E030E00C
:1012300040E751E4C501B4010E94451388235CF0E6
:1012400020E030E040EF51E4C501B4010E942712D4
:1012500088230CF495C020E030E0A901C501B40159
:101260000E94451388230CF48EC020E030E040E754
:1012700051E4C501B4010E942712082E000C990BFD
:101280008827990F881F99270F9698C020E030E093
:1012900040E252E4C501B4010E94451388230CF0DA
:1012A00075C020E030E040EF51E4C501B4010E9478
:1012B000451388235CF020E030E040E252E4C501B1
:1012C000B4010E94271288230CF463C020E030E0B0
:1012D00040E751E4C501B4010E94451388235CF046
:1012E00020E030E040EF51E4C501B4010E94271234
:1012F00088230CF451C020E030E0A901C501B401FD
:101300000E94451388230CF44AC020E030E040E7F7
:1013100051E4C501B4010E942712082E000C990B5C
:101320008827990F881F9927449648C084E090E049
:1013300045C083E090E042C082E090E03FC080E0A2
:1013400090E03CC089E090E039C088E090E036C091
:1013500087E090E033C085E090E030C08EE090E020
:101360002DC08DE090E02AC08CE090E027C08AE09C
:1013700090E024C083E190E021C082E190E01EC0B3
:1013800081E190E01BC08FE090E018C088E190E020
:1013900015C087E190E012C086E190E00FC084E1C3
:1013A00090E00CC020E030E040EA52E4C701B60112
:1013B0000E94271288230CF419CF68CFCF91FF9099
:1013C000EF90DF90CF90BF90AF909F908F90089557
:1013D000FC01AC01485F5F4F91E03EE689E7262FB4
:1013E000292319F08083990F02C03083990F319619
:1013F000E417F507A1F70895DB01FC01AC01485F94
:101400005F4F3FEF91E02191293729F48C91892B8F
:101410008C93990F05C039272C9123232C93990F76
:10142000E417F50781F70895EF92FF921F93CF938A
:10143000DF93CDB7DEB729970FB6F894DEBF0FBEA6
:10144000CDBF869F802D1124882369F07A01CE01BB
:101450000196FBD510E0612F70E0CE010196CCDF44
:10146000F7011083F4CF29960FB6F894DEBF0FBEB4
:10147000CDBFDF91CF911F91FF90EF900895F99923
:10148000FECF72BD61BD80BD84E08FBB82E08FBBAB
:101490000895F999FECF92BD81BD81E08FBB80B5E3
:1014A0000895873091057CF4E2E0F1E0408121E08D
:1014B00030E0B90102C0660F771F8A95E2F7CB01D1
:1014C000842B808308959C012750310923303105F6
:1014D00080F4EBE0F1E04081069721E030E0B901D3
:1014E00002C0660F771F8A95E2F7CB01842B8083B9
:1014F00008959C012A5031092430310570F442B11D
:10150000069721E030E0B90102C0660F771F8A9587
:10151000E2F7CB01842B82B908959C012E5031094A
:101520002730310580F4E5E0F1E04081C90121E098
:1015300030E0B90102C0660F771F8A95E2F7CB0150
:10154000842B808308959C01255131092830310571
:1015500068F448B1C90121E030E0B90102C0660F6A
:10156000771F8A95E2F7CB01842B88B908958730DD
:10157000910584F4E2E0F1E0908141E050E002C0A6
:10158000440F551F8A95E2F72EEF842F8227892377
:10159000808308959C01275031092330310590F450
:1015A000EBE0F1E02081AC014650510981E090E090
:1015B00002C0880F991F4A95E2F79EEF8927822380
:1015C000808308959C012A5031092430310580F42C
:1015D00022B1AC014650510981E090E002C0880F71
:1015E000991F4A95E2F79EEF8927822382B90895D1
:1015F0009C012E5031092730310590F4E5E0F1E0EF
:101600002081AC014E50510981E090E002C0880F6A
:10161000991F4A95E2F79EEF8927822380830895D8
:101620009C01255131092830310578F428B14597BE
:1016300041E050E0BA0102C0660F771F8A95E2F7D9
:10164000CB019EEF8927822388B908951F93CF93FA
:10165000DF93EC01162F57DB82E090E00E94A1019E
:10166000688379838A839B8383E090E00E94A10151
:101670006C837D838E839F8381E090E00E94A10133
:10168000688779878A879B8780E090E00E94A10124
:101690006C877D878E879F8785E090E00E94A101FF
:1016A000688B798B8A8B9B8B84E090E00E94A101F0
:1016B0006C8B7D8B8E8B9F8B80E090E00E9438013D
:1016C000688F798F8A8F9B8F81E090E00E9438012C
:1016D0006C8F7D8F8E8F9F8F82E090E00E9438010B
:1016E00068A379A38AA39BA383E090E00E943801BA
:1016F0006CA37DA38EA39FA384E090E00E94380199
:1017000068A779A78AA79BA70E9464026CA77DA7F8
:101710008EA79FA7812F2ADBDF91CF911F9108957C
:101720002F923F924F925F926F927F928F929F92F1
:10173000AF92BF92CF92DF92EF92FF920F931F93DF
:10174000CF93DF93CDB7DEB7C35BD2400FB6F8942B
:10175000DEBF0FBECDBFC055DD4F99838883C05B10
:10176000D240C655DD4F79836883CA5AD240C455EA
:10177000DD4F4883CC5AD240C355DD4F2883CD5A24
:10178000D24081E5E9E1F2E0DE01119601900D928F
:101790008A95E1F7FE01EE5AFF4F83E1DF011D92CA
:1017A0008A95E9F786E4EDE7F2E0DE01AB59BF4F39
:1017B00001900D928A95E1F7FE01E555FF4F8EE10C
:1017C000DF011D928A95E9F7BE016B597F4FCE016B
:1017D00001960E9424182BD48AE019D48AE017D4E9
:1017E0008DE015D480EAE1EEF2E0DE01A753BF4FB1
:1017F00001900D928A95E1F780EFE1E8F3E0DE01D8
:10180000A759BE4F01900D928A95E1F782E4E1E776
:10181000F4E0DE01A75ABD4F01900D928A95E1F7E1
:10182000FE01E759FE4F7F01AA24A394B12CC12CDD
:10183000D12C212C312C612C712CC255DD4F1982F9
:101840001882CE5AD24000E010E00F2EF4E18F2E25
:10185000912CF02D2E01F5E64F1AFDEF5F0ACE54C4
:10186000DD4F4882C25BD240CD54DD4F5882C35B0E
:10187000D240C60126E0C216D10409F0DBC18AE0DD
:10188000C6D38DE0C4D336E0631671040CF063C098
:101890008301000F111F000F111FC055DD4F8881FC
:1018A0009981C05BD240080F191F4BC080E2AFD3B3
:1018B000C255DD4FA881B981CE5AD2401197C25589
:1018C000DD4FB983A883CE5AD240AB2B79F7F8010C
:1018D00080819181228133810C5F1F4F3F932F9331
:1018E0009F938F9323E736E03F932F935F924F921E
:1018F0000E947F18CE54DD4F8881C25BD240CD5408
:10190000DD4F9881C35BD24092D39FEF691A790A69
:10191000F20101900020E9F73197E419F509D401AB
:10192000AE1BBF0BC255DD4FB983A883CE5AD24040
:101930000FB6F894DEBF0FBECDBFF6E06F16710490
:1019400051F0C255DD4F28813981CE5AD240232B28
:1019500009F0ACCFBCCF8AE05AD38AE058D38DE0EF
:1019600056D336E1329DC001339D900D1124A9E577
:10197000B2E0AC0FBD1F8A0F9B1F59D38AE047D33B
:101980008AE045D38DE043D3BFEF2B1A3B0A56C103
:10199000E6E1E29DC001E39D900D112429E532E0CE
:1019A0002C0F3D1F820F931F42D38AE030D38AE071
:1019B0002ED38DE02CD33FEF231A330A01151105E6
:1019C00021F43CC10115110529F080E220D301501A
:1019D0001109D9F7C7012BD3F70101900020E9F7CE
:1019E0003197EE19FF0984010E1B1F0B8CE0A8161E
:1019F000B10409F05FC08AE00AD38DE008D39CE00F
:101A0000691671040CF064C08301000F111F000FF0
:101A1000111FC055DD4FA881B981C05BD2400A0FAC
:101A20001B1F0F2EF8E7AF2EF6E0BF2EF02D7E0124
:101A3000B5E6EB1ABDEFFB0A0F2EF4E18F2E912CC9
:101A4000F02D06C080E2E3D2E1E0CE1AD108D1F752
:101A5000D8018C9111969C91119712962C91129706
:101A600013963C910C5F1F4F3F932F939F938F933F
:101A7000BF92AF92FF92EF920E947F18C701D7D218
:101A8000BFEF6B1A7B0AF70101900020E9F731974D
:101A9000EE19FF096401CE1ADF0A0FB6F894DEBF13
:101AA0000FBECDBFFCE06F16710491F0C114D104DC
:101AB00049F6CECF2FEFC21AD20A3FEFA31AB30ACC
:101AC00084E1E80EF11C9CE0C916D10409F0D1CEE6
:101AD0008AE09DD28AE09BD28DE099D226E1229DB8
:101AE000C001239D900D1124A9E5B2E0AC0FBD1FEC
:101AF0008A0F9B1F9CD28AE08AD28AE088D28DE02E
:101B000086D28E0107531F4F6E01BBEACB1ABEEF80
:101B1000DB0A0F2EF4E1EF2EF12CF02D08C080E24D
:101B200076D2E1E0AE1AB108D1F70C5E1F4FC801C2
:101B30007ED2F80101900020E9F73197E01BF10B0C
:101B40005701AE1ABF0AC016D10621F0A114B10484
:101B500031F7EBCF8AE05BD28DE059D2C655DD4F2D
:101B6000E880F980CA5AD2403701F8E06F0E711C44
:101B700005C080E24CD201501109D9F7D7018D91EF
:101B80007D01893731F48DE796E051D202E110E012
:101B900005C080E896E04BD201E110E06E147F04AE
:101BA00041F78AE034D28AE032D28DE030D284E844
:101BB00096E03DD28AE02BD28DE029D21F92C45507
:101BC000DD4FB881CC5AD240BF938CE896E09F930A
:101BD0008F938E010B551D4F1F930F930E947F18FB
:101BE000C80125D28AE013D28AE011D28DE00FD24B
:101BF0008FE896E01CD28AE00AD28DE008D20F90DE
:101C00000F900F900F900F900F90C355DD4FE8810C
:101C1000CD5AD240EE2321F084E996E008D203C0E9
:101C20008FE996E004D28AE0F2D18AE0F0D18DE02B
:101C3000EED111C0892B09F0C5CEAACEC701F7D1CC
:101C4000F70101900020E9F73197EE19FF098401AF
:101C50000E1B1F0B2FCFCD54DD4F0FB6F894DEBFF8
:101C60000FBECDBFDF91CF911F910F91FF90EF90ED
:101C7000DF90CF90BF90AF909F908F907F906F90AC
:101C80005F904F903F902F90089561E070E08FEF4C
:101C9000F6DBA89581E01ED280E0F8C108954F924E
:101CA0005F926F927F928F929F92AF92BF92CF92EC
:101CB000DF92EF92FF920F931F93CF93DF93CDB7F5
:101CC000DEB7C05AD1090FB6F894DEBF0FBECDBF44
:101CD0003C015B016A014901280188E098D180EA52
:101CE000E3EBF4E0DE01119601900D928A95E1F7A5
:101CF00086EA96E09CD18AE08AD18AE088D18DE09C
:101D000086D18E010F5F1F4F0F2EF1E3FF2EF02DB6
:101D10008F2D7DD187EC96E08AD1C80188D18AE0E9
:101D200076D18DE074D1F3940C5E1F4F89E3F812E5
:101D3000EFCF8AE06CD18CEC96E079D18AE067D164
:101D40008AE065D18DE063D189EC96E070D10F2EE9
:101D5000F4E1FF2EF02D63D1182F8AE058D18AE0EC
:101D600056D18DE054D187EE96E061D1812F110FCD
:101D7000990BC197F89E8001F99E100D1124E1E0A6
:101D8000F0E0EC0FFD1F0E0F1F1FC80150D18AE0BD
:101D90003ED18AE03CD18DE03AD16BEF76E0C801CC
:101DA0000E942F18892B99F484E097E040D18AE0B3
:101DB0002ED18AE02CD18DE02AD16C2DC30146DCD6
:101DC000F50120814E2DB401C301AADCC0C063E23D
:101DD00077E0C8010E942F18892B09F033C0F50164
:101DE000808181111CC08DE297E021D18AE00FD162
:101DF0008AE00DD18DE00BD189EC96E018D1C401B9
:101E000024D1B601C401F8DAB601F601808170D898
:101E10008AE0FDD08AE0FBD08DE0F9D098C087E45D
:101E200097E005D18AE0F3D08AE0F1D08DE0EFD0E1
:101E30008AE697E0FCD08AE0EAD08AE0E8D08DE03C
:101E4000E6D085C06DEA77E0C8010E942F18892B83
:101E500041F588EB97E0EBD08AE0D9D08AE0D7D083
:101E60008DE0D5D089EC96E0E2D0D9D0182F8AE069
:101E7000CED08AE0CCD08DE0CAD08BED97E0D7D021
:101E80008AE0C5D08AE0C3D08DE0C1D089EC96E06D
:101E9000CED0C5D060ED680FA20180ED810FC4DA0D
:101EA00056C062E078E0C8010E942F18892B09F41F
:101EB0004EC06EE078E0C8010E942F18892BB9F45B
:101EC000F501808191E0811190E0F50190838823F4
:101ED00021F089E198E0ABD003C082E398E0A7D07D
:101EE0008AE095D08AE093D08DE091D030C06FE445
:101EF00078E0C8010E942F18892B19F40E941D0652
:101F000026C06BE578E0C8010E942F18892B51F498
:101F100086E698E08CD08AE07AD08AE078D08DE0AE
:101F200076D015C065E578E0C8010E942F18892B8E
:101F300011F4ABDE0CC08BE998E079D08AE067D071
:101F40008AE065D08DE063D08EE361D004CFC056C7
:101F5000DF4F0FB6F894DEBF0FBECDBFDF91CF913C
:101F60001F910F91FF90EF90DF90CF90BF90AF90B7
:101F70009F908F907F906F905F904F9008958FE724
:101F8000809301019EE090930A0190EF91B98093B4
:101F900004018FEF87B982E08093020110920B0158
:101FA00012B81092050118B8089510BA10927C006A
:101FB00085E880937A00089584E08093810082E030
:101FC00080936F008FEF90E090938900809388005A
:101FD000109285001092840008951092C5008CE044
:101FE0008093C40088E98093C10086E08093C2009A
:101FF000089584B7877F84BF82E06CD089E046C0B3
:102000000895BDDFD2DFE9DFD7DFF3CF0895E0EC3D
:10201000F0E0908195FFFDCF8093C6000895E0EC3D
:10202000F0E080818823ECF78091C6000895CF937B
:10203000DF93EC018881882329F02196E8DF8991DC
:102040008111FCCFDF91CF910895EF92FF920F9312
:102050001F93CF93DF937C01E2DF8D3059F087012E
:10206000C0E0D0E0F80181938F012196D8DF8D3058
:10207000C9F702C0C0E0D0E0CE0DDF1D1882DF91AD
:10208000CF911F910F91FF90EF900895CF93DF9321
:102090001F92CDB7DEB7382F83FF02C050E201C0D8
:1020A00050E08FB78983F8948981A89518ED209125
:1020B000600012231093600048E127E03223352BA3
:1020C000312B40936000309360008FBF0F90DF9101
:1020D000CF910895CF93DF931F92CDB7DEB79FB70F
:1020E0009983F8942981A89594B7977F94BF8130FC
:1020F00059F41FEB2091600012231093600028E92F
:10210000212B209360001CC081110EC017EF20917D
:10211000600012231093600048E130ED312B4093B2
:102120006000309360000CC0823051F417EF2091B2
:10213000600012231093600028ED212B2093600093
:102140002FBF0F90DF91CF9108951F920F920FB67E
:102150000F9211242F933F934F935F936F937F932D
:102160008F939F93AF93BF93EF93FF93F8946091F6
:10217000C6088BEF98E06ADAEBEFF8E084A595A546
:10218000A6A5B7A58093CD089093CE08A093CF08BD
:10219000B093D008208931894289538960A571A5FF
:1021A00082A593A50E945C036093D5087093D6081E
:1021B0008093D7089093D80820910002222339F108
:1021C0002091CD083091CE084091CF085091D00891
:1021D0000E94AF079093C8088093C708FC01E7529C
:1021E000F74F60816093C60882EF98E0F1D866EC03
:1021F00078E08091C6080E94780720910002409103
:10220000C70862EF78E08BEF98E08ADA14C060913B
:10221000C60882EF98E0DCD866EC78E08091C608CA
:102220000E947807209100024091C70862EF78E091
:102230008BEF98E075DA8091C6088093C50880918D
:10224000CD089091CE08A091CF08B091D00880938E
:10225000C9089093CA08A093CB08B093CC0880918A
:10226000D5089091D608A091D708B091D80880934E
:10227000D1089093D208A093D308B093D40878944F
:10228000FF91EF91BF91AF919F918F917F916F914E
:102290005F914F913F912F910F900FBE0F901F9024
:1022A00018951F920F920FB60F921124EF920F9371
:1022B0001F932F933F934F935F936F937F938F93CE
:1022C0009F93AF93BF93EF93FF93F894A8DE80930F
:1022D0003009E090C7080BE219E022EF38E046EC45
:1022E00058E060E072E08BEF98E0D9DC7894FF91E1
:1022F000EF91BF91AF919F918F917F916F915F917E
:102300004F913F912F911F910F91EF900F900FBE22
:102310000F901F9018951F920F920FB60F921124D5
:102320002F933F934F935F936F937F938F939F93DD
:10233000AF93BF93EF93FF93F8945BDE7894FF9194
:10234000EF91BF91AF919F918F917F916F915F912D
:102350004F913F912F910F900FBE0F901F901895A6
:1023600084B788708093C4084CDEF8948091C408C8
:102370000E949E050E94560689ED98E00E948707FC
:102380007894FFCF5058BB27AA270ED044C135D12F
:1023900030F03AD120F031F49F3F11F41EF42AC1FD
:1023A0000EF4E095E7FB20C1E92F46D180F3BA1780
:1023B000620773078407950718F071F49EF55EC1F4
:1023C0000EF4E0950B2EBA2FA02D0B01B901900150
:1023D0000C01CA01A0011124FF27591B99F0593F94
:1023E00050F4503E68F11A16F040A22F232F342FDC
:1023F0004427585FF3CF469537952795A795F0402A
:102400005395C9F77EF41F16BA0B620B730B840B3E
:10241000BAF09150A1F0FF0FBB1F661F771F881FF6
:10242000C2F70EC0BA0F621F731F841F48F487954E
:1024300077956795B795F7959E3F08F0B3CF93953D
:10244000880F08F09927EE0F979587950895A8D0E3
:1024500008F481E008950CD0DEC0D6D040F0CDD095
:1024600030F021F45F3F19F0BFC0511108C1C2C064
:10247000E3D098F39923C9F35523B1F3951B550B7A
:10248000BB27AA2762177307840738F09F5F5F4F47
:10249000220F331F441FAA1FA9F333D00E2E3AF088
:1024A000E0E830D091505040E695001CCAF729D0A2
:1024B000FE2F27D0660F771F881FBB1F26173707F1
:1024C0004807AB07B0E809F0BB0B802DBF01FF2721
:1024D00093585F4F2AF09E3F510568F085C0CFC0EA
:1024E0005F3FECF3983EDCF3869577956795B7955B
:1024F000F7959F5FC9F7880F911D9695879597F976
:102500000895E1E0660F771F881FBB1F62177307EE
:102510008407BA0720F0621B730B840BBA0BEE1F03
:1025200088F7E0950895E89409C097FB3EF49095EC
:102530008095709561957F4F8F4F9F4F9923A9F09C
:10254000F92F96E9BB279395F6958795779567952B
:10255000B795F111F8CFFAF4BB0F11F460FF1BC06F
:102560006F5F7F4F8F4F9F4F16C0882311F096E902
:1025700011C0772321F09EE8872F762F05C06623B0
:1025800071F096E8862F70E060E02AF09A95660F69
:10259000771F881FDAF7880F9695879597F9089522
:1025A000990F0008550FAA0BE0E8FEEF1616170664
:1025B000E807F907C0F012161306E407F50798F0CC
:1025C000621B730B840B950B39F40A2661F0232BE5
:1025D000242B252B21F408950A2609F4A140A69561
:1025E0008FEF811D811D089597F99F6780E870E046
:1025F00060E008959FEF80EC089500240A94161679
:10260000170618060906089500240A9412161306E0
:10261000140605060895092E0394000C11F488236E
:1026200052F0BB0F40F4BF2B11F460FF04C06F5F8A
:102630007F4F8F4F9F4F089557FD9058440F551F60
:1026400059F05F3F71F04795880F97FB991F61F034
:102650009F3F79F087950895121613061406551FAB
:10266000F2CF4695F1DF08C0161617061806991F17
:10267000F1CF86957105610508940895E894BB270C
:1026800066277727CB0197F908958ADF08F48FEF43
:1026900008950BD0C0CFB1DF28F0B6DF18F0952336
:1026A00009F0A2CFA7CF1124EACFC6DFA0F3959FF0
:1026B000D1F3950F50E0551F629FF001729FBB2729
:1026C000F00DB11D639FAA27F00DB11DAA1F649FD5
:1026D0006627B00DA11D661F829F2227B00DA11D88
:1026E000621F739FB00DA11D621F839FA00D611D0E
:1026F000221F749F3327A00D611D231F849F600D2F
:10270000211D822F762F6A2F11249F5750408AF067
:10271000E1F088234AF0EE0FFF1FBB1F661F771FF3
:10272000881F91505040A9F79E3F510570F05CCF33
:10273000A6CF5F3FECF3983EDCF3869577956795DF
:10274000B795F795E7959F5FC1F7FE2B880F911D11
:102750009695879597F90895A0E1B0E0E1EBF3E154
:1027600059C37C011B016A01FC0117821682838117
:1027700081FF2AC39E012F5F3F4F3901F7019381EB
:10278000F10193FD859193FF81911F01882309F445
:1027900017C3853239F493FD859193FF81911F0111
:1027A000853231F4B70190E06ED456016501E6CF71
:1027B00010E0512C912CFFE1F915D8F08B3279F013
:1027C00038F4803279F08332A1F4F92DF0612EC013
:1027D0008D3261F0803369F4292D21602DC0392DAF
:1027E0003260932E892D8460982E2AC0E92DE860EE
:1027F00015C097FC2DC020ED280F2A3088F496FED6
:1028000006C03AE0139F200D1124122F19C08AE050
:10281000589E200D1124522EE92DE0629E2E10C0EC
:102820008E3231F496FCCCC2F92DF0649F2E08C094
:102830008C3621F4292D2068922E02C0883641F46E
:10284000F10193FD859193FF81911F018111B3CF18
:102850009BEB980F933020F4992D9061805E07C018
:102860009BE9980F933008F059C1992D9F7E96FFF0
:1028700016E09F73992E853619F49064992E08C03E
:10288000863621F4392F3068932E02C01111115071
:1028900097FE07C01C3350F444244394410E27E0B4
:1028A0000BC0183038F027E017E005C027E09CE3A4
:1028B000492E02C0212F412C560184E0A80EB11CE4
:1028C000F6016081718182819381042DA301D9D2A7
:1028D0006C01F981FC87F0FF02C0F3FF06C091FC98
:1028E00006C092FE06C000E205C00DE203C00BE286
:1028F00001C000E08C858C7019F0011143C280C2C8
:1029000097FE10C04C0CFC85F4FF04C08A81813313
:1029100009F44A94141474F528E0241578F588E035
:10292000482E2CC096FC2AC0812F90E08C159D0566
:102930009CF03CEFC3163FEFD30674F0892D8068FE
:10294000982E0AC0E2E0F0E0EC0FFD1FE10FF11D50
:102950008081803319F411501111F4CF97FE0EC00D
:1029600044244394410E812F90E0C816D9062CF4DC
:102970001C1904C04424439401C010E097FE06C013
:102980001C141D0434F4C601019605C085E090E0D6
:1029900002C081E090E001110196112331F0212F56
:1029A00030E02F5F3F4F820F931F252D30E08217BD
:1029B000930714F4581A01C0512C892D897041F4E1
:1029C000552031F0B70180E290E05DD35A94F8CF02
:1029D000002321F0B701802F90E055D393FC08C06D
:1029E000552031F0B70180E390E04DD35A94F8CFF1
:1029F00097FE4AC04601D7FE02C0812C912CC60129
:102A000088199909F301E80FF91FFE87ED879601F0
:102A100024193109388B2F87012F10E0119501956A
:102A200011093FEF8316930621F4B7018EE290E07F
:102A30002AD3C814D9044CF08F8598898815990534
:102A400024F4ED85FE85818101C080E3F1E08F1AD9
:102A500091082D853E852F5F3F4F3E872D8780163D
:102A6000910624F0B70190E00ED3DBCFC814D9044F
:102A700041F49A81963320F4953319F43C8534FF60
:102A800081E3B70190E048C08A81813319F09C85C9
:102A90009F7E9C87B70190E0F6D2111105C094FC8F
:102AA00016C085E690E015C0B7018EE290E0EBD24B
:102AB0001E5F82E001E0080FF301E80FF11D808145
:102AC000B70190E0E0D2802F0113F4CFE8CF85E486
:102AD00090E0B701D8D2D7FC06C0C114D10441F4AC
:102AE000EC85E4FF05C0D194C194D1088DE201C00A
:102AF0008BE2B70190E0C7D280E32AE0C216D1048E
:102B00002CF08F5FFAE0CF1AD108F7CFB70190E031
:102B1000BAD2B701C601C096B6D249C1833631F0E8
:102B2000833779F0833509F052C01FC0560132E077
:102B3000A30EB11CF6018081898301E010E06301DE
:102B400011C05601F2E0AF0EB11CF601C080D18079
:102B500096FE03C0612F70E002C06FEF7FEFC601E9
:102B600087D28C01F92DFF7713C0560122E0A20E07
:102B7000B11CF601C080D18096FE03C0612F70E0C9
:102B800002C06FEF7FEFC60154D28C01F92DF068BF
:102B90009F2EF3FD18C0852D90E00817190798F4B3
:102BA000B70180E290E06FD25A94F5CFF60197FC1E
:102BB000859197FE81916F01B70190E064D2511029
:102BC0005A94015011090115110581F7F0C084369E
:102BD00011F0893659F5560197FE09C024E0A20E7E
:102BE000B11CF60160817181828193810AC0F2E09B
:102BF000AF0EB11CF60160817181072E000C880BAD
:102C0000990BF92DFF769F2E97FF09C0909580951F
:102C1000709561957F4F8F4F9F4FF0689F2E2AE0F0
:102C200030E0A3018BD2C82EC6183EC0092D8537CF
:102C300021F40F7E2AE030E01DC0097F8F3691F02D
:102C400018F4883559F0BCC0803719F0883711F076
:102C5000B7C0006104FF09C0046007C094FE08C04B
:102C6000066006C028E030E005C020E130E002C088
:102C700020E132E0560107FF09C084E0A80EB11C34
:102C8000F601608171818281938108C0F2E0AF0E0C
:102C9000B11CF6016081718180E090E0A3014ED209
:102CA000C82EC6180F77902E96FE0BC0092D0E7FEA
:102CB000C11650F494FE0AC092FC08C0092D0E7E85
:102CC00005C0DC2C092D03C0DC2C01C0D12E04FF73
:102CD0000DC0FE01EC0DF11D8081803311F4097EE1
:102CE00009C002FF06C0D394D39404C0802F867815
:102CF00009F0D39403FD10C000FF06C01C2DD514AD
:102D000078F4150D1D190CC0D51450F4B70180E2EC
:102D100090E0B9D1D394F8CFD51410F45D1801C068
:102D2000512C04FF0FC0B70180E390E0ACD102FF4B
:102D300016C001FD03C088E790E002C088E590E07E
:102D4000B7010CC0802F867851F001FF02C08BE2E2
:102D500001C080E207FD8DE2B70190E094D1C11679
:102D600030F4B70180E390E08ED11150F8CFCA94CF
:102D7000F301EC0DF11D8081B70190E084D1C11009
:102D8000F6CF15C0F4E0F51550F584E0581A93FE1F
:102D90001EC0011125C02C8523FF27C004EE10E0C2
:102DA000392D3071932EF8018491811121C0552065
:102DB00009F4FCCCB70180E290E065D15A94F7CFDA
:102DC000F7018681978123C08FEF9FEF20C0B70165
:102DD00080E290E058D15A945110F9CFDACF512CBB
:102DE000B701802F90E04FD1D6CF08EE10E0D8CFBA
:102DF00091108052B70190E046D10F5F1F4FD3CFA3
:102E000023E0251510F483E0C1CF512CC4CF609688
:102E1000E2E11CC02F923F924F925F926F927F929D
:102E20008F929F92AF92BF92CF92DF92EF92FF92DA
:102E30000F931F93CF93DF93CDB7DEB7CA1BDB0B86
:102E40000FB6F894DEBF0FBECDBF09942A8839882B
:102E500048885F846E847D848C849B84AA84B98432
:102E6000C884DF80EE80FD800C811B81AA81B9813E
:102E7000CE0FD11D0FB6F894DEBF0FBECDBFED0152
:102E80000895283008F027E03327DA01990F311D23
:102E900087FD916000966105710539F432602E5FFF
:102EA0003D9330E32A95E1F708959F3F30F0803855
:102EB0007105610509F03C5F3C5F3D93913008F07E
:102EC0008068911DDF93CF931F930F93FF92EF9232
:102ED000192F987F9695E92F96959695E90FFF27DC
:102EE000EA5BFE4F99273327EE24FF24A701E70171
:102EF00005900894079428F4360FE71EF81E491F22
:102F0000511D660F771F881F991F0694A1F7059022
:102F1000079428F4E70EF81E491F561FC11D770FAE
:102F2000881F991F661F0694A1F70590079428F43F
:102F3000F80E491F561FC71FD11D880F991F661F06
:102F4000771F0694A1F70590079420F4490F561FA8
:102F5000C71FD81F990F661F771F881F0694A9F7F0
:102F600084911095177041F0D695C7955795479560
:102F7000F794E7941A95C1F7ECEEF0E06894159099
:102F8000159135916591959105907FE27395E118C2
:102F9000F10A430B560BC90BD009C0F7E10CF11E27
:102FA000431F561FC91FD01D7EF4703311F48A953C
:102FB000E6CFE894015030F0080F0AF4002702171A
:102FC00008F4202F2395022F7A3328F079E37D939C
:102FD0002A95E9F710C07D932A9589F6069497956E
:102FE0006795379517951794E118F10A430B560B1F
:102FF000C90BD00998F023957E9173957A3308F028
:1030000070E37C932013B8F77E9170617D9330F06C
:10301000839571E37D9370E32A95E1F71124EF9096
:10302000FF900F911F91CF91DF91992787FD909588
:103030000895FC010590615070400110D8F780950B
:1030400090958E0F9F1F0895FB01DC010D900020CD
:10305000E9F7119701900D920020E1F70895FB0127
:10306000DC018D91019080190110D9F3990B08951D
:10307000FC016150704001900110D8F78095909547
:103080008E0F9F1F08950F931F93CF93DF93FB0124
:10309000238121FD03C08FEF9FEF2CC022FF16C0BC
:1030A00046815781248135814217530744F4A0811A
:1030B000B1819D012F5F3F4F318320838C93268107
:1030C00037812F5F3F4F3783268314C08B01EC017C
:1030D000FB010084F185E02D0995892BE1F6D801EB
:1030E00016968D919C911797019617969C938E93A7
:1030F0001697CE01DF91CF911F910F910895AEE009
:10310000B0E0E4E8F8E194CE0D891E8986E08C8376
:103110001A8309838FEF9FE79E838D83AE01475EFD
:103120005F4F6F89788DCE01019616DBEF81F885B0
:10313000E00FF11F10822E96E4E096CEFA01AA2746
:10314000283051F1203181F1E8946F936E7F6E5FEA
:103150007F4F8F4F9F4FAF4FB1E03ED0B4E03CD098
:10316000670F781F891F9A1FA11D680F791F8A1F7B
:10317000911DA11D6A0F711D811D911DA11D20D0E2
:1031800009F468943F912AE0269F11243019305D9C
:103190003193DEF6CF010895462F4770405D41938D
:1031A000B3E00FD0C9F7F6CF462F4F70405D4A33DA
:1031B00018F0495D31FD4052419302D0A9F7EACFA2
:1031C000B4E0A6959795879577956795BA95C9F7D1
:1031D00000976105710508959B01AC010A2E0694C4
:1031E0005795479537952795BA95C9F7620F731F7D
:0C31F000841F951FA01D0895F894FFCFC8
:1031FC00010AD7033F83C00A3F54E3053FAE4701A2
:10320C003F4A0C023F14AE073F2F2A2A2A2A2A2AA9
:10321C002A2A2A2A2A2A2A2A2A2A2A2A2A2A2A2A02
:10322C002A2A2A2A2A2A2A2A2A2A2A2A2A2A2A2AF2
:10323C002A2A2A2A2A2A2A2A2A2A2A2A2A2A2A2AE2
:10324C002A2A2A2A2A2A2A2A2A2A2A2A2A2A43756E
:10325C00626553617420455053000000000000006B
:10326C00000000000000000000000000002A2A2AD4
:10327C002A2A2A2A2A2A2A2A2A2A2A2A2A2A2A2AA2
:10328C002A2A2A2A2A2A2A2A2A2A2A2A2A2A2A2A92
:10329C002A2A2A2A2A2A2A2A2A2A2A2A2A2A2A2A82
:1032AC002A2A2A2A2A2A2A2A2A2A2A2A2A2A2A2A72
:1032BC002A2F0000000000000000000000000000A9
:1032CC0000000000000000000000000000000000F2
:1032DC00004865617465722031202856426174740F
:1032EC002900000000486561746572203220283581
:1032FC0056290000000000000048656174657220CA
:10330C00332028385629000000000000004F4243AB
:10331C0000000000000000000000000000000000A1
:10332C0000496D616765720000000000000000003C
:10333C0000000000004752495053000000000000FC
:10334C00000000000000000000532D42616E64007C
:10335C00000000000000000000000000005548467E
:10336C000000000000000000000000000000000051
:10337C00003356332D31205261696C205B415D0066
:10338C0000000000003356332D32205261696C204E
:10339C005B415D0000000000003556205261696CF5
:1033AC00205B415D0000000000000000003856204A
:1033BC005261696C205B415D000000000000000060
:1033CC000042617474657279205261696C205B41B2
:1033DC005D00000000536F6C617220496E70757453
:1033EC00205B415D00000000003356332D3120522C
:1033FC0061696C205B565D000000000000335633A1
:10340C002D32205261696C205B565D00000000007B
:10341C00003556205261696C205B565D000000003F
:10342C0000000000003856205261696C205B565D2C
:10343C0000000000000000000042617474657279A5
:10344C00205261696C205B565D0000000054656D74
:10345C007065726174757265205B435D00000000DD
:10346C000043555252454E5400000000000000002D
:10347C0000000000000000564F4C5441474500002E
:10348C00000000000000000000000000004C4F4154
:10349C004453000000000000000000000000000089
:1034AC0000000054656C656D5271740000000000E2
:1034BC000000000000000053756253797352717460
:1034CC0000000000000000000000005077724D6109
:1034DC007445646974000000000000000000005096
:1034EC0077725374617465527174000000000000AF
:1034FC000000004D6F64654368616E6765000000F5
:10350C00000000000000004C61756E63685265732A
:10351C00657400000000000000000048656C6C6FD2
:10352C00436865636B00000000000000000000525F
:10353C0065736574000000000000000000000000CE
:10354C000000004572726F722052656164696E678B
:10355C00205374617465206F6620436861726765DF
:10356C00200A0A0D0041206D616E75616C20726538
:10357C0073657420686173206F6363757272656420
:10358C002E0041206C61756E6368207265736574E2
:10359C00206F636375727265642E004120466175FD
:1035AC006C74206F636375727265642E00492068B9
:1035BC00617665206265656E20726570726F6772E8
:1035CC00616D6D65642E004120706F77657220729D
:1035DC006573657420686173206F636375727265BF
:1035EC00642E005374617274696E67204C61756E41
:1035FC0063682054696D65720054696D657220634F
:10360C006F6D706C6574652E20456E746572696E95
:10361C0067206E6F726D616C206F7065726174697A
:10362C006F6E2E0049206861766520616C72656151
:10363C006479206265656E206C61756E6368656483
:10364C002E0052657475726E696E6720746F206EF1
:10365C006F726D616C206F7065726174696F6E2E24
:10366C002E2E00252E336600252E3266004F4E007E
:10367C004F46460053544154452023002564004DC9
:10368C004F4445004175746F6E6F6D6F7573004DCF
:10369C00616E75616C004C697374206F6620617685
:1036AC0061696C61626C65204F424320436F6D6DA4
:1036BC00616E64733A2000202D3E2000456E7465C7
:1036CC007220746865206465736972656420636F29
:1036DC006D6D616E643A00596F7520686176652076
:1036EC0053656C65637465643A200054656C656D54
:1036FC00527174005570646174696E672054656C06
:10370C00656D6574727920496E666F726D6174694E
:10371C006F6E0053756253797352717400456E74F9
:10372C0065722074686520646573697265642073C2
:10373C00746174653A20004920616D206375727262
:10374C00656E746C7920696E204175746F6E6F6D47
:10375C006F7573206D6F64652E0053656C656374B3
:10376C00204D6F64654368616E6765205B355D2035
:10377C006265666F726520617474656D7074696ED4
:10378C006720746F206368616E67652074686520BC
:10379C00706F7765722073746174652E0050777248
:1037AC004D61744564697400456E7465722074686B
:1037BC00652066697273742064696D656E73696FD8
:1037CC006E2028726F7773293A2000456E746572EB
:1037DC0020746865207365636F6E642064696D6521
:1037EC006E73696F6E2028636F6C756D6E73293AFA
:1037FC0020005077725374617465527174004D6F70
:10380C0064654368616E6765004920616D206E6F69
:10381C007720696E204D616E75616C206D6F6465EB
:10382C002E004920616D206E6F7720696E204175E6
:10383C00746F6E6F6D6F7573206D6F64652E004CB9
:10384C0061756E636852657365740048656C6C6F66
:10385C00436865636B004F682048656C6C6F2C2067
:10386C004920616D20437562655361742045505346
:10387C002E2057686174277320796F7572205A6FE8
:10388C0064696163207369676E3F00436F6D6D619E
:10389C006E6420556E7265636F676E697A65642E0F
:1038AC0020506C6561736520547279206167616981
:0438BC006E2E00006C
:00000001FF
